{
  "_format": "hh-sol-artifact-1",
  "contractName": "DonationVault",
  "sourceName": "contracts/DonationVault.sol",
  "abi": [
    {
      "inputs": [],
      "name": "notEnoughValue",
      "type": "error"
    },
    {
      "anonymous": false,
      "inputs": [
        {
          "indexed": true,
          "internalType": "address",
          "name": "previousOwner",
          "type": "address"
        },
        {
          "indexed": true,
          "internalType": "address",
          "name": "newOwner",
          "type": "address"
        }
      ],
      "name": "OwnershipTransferred",
      "type": "event"
    },
    {
      "inputs": [],
      "name": "owner",
      "outputs": [
        {
          "internalType": "address",
          "name": "",
          "type": "address"
        }
      ],
      "stateMutability": "view",
      "type": "function"
    },
    {
      "inputs": [],
      "name": "renounceOwnership",
      "outputs": [],
      "stateMutability": "nonpayable",
      "type": "function"
    },
    {
      "inputs": [
        {
          "internalType": "address",
          "name": "newOwner",
          "type": "address"
        }
      ],
      "name": "transferOwnership",
      "outputs": [],
      "stateMutability": "nonpayable",
      "type": "function"
    },
    {
      "inputs": [
        {
          "internalType": "address payable",
          "name": "to",
          "type": "address"
        },
        {
          "internalType": "uint256",
          "name": "amount",
          "type": "uint256"
        }
      ],
      "name": "withdraw",
      "outputs": [],
      "stateMutability": "nonpayable",
      "type": "function"
    },
    {
      "stateMutability": "payable",
      "type": "receive"
    }
  ],
  "bytecode": "0x608060405234801561001057600080fd5b5061002d61002261003260201b60201c565b61003a60201b60201c565b6100fe565b600033905090565b60008060009054906101000a900473ffffffffffffffffffffffffffffffffffffffff169050816000806101000a81548173ffffffffffffffffffffffffffffffffffffffff021916908373ffffffffffffffffffffffffffffffffffffffff1602179055508173ffffffffffffffffffffffffffffffffffffffff168173ffffffffffffffffffffffffffffffffffffffff167f8be0079c531659141344cd1fd0a4f28419497f9722a3daafe3b4186f6b6457e060405160405180910390a35050565b61062d8061010d6000396000f3fe6080604052600436106100435760003560e01c8063715018a61461004f5780638da5cb5b14610066578063f2fde38b14610091578063f3fef3a3146100ba5761004a565b3661004a57005b600080fd5b34801561005b57600080fd5b506100646100e3565b005b34801561007257600080fd5b5061007b6100f7565b60405161008891906103bb565b60405180910390f35b34801561009d57600080fd5b506100b860048036038101906100b39190610407565b610120565b005b3480156100c657600080fd5b506100e160048036038101906100dc91906104a8565b6101a3565b005b6100eb610230565b6100f560006102ae565b565b60008060009054906101000a900473ffffffffffffffffffffffffffffffffffffffff16905090565b610128610230565b600073ffffffffffffffffffffffffffffffffffffffff168173ffffffffffffffffffffffffffffffffffffffff1603610197576040517f08c379a000000000000000000000000000000000000000000000000000000000815260040161018e9061056b565b60405180910390fd5b6101a0816102ae565b50565b6101ab610230565b478111156101e5576040517f2211d12b00000000000000000000000000000000000000000000000000000000815260040160405180910390fd5b8173ffffffffffffffffffffffffffffffffffffffff166108fc829081150290604051600060405180830381858888f1935050505015801561022b573d6000803e3d6000fd5b505050565b610238610372565b73ffffffffffffffffffffffffffffffffffffffff166102566100f7565b73ffffffffffffffffffffffffffffffffffffffff16146102ac576040517f08c379a00000000000000000000000000000000000000000000000000000000081526004016102a3906105d7565b60405180910390fd5b565b60008060009054906101000a900473ffffffffffffffffffffffffffffffffffffffff169050816000806101000a81548173ffffffffffffffffffffffffffffffffffffffff021916908373ffffffffffffffffffffffffffffffffffffffff1602179055508173ffffffffffffffffffffffffffffffffffffffff168173ffffffffffffffffffffffffffffffffffffffff167f8be0079c531659141344cd1fd0a4f28419497f9722a3daafe3b4186f6b6457e060405160405180910390a35050565b600033905090565b600073ffffffffffffffffffffffffffffffffffffffff82169050919050565b60006103a58261037a565b9050919050565b6103b58161039a565b82525050565b60006020820190506103d060008301846103ac565b92915050565b600080fd5b6103e48161039a565b81146103ef57600080fd5b50565b600081359050610401816103db565b92915050565b60006020828403121561041d5761041c6103d6565b5b600061042b848285016103f2565b91505092915050565b600061043f8261037a565b9050919050565b61044f81610434565b811461045a57600080fd5b50565b60008135905061046c81610446565b92915050565b6000819050919050565b61048581610472565b811461049057600080fd5b50565b6000813590506104a28161047c565b92915050565b600080604083850312156104bf576104be6103d6565b5b60006104cd8582860161045d565b92505060206104de85828601610493565b9150509250929050565b600082825260208201905092915050565b7f4f776e61626c653a206e6577206f776e657220697320746865207a65726f206160008201527f6464726573730000000000000000000000000000000000000000000000000000602082015250565b60006105556026836104e8565b9150610560826104f9565b604082019050919050565b6000602082019050818103600083015261058481610548565b9050919050565b7f4f776e61626c653a2063616c6c6572206973206e6f7420746865206f776e6572600082015250565b60006105c16020836104e8565b91506105cc8261058b565b602082019050919050565b600060208201905081810360008301526105f0816105b4565b905091905056fea264697066735822122027a5de68a68f90a1507f5c33b4d92513b3ba755af0ee653b4fbfd79d7165ce5664736f6c63430008130033",
  "linkReferences": {},
  "deployedLinkReferences": {}
}