{
  "_format": "hh-sol-artifact-1",
  "contractName": "Notarize",
  "sourceName": "contracts/Notarize.sol",
  "abi": [
    {
      "inputs": [],
      "stateMutability": "nonpayable",
      "type": "constructor"
    },
    {
      "inputs": [],
      "name": "docAlreadyRegistered",
      "type": "error"
    },
    {
      "inputs": [],
      "name": "indexNotFound",
      "type": "error"
    },
    {
      "anonymous": false,
      "inputs": [
        {
          "indexed": true,
          "internalType": "uint256",
          "name": "docCounter",
          "type": "uint256"
        },
        {
          "indexed": false,
          "internalType": "string",
          "name": "docUrl",
          "type": "string"
        },
        {
          "indexed": false,
          "internalType": "bytes32",
          "name": "dochash",
          "type": "bytes32"
        }
      ],
      "name": "DocHashAdded",
      "type": "event"
    },
    {
      "anonymous": false,
      "inputs": [
        {
          "indexed": true,
          "internalType": "bytes32",
          "name": "role",
          "type": "bytes32"
        },
        {
          "indexed": true,
          "internalType": "bytes32",
          "name": "previousAdminRole",
          "type": "bytes32"
        },
        {
          "indexed": true,
          "internalType": "bytes32",
          "name": "newAdminRole",
          "type": "bytes32"
        }
      ],
      "name": "RoleAdminChanged",
      "type": "event"
    },
    {
      "anonymous": false,
      "inputs": [
        {
          "indexed": true,
          "internalType": "bytes32",
          "name": "role",
          "type": "bytes32"
        },
        {
          "indexed": true,
          "internalType": "address",
          "name": "account",
          "type": "address"
        },
        {
          "indexed": true,
          "internalType": "address",
          "name": "sender",
          "type": "address"
        }
      ],
      "name": "RoleGranted",
      "type": "event"
    },
    {
      "anonymous": false,
      "inputs": [
        {
          "indexed": true,
          "internalType": "bytes32",
          "name": "role",
          "type": "bytes32"
        },
        {
          "indexed": true,
          "internalType": "address",
          "name": "account",
          "type": "address"
        },
        {
          "indexed": true,
          "internalType": "address",
          "name": "sender",
          "type": "address"
        }
      ],
      "name": "RoleRevoked",
      "type": "event"
    },
    {
      "inputs": [],
      "name": "DEFAULT_ADMIN_ROLE",
      "outputs": [
        {
          "internalType": "bytes32",
          "name": "",
          "type": "bytes32"
        }
      ],
      "stateMutability": "view",
      "type": "function"
    },
    {
      "inputs": [],
      "name": "HASH_WRITER",
      "outputs": [
        {
          "internalType": "bytes32",
          "name": "",
          "type": "bytes32"
        }
      ],
      "stateMutability": "view",
      "type": "function"
    },
    {
      "inputs": [
        {
          "internalType": "string",
          "name": "_url",
          "type": "string"
        },
        {
          "internalType": "bytes32",
          "name": "_hash",
          "type": "bytes32"
        }
      ],
      "name": "addNewDocument",
      "outputs": [],
      "stateMutability": "nonpayable",
      "type": "function"
    },
    {
      "inputs": [
        {
          "internalType": "uint256",
          "name": "_num",
          "type": "uint256"
        }
      ],
      "name": "getDocInfo",
      "outputs": [
        {
          "internalType": "string",
          "name": "",
          "type": "string"
        },
        {
          "internalType": "bytes32",
          "name": "",
          "type": "bytes32"
        }
      ],
      "stateMutability": "view",
      "type": "function"
    },
    {
      "inputs": [],
      "name": "getDocsCount",
      "outputs": [
        {
          "internalType": "uint256",
          "name": "",
          "type": "uint256"
        }
      ],
      "stateMutability": "view",
      "type": "function"
    },
    {
      "inputs": [
        {
          "internalType": "bytes32",
          "name": "_hash",
          "type": "bytes32"
        }
      ],
      "name": "getRegisteredHash",
      "outputs": [
        {
          "internalType": "bool",
          "name": "",
          "type": "bool"
        }
      ],
      "stateMutability": "view",
      "type": "function"
    },
    {
      "inputs": [
        {
          "internalType": "bytes32",
          "name": "role",
          "type": "bytes32"
        }
      ],
      "name": "getRoleAdmin",
      "outputs": [
        {
          "internalType": "bytes32",
          "name": "",
          "type": "bytes32"
        }
      ],
      "stateMutability": "view",
      "type": "function"
    },
    {
      "inputs": [
        {
          "internalType": "bytes32",
          "name": "role",
          "type": "bytes32"
        },
        {
          "internalType": "uint256",
          "name": "index",
          "type": "uint256"
        }
      ],
      "name": "getRoleMember",
      "outputs": [
        {
          "internalType": "address",
          "name": "",
          "type": "address"
        }
      ],
      "stateMutability": "view",
      "type": "function"
    },
    {
      "inputs": [
        {
          "internalType": "bytes32",
          "name": "role",
          "type": "bytes32"
        }
      ],
      "name": "getRoleMemberCount",
      "outputs": [
        {
          "internalType": "uint256",
          "name": "",
          "type": "uint256"
        }
      ],
      "stateMutability": "view",
      "type": "function"
    },
    {
      "inputs": [
        {
          "internalType": "bytes32",
          "name": "role",
          "type": "bytes32"
        },
        {
          "internalType": "address",
          "name": "account",
          "type": "address"
        }
      ],
      "name": "grantRole",
      "outputs": [],
      "stateMutability": "nonpayable",
      "type": "function"
    },
    {
      "inputs": [
        {
          "internalType": "bytes32",
          "name": "role",
          "type": "bytes32"
        },
        {
          "internalType": "address",
          "name": "account",
          "type": "address"
        }
      ],
      "name": "hasRole",
      "outputs": [
        {
          "internalType": "bool",
          "name": "",
          "type": "bool"
        }
      ],
      "stateMutability": "view",
      "type": "function"
    },
    {
      "inputs": [
        {
          "internalType": "address",
          "name": "_hashWriter",
          "type": "address"
        }
      ],
      "name": "removeHashWriterRole",
      "outputs": [],
      "stateMutability": "nonpayable",
      "type": "function"
    },
    {
      "inputs": [
        {
          "internalType": "bytes32",
          "name": "role",
          "type": "bytes32"
        },
        {
          "internalType": "address",
          "name": "account",
          "type": "address"
        }
      ],
      "name": "renounceRole",
      "outputs": [],
      "stateMutability": "nonpayable",
      "type": "function"
    },
    {
      "inputs": [
        {
          "internalType": "bytes32",
          "name": "role",
          "type": "bytes32"
        },
        {
          "internalType": "address",
          "name": "account",
          "type": "address"
        }
      ],
      "name": "revokeRole",
      "outputs": [],
      "stateMutability": "nonpayable",
      "type": "function"
    },
    {
      "inputs": [
        {
          "internalType": "address",
          "name": "_hashWriter",
          "type": "address"
        }
      ],
      "name": "setHashWriterRole",
      "outputs": [],
      "stateMutability": "nonpayable",
      "type": "function"
    },
    {
      "inputs": [
        {
          "internalType": "bytes4",
          "name": "interfaceId",
          "type": "bytes4"
        }
      ],
      "name": "supportsInterface",
      "outputs": [
        {
          "internalType": "bool",
          "name": "",
          "type": "bool"
        }
      ],
      "stateMutability": "view",
      "type": "function"
    }
  ],
  "bytecode": "0x60806040523480156200001157600080fd5b50620000366000801b6200002a6200003c60201b60201c565b6200004460201b60201c565b620002c8565b600033905090565b6200005682826200005a60201b60201c565b5050565b6200006c82826200009860201b60201c565b6200009381600160008581526020019081526020016000206200018960201b90919060201c565b505050565b620000aa8282620001c160201b60201c565b6200018557600160008084815260200190815260200160002060000160008373ffffffffffffffffffffffffffffffffffffffff1673ffffffffffffffffffffffffffffffffffffffff16815260200190815260200160002060006101000a81548160ff0219169083151502179055506200012a6200003c60201b60201c565b73ffffffffffffffffffffffffffffffffffffffff168173ffffffffffffffffffffffffffffffffffffffff16837f2f8788117e7eff1d82e926ec794901d17c78024a50270940304540a733656f0d60405160405180910390a45b5050565b6000620001b9836000018373ffffffffffffffffffffffffffffffffffffffff1660001b6200022b60201b60201c565b905092915050565b600080600084815260200190815260200160002060000160008373ffffffffffffffffffffffffffffffffffffffff1673ffffffffffffffffffffffffffffffffffffffff16815260200190815260200160002060009054906101000a900460ff16905092915050565b60006200023f8383620002a560201b60201c565b6200029a5782600001829080600181540180825580915050600190039060005260206000200160009091909190915055826000018054905083600101600084815260200190815260200160002081905550600190506200029f565b600090505b92915050565b600080836001016000848152602001908152602001600020541415905092915050565b611d6780620002d86000396000f3fe608060405234801561001057600080fd5b50600436106101005760003560e01c806391d1485411610097578063b46beb4f11610066578063b46beb4f146102d4578063ca15c873146102f0578063d547741f14610320578063efcd473c1461033c57610100565b806391d148541461024c5780639e8cb6bd1461027c578063a217fddf1461029a578063abb0688f146102b857610100565b806334efe036116100d357806334efe0361461019f57806336568abe146101cf5780636138fede146101eb5780639010d07c1461021c57610100565b806301ffc9a7146101055780632220de2114610135578063248a9ca3146101535780632f2ff15d14610183575b600080fd5b61011f600480360381019061011a91906111c2565b610358565b60405161012c919061120a565b60405180910390f35b61013d6103d2565b60405161014a919061123e565b60405180910390f35b61016d60048036038101906101689190611285565b6103f6565b60405161017a919061123e565b60405180910390f35b61019d60048036038101906101989190611310565b610415565b005b6101b960048036038101906101b49190611285565b610436565b6040516101c6919061120a565b60405180910390f35b6101e960048036038101906101e49190611310565b610460565b005b61020560048036038101906102009190611386565b6104e3565b604051610213929190611443565b60405180910390f35b61023660048036038101906102319190611473565b6105ec565b60405161024391906114c2565b60405180910390f35b61026660048036038101906102619190611310565b61061b565b604051610273919061120a565b60405180910390f35b610284610685565b60405161029191906114ec565b60405180910390f35b6102a2610696565b6040516102af919061123e565b60405180910390f35b6102d260048036038101906102cd919061163c565b61069d565b005b6102ee60048036038101906102e99190611698565b6107ee565b005b61030a60048036038101906103059190611285565b610829565b60405161031791906114ec565b60405180910390f35b61033a60048036038101906103359190611310565b61084d565b005b61035660048036038101906103519190611698565b61086e565b005b60007f5a05180f000000000000000000000000000000000000000000000000000000007bffffffffffffffffffffffffffffffffffffffffffffffffffffffff1916827bffffffffffffffffffffffffffffffffffffffffffffffffffffffff191614806103cb57506103ca826108a9565b5b9050919050565b7f9bd7b39e404ec8163ddb5278c0044198ca50a2bf864985cbc93f934a5afed5d681565b6000806000838152602001908152602001600020600101549050919050565b61041e826103f6565b61042781610923565b6104318383610937565b505050565b60006004600083815260200190815260200160002060009054906101000a900460ff169050919050565b61046861096b565b73ffffffffffffffffffffffffffffffffffffffff168173ffffffffffffffffffffffffffffffffffffffff16146104d5576040517f08c379a00000000000000000000000000000000000000000000000000000000081526004016104cc90611737565b60405180910390fd5b6104df8282610973565b5050565b606060006104f160026109a7565b83111561052a576040517f22f7b18c00000000000000000000000000000000000000000000000000000000815260040160405180910390fd5b60036000848152602001908152602001600020600001600360008581526020019081526020016000206001015481805461056390611786565b80601f016020809104026020016040519081016040528092919081815260200182805461058f90611786565b80156105dc5780601f106105b1576101008083540402835291602001916105dc565b820191906000526020600020905b8154815290600101906020018083116105bf57829003601f168201915b5050505050915091509150915091565b600061061382600160008681526020019081526020016000206109b590919063ffffffff16565b905092915050565b600080600084815260200190815260200160002060000160008373ffffffffffffffffffffffffffffffffffffffff1673ffffffffffffffffffffffffffffffffffffffff16815260200190815260200160002060009054906101000a900460ff16905092915050565b600061069160026109a7565b905090565b6000801b81565b7f9bd7b39e404ec8163ddb5278c0044198ca50a2bf864985cbc93f934a5afed5d66106c781610923565b6004600083815260200190815260200160002060009054906101000a900460ff161561071f576040517f9e2c202000000000000000000000000000000000000000000000000000000000815260040160405180910390fd5b600061072b60026109a7565b905060405180604001604052808581526020018481525060036000838152602001908152602001600020600082015181600001908161076a9190611963565b506020820151816001015590505060016004600085815260200190815260200160002060006101000a81548160ff0219169083151502179055506107ae60026109cf565b807f3652677d7cefd12c889b15a7ced31cc0e0d120417a9febcb93eddf8ce7b43f9885856040516107e0929190611443565b60405180910390a250505050565b6000801b6107fb81610923565b6108257f9bd7b39e404ec8163ddb5278c0044198ca50a2bf864985cbc93f934a5afed5d683610415565b5050565b6000610846600160008481526020019081526020016000206109e5565b9050919050565b610856826103f6565b61085f81610923565b6108698383610973565b505050565b6000801b61087b81610923565b6108a57f9bd7b39e404ec8163ddb5278c0044198ca50a2bf864985cbc93f934a5afed5d68361084d565b5050565b60007f7965db0b000000000000000000000000000000000000000000000000000000007bffffffffffffffffffffffffffffffffffffffffffffffffffffffff1916827bffffffffffffffffffffffffffffffffffffffffffffffffffffffff1916148061091c575061091b826109fa565b5b9050919050565b6109348161092f61096b565b610a64565b50565b6109418282610ae9565b6109668160016000858152602001908152602001600020610bc990919063ffffffff16565b505050565b600033905090565b61097d8282610bf9565b6109a28160016000858152602001908152602001600020610cda90919063ffffffff16565b505050565b600081600001549050919050565b60006109c48360000183610d0a565b60001c905092915050565b6001816000016000828254019250508190555050565b60006109f382600001610d35565b9050919050565b60007f01ffc9a7000000000000000000000000000000000000000000000000000000007bffffffffffffffffffffffffffffffffffffffffffffffffffffffff1916827bffffffffffffffffffffffffffffffffffffffffffffffffffffffff1916149050919050565b610a6e828261061b565b610ae557610a7b81610d46565b610a898360001c6020610d73565b604051602001610a9a929190611b09565b6040516020818303038152906040526040517f08c379a0000000000000000000000000000000000000000000000000000000008152600401610adc9190611b43565b60405180910390fd5b5050565b610af3828261061b565b610bc557600160008084815260200190815260200160002060000160008373ffffffffffffffffffffffffffffffffffffffff1673ffffffffffffffffffffffffffffffffffffffff16815260200190815260200160002060006101000a81548160ff021916908315150217905550610b6a61096b565b73ffffffffffffffffffffffffffffffffffffffff168173ffffffffffffffffffffffffffffffffffffffff16837f2f8788117e7eff1d82e926ec794901d17c78024a50270940304540a733656f0d60405160405180910390a45b5050565b6000610bf1836000018373ffffffffffffffffffffffffffffffffffffffff1660001b610faf565b905092915050565b610c03828261061b565b15610cd657600080600084815260200190815260200160002060000160008373ffffffffffffffffffffffffffffffffffffffff1673ffffffffffffffffffffffffffffffffffffffff16815260200190815260200160002060006101000a81548160ff021916908315150217905550610c7b61096b565b73ffffffffffffffffffffffffffffffffffffffff168173ffffffffffffffffffffffffffffffffffffffff16837ff6391f5c32d9c69d2a47ea670b442974b53935d1edc7fd64eb21e047a839171b60405160405180910390a45b5050565b6000610d02836000018373ffffffffffffffffffffffffffffffffffffffff1660001b61101f565b905092915050565b6000826000018281548110610d2257610d21611b65565b5b9060005260206000200154905092915050565b600081600001805490509050919050565b6060610d6c8273ffffffffffffffffffffffffffffffffffffffff16601460ff16610d73565b9050919050565b606060006002836002610d869190611bc3565b610d909190611c05565b67ffffffffffffffff811115610da957610da8611511565b5b6040519080825280601f01601f191660200182016040528015610ddb5781602001600182028036833780820191505090505b5090507f300000000000000000000000000000000000000000000000000000000000000081600081518110610e1357610e12611b65565b5b60200101907effffffffffffffffffffffffffffffffffffffffffffffffffffffffffffff1916908160001a9053507f780000000000000000000000000000000000000000000000000000000000000081600181518110610e7757610e76611b65565b5b60200101907effffffffffffffffffffffffffffffffffffffffffffffffffffffffffffff1916908160001a90535060006001846002610eb79190611bc3565b610ec19190611c05565b90505b6001811115610f61577f3031323334353637383961626364656600000000000000000000000000000000600f861660108110610f0357610f02611b65565b5b1a60f81b828281518110610f1a57610f19611b65565b5b60200101907effffffffffffffffffffffffffffffffffffffffffffffffffffffffffffff1916908160001a905350600485901c945080610f5a90611c39565b9050610ec4565b5060008414610fa5576040517f08c379a0000000000000000000000000000000000000000000000000000000008152600401610f9c90611cae565b60405180910390fd5b8091505092915050565b6000610fbb8383611133565b611014578260000182908060018154018082558091505060019003906000526020600020016000909190919091505582600001805490508360010160008481526020019081526020016000208190555060019050611019565b600090505b92915050565b600080836001016000848152602001908152602001600020549050600081146111275760006001826110519190611cce565b90506000600186600001805490506110699190611cce565b90508181146110d857600086600001828154811061108a57611089611b65565b5b90600052602060002001549050808760000184815481106110ae576110ad611b65565b5b90600052602060002001819055508387600101600083815260200190815260200160002081905550505b856000018054806110ec576110eb611d02565b5b60019003818190600052602060002001600090559055856001016000868152602001908152602001600020600090556001935050505061112d565b60009150505b92915050565b600080836001016000848152602001908152602001600020541415905092915050565b6000604051905090565b600080fd5b600080fd5b60007fffffffff0000000000000000000000000000000000000000000000000000000082169050919050565b61119f8161116a565b81146111aa57600080fd5b50565b6000813590506111bc81611196565b92915050565b6000602082840312156111d8576111d7611160565b5b60006111e6848285016111ad565b91505092915050565b60008115159050919050565b611204816111ef565b82525050565b600060208201905061121f60008301846111fb565b92915050565b6000819050919050565b61123881611225565b82525050565b6000602082019050611253600083018461122f565b92915050565b61126281611225565b811461126d57600080fd5b50565b60008135905061127f81611259565b92915050565b60006020828403121561129b5761129a611160565b5b60006112a984828501611270565b91505092915050565b600073ffffffffffffffffffffffffffffffffffffffff82169050919050565b60006112dd826112b2565b9050919050565b6112ed816112d2565b81146112f857600080fd5b50565b60008135905061130a816112e4565b92915050565b6000806040838503121561132757611326611160565b5b600061133585828601611270565b9250506020611346858286016112fb565b9150509250929050565b6000819050919050565b61136381611350565b811461136e57600080fd5b50565b6000813590506113808161135a565b92915050565b60006020828403121561139c5761139b611160565b5b60006113aa84828501611371565b91505092915050565b600081519050919050565b600082825260208201905092915050565b60005b838110156113ed5780820151818401526020810190506113d2565b60008484015250505050565b6000601f19601f8301169050919050565b6000611415826113b3565b61141f81856113be565b935061142f8185602086016113cf565b611438816113f9565b840191505092915050565b6000604082019050818103600083015261145d818561140a565b905061146c602083018461122f565b9392505050565b6000806040838503121561148a57611489611160565b5b600061149885828601611270565b92505060206114a985828601611371565b9150509250929050565b6114bc816112d2565b82525050565b60006020820190506114d760008301846114b3565b92915050565b6114e681611350565b82525050565b600060208201905061150160008301846114dd565b92915050565b600080fd5b600080fd5b7f4e487b7100000000000000000000000000000000000000000000000000000000600052604160045260246000fd5b611549826113f9565b810181811067ffffffffffffffff8211171561156857611567611511565b5b80604052505050565b600061157b611156565b90506115878282611540565b919050565b600067ffffffffffffffff8211156115a7576115a6611511565b5b6115b0826113f9565b9050602081019050919050565b82818337600083830152505050565b60006115df6115da8461158c565b611571565b9050828152602081018484840111156115fb576115fa61150c565b5b6116068482856115bd565b509392505050565b600082601f83011261162357611622611507565b5b81356116338482602086016115cc565b91505092915050565b6000806040838503121561165357611652611160565b5b600083013567ffffffffffffffff81111561167157611670611165565b5b61167d8582860161160e565b925050602061168e85828601611270565b9150509250929050565b6000602082840312156116ae576116ad611160565b5b60006116bc848285016112fb565b91505092915050565b7f416363657373436f6e74726f6c3a2063616e206f6e6c792072656e6f756e636560008201527f20726f6c657320666f722073656c660000000000000000000000000000000000602082015250565b6000611721602f836113be565b915061172c826116c5565b604082019050919050565b6000602082019050818103600083015261175081611714565b9050919050565b7f4e487b7100000000000000000000000000000000000000000000000000000000600052602260045260246000fd5b6000600282049050600182168061179e57607f821691505b6020821081036117b1576117b0611757565b5b50919050565b60008190508160005260206000209050919050565b60006020601f8301049050919050565b600082821b905092915050565b6000600883026118197fffffffffffffffffffffffffffffffffffffffffffffffffffffffffffffffff826117dc565b61182386836117dc565b95508019841693508086168417925050509392505050565b6000819050919050565b600061186061185b61185684611350565b61183b565b611350565b9050919050565b6000819050919050565b61187a83611845565b61188e61188682611867565b8484546117e9565b825550505050565b600090565b6118a3611896565b6118ae818484611871565b505050565b5b818110156118d2576118c760008261189b565b6001810190506118b4565b5050565b601f821115611917576118e8816117b7565b6118f1846117cc565b81016020851015611900578190505b61191461190c856117cc565b8301826118b3565b50505b505050565b600082821c905092915050565b600061193a6000198460080261191c565b1980831691505092915050565b60006119538383611929565b9150826002028217905092915050565b61196c826113b3565b67ffffffffffffffff81111561198557611984611511565b5b61198f8254611786565b61199a8282856118d6565b600060209050601f8311600181146119cd57600084156119bb578287015190505b6119c58582611947565b865550611a2d565b601f1984166119db866117b7565b60005b82811015611a03578489015182556001820191506020850194506020810190506119de565b86831015611a205784890151611a1c601f891682611929565b8355505b6001600288020188555050505b505050505050565b600081905092915050565b7f416363657373436f6e74726f6c3a206163636f756e7420000000000000000000600082015250565b6000611a76601783611a35565b9150611a8182611a40565b601782019050919050565b6000611a97826113b3565b611aa18185611a35565b9350611ab18185602086016113cf565b80840191505092915050565b7f206973206d697373696e6720726f6c6520000000000000000000000000000000600082015250565b6000611af3601183611a35565b9150611afe82611abd565b601182019050919050565b6000611b1482611a69565b9150611b208285611a8c565b9150611b2b82611ae6565b9150611b378284611a8c565b91508190509392505050565b60006020820190508181036000830152611b5d818461140a565b905092915050565b7f4e487b7100000000000000000000000000000000000000000000000000000000600052603260045260246000fd5b7f4e487b7100000000000000000000000000000000000000000000000000000000600052601160045260246000fd5b6000611bce82611350565b9150611bd983611350565b9250828202611be781611350565b91508282048414831517611bfe57611bfd611b94565b5b5092915050565b6000611c1082611350565b9150611c1b83611350565b9250828201905080821115611c3357611c32611b94565b5b92915050565b6000611c4482611350565b915060008203611c5757611c56611b94565b5b600182039050919050565b7f537472696e67733a20686578206c656e67746820696e73756666696369656e74600082015250565b6000611c986020836113be565b9150611ca382611c62565b602082019050919050565b60006020820190508181036000830152611cc781611c8b565b9050919050565b6000611cd982611350565b9150611ce483611350565b9250828203905081811115611cfc57611cfb611b94565b5b92915050565b7f4e487b7100000000000000000000000000000000000000000000000000000000600052603160045260246000fdfea2646970667358221220bb5a88d03b87fef7ff04e24cf544025cc57fef33a4bec420bba6eb164e97fc6364736f6c63430008130033",
  "linkReferences": {},
  "deployedLinkReferences": {}
}