{
  "_format": "hh-sol-artifact-1",
  "contractName": "AnalyticalCertificateNFT",
  "sourceName": "contracts/AnalyticalCertificateNFT.sol",
  "abi": [
    {
      "inputs": [],
      "stateMutability": "nonpayable",
      "type": "constructor"
    },
    {
      "anonymous": false,
      "inputs": [
        {
          "indexed": true,
          "internalType": "uint256",
          "name": "tokenId",
          "type": "uint256"
        }
      ],
      "name": "AnalysisAdded",
      "type": "event"
    },
    {
      "anonymous": false,
      "inputs": [
        {
          "indexed": true,
          "internalType": "address",
          "name": "account",
          "type": "address"
        },
        {
          "indexed": true,
          "internalType": "address",
          "name": "operator",
          "type": "address"
        },
        {
          "indexed": false,
          "internalType": "bool",
          "name": "approved",
          "type": "bool"
        }
      ],
      "name": "ApprovalForAll",
      "type": "event"
    },
    {
      "anonymous": false,
      "inputs": [
        {
          "indexed": true,
          "internalType": "uint256",
          "name": "tokenId",
          "type": "uint256"
        },
        {
          "indexed": false,
          "internalType": "string",
          "name": "productHash",
          "type": "string"
        }
      ],
      "name": "CertificateAdded",
      "type": "event"
    },
    {
      "anonymous": false,
      "inputs": [
        {
          "indexed": true,
          "internalType": "bytes32",
          "name": "role",
          "type": "bytes32"
        },
        {
          "indexed": true,
          "internalType": "bytes32",
          "name": "previousAdminRole",
          "type": "bytes32"
        },
        {
          "indexed": true,
          "internalType": "bytes32",
          "name": "newAdminRole",
          "type": "bytes32"
        }
      ],
      "name": "RoleAdminChanged",
      "type": "event"
    },
    {
      "anonymous": false,
      "inputs": [
        {
          "indexed": true,
          "internalType": "bytes32",
          "name": "role",
          "type": "bytes32"
        },
        {
          "indexed": true,
          "internalType": "address",
          "name": "account",
          "type": "address"
        },
        {
          "indexed": true,
          "internalType": "address",
          "name": "sender",
          "type": "address"
        }
      ],
      "name": "RoleGranted",
      "type": "event"
    },
    {
      "anonymous": false,
      "inputs": [
        {
          "indexed": true,
          "internalType": "bytes32",
          "name": "role",
          "type": "bytes32"
        },
        {
          "indexed": true,
          "internalType": "address",
          "name": "account",
          "type": "address"
        },
        {
          "indexed": true,
          "internalType": "address",
          "name": "sender",
          "type": "address"
        }
      ],
      "name": "RoleRevoked",
      "type": "event"
    },
    {
      "anonymous": false,
      "inputs": [
        {
          "indexed": true,
          "internalType": "address",
          "name": "operator",
          "type": "address"
        },
        {
          "indexed": true,
          "internalType": "address",
          "name": "from",
          "type": "address"
        },
        {
          "indexed": true,
          "internalType": "address",
          "name": "to",
          "type": "address"
        },
        {
          "indexed": false,
          "internalType": "uint256[]",
          "name": "ids",
          "type": "uint256[]"
        },
        {
          "indexed": false,
          "internalType": "uint256[]",
          "name": "values",
          "type": "uint256[]"
        }
      ],
      "name": "TransferBatch",
      "type": "event"
    },
    {
      "anonymous": false,
      "inputs": [
        {
          "indexed": true,
          "internalType": "address",
          "name": "operator",
          "type": "address"
        },
        {
          "indexed": true,
          "internalType": "address",
          "name": "from",
          "type": "address"
        },
        {
          "indexed": true,
          "internalType": "address",
          "name": "to",
          "type": "address"
        },
        {
          "indexed": false,
          "internalType": "uint256",
          "name": "id",
          "type": "uint256"
        },
        {
          "indexed": false,
          "internalType": "uint256",
          "name": "value",
          "type": "uint256"
        }
      ],
      "name": "TransferSingle",
      "type": "event"
    },
    {
      "anonymous": false,
      "inputs": [
        {
          "indexed": false,
          "internalType": "string",
          "name": "value",
          "type": "string"
        },
        {
          "indexed": true,
          "internalType": "uint256",
          "name": "id",
          "type": "uint256"
        }
      ],
      "name": "URI",
      "type": "event"
    },
    {
      "inputs": [],
      "name": "AUTHORIZED_LAB_ROLE",
      "outputs": [
        {
          "internalType": "bytes32",
          "name": "",
          "type": "bytes32"
        }
      ],
      "stateMutability": "view",
      "type": "function"
    },
    {
      "inputs": [],
      "name": "DEFAULT_ADMIN_ROLE",
      "outputs": [
        {
          "internalType": "bytes32",
          "name": "",
          "type": "bytes32"
        }
      ],
      "stateMutability": "view",
      "type": "function"
    },
    {
      "inputs": [
        {
          "internalType": "uint256",
          "name": "_tokenId",
          "type": "uint256"
        }
      ],
      "name": "addAnalysis",
      "outputs": [],
      "stateMutability": "nonpayable",
      "type": "function"
    },
    {
      "inputs": [
        {
          "internalType": "address",
          "name": "_authorizedLab",
          "type": "address"
        }
      ],
      "name": "addAuthorizedLab",
      "outputs": [],
      "stateMutability": "nonpayable",
      "type": "function"
    },
    {
      "inputs": [
        {
          "internalType": "string",
          "name": "_productHash",
          "type": "string"
        }
      ],
      "name": "addCertificate",
      "outputs": [],
      "stateMutability": "nonpayable",
      "type": "function"
    },
    {
      "inputs": [
        {
          "internalType": "address",
          "name": "account",
          "type": "address"
        },
        {
          "internalType": "uint256",
          "name": "id",
          "type": "uint256"
        }
      ],
      "name": "balanceOf",
      "outputs": [
        {
          "internalType": "uint256",
          "name": "",
          "type": "uint256"
        }
      ],
      "stateMutability": "view",
      "type": "function"
    },
    {
      "inputs": [
        {
          "internalType": "address[]",
          "name": "accounts",
          "type": "address[]"
        },
        {
          "internalType": "uint256[]",
          "name": "ids",
          "type": "uint256[]"
        }
      ],
      "name": "balanceOfBatch",
      "outputs": [
        {
          "internalType": "uint256[]",
          "name": "",
          "type": "uint256[]"
        }
      ],
      "stateMutability": "view",
      "type": "function"
    },
    {
      "inputs": [
        {
          "internalType": "bytes32",
          "name": "role",
          "type": "bytes32"
        }
      ],
      "name": "getRoleAdmin",
      "outputs": [
        {
          "internalType": "bytes32",
          "name": "",
          "type": "bytes32"
        }
      ],
      "stateMutability": "view",
      "type": "function"
    },
    {
      "inputs": [
        {
          "internalType": "bytes32",
          "name": "role",
          "type": "bytes32"
        },
        {
          "internalType": "uint256",
          "name": "index",
          "type": "uint256"
        }
      ],
      "name": "getRoleMember",
      "outputs": [
        {
          "internalType": "address",
          "name": "",
          "type": "address"
        }
      ],
      "stateMutability": "view",
      "type": "function"
    },
    {
      "inputs": [
        {
          "internalType": "bytes32",
          "name": "role",
          "type": "bytes32"
        }
      ],
      "name": "getRoleMemberCount",
      "outputs": [
        {
          "internalType": "uint256",
          "name": "",
          "type": "uint256"
        }
      ],
      "stateMutability": "view",
      "type": "function"
    },
    {
      "inputs": [
        {
          "internalType": "bytes32",
          "name": "role",
          "type": "bytes32"
        },
        {
          "internalType": "address",
          "name": "account",
          "type": "address"
        }
      ],
      "name": "grantRole",
      "outputs": [],
      "stateMutability": "nonpayable",
      "type": "function"
    },
    {
      "inputs": [
        {
          "internalType": "bytes32",
          "name": "role",
          "type": "bytes32"
        },
        {
          "internalType": "address",
          "name": "account",
          "type": "address"
        }
      ],
      "name": "hasRole",
      "outputs": [
        {
          "internalType": "bool",
          "name": "",
          "type": "bool"
        }
      ],
      "stateMutability": "view",
      "type": "function"
    },
    {
      "inputs": [
        {
          "internalType": "address",
          "name": "account",
          "type": "address"
        },
        {
          "internalType": "address",
          "name": "operator",
          "type": "address"
        }
      ],
      "name": "isApprovedForAll",
      "outputs": [
        {
          "internalType": "bool",
          "name": "",
          "type": "bool"
        }
      ],
      "stateMutability": "view",
      "type": "function"
    },
    {
      "inputs": [
        {
          "internalType": "bytes32",
          "name": "role",
          "type": "bytes32"
        },
        {
          "internalType": "address",
          "name": "account",
          "type": "address"
        }
      ],
      "name": "renounceRole",
      "outputs": [],
      "stateMutability": "nonpayable",
      "type": "function"
    },
    {
      "inputs": [
        {
          "internalType": "bytes32",
          "name": "role",
          "type": "bytes32"
        },
        {
          "internalType": "address",
          "name": "account",
          "type": "address"
        }
      ],
      "name": "revokeRole",
      "outputs": [],
      "stateMutability": "nonpayable",
      "type": "function"
    },
    {
      "inputs": [
        {
          "internalType": "address",
          "name": "from",
          "type": "address"
        },
        {
          "internalType": "address",
          "name": "to",
          "type": "address"
        },
        {
          "internalType": "uint256[]",
          "name": "ids",
          "type": "uint256[]"
        },
        {
          "internalType": "uint256[]",
          "name": "amounts",
          "type": "uint256[]"
        },
        {
          "internalType": "bytes",
          "name": "data",
          "type": "bytes"
        }
      ],
      "name": "safeBatchTransferFrom",
      "outputs": [],
      "stateMutability": "nonpayable",
      "type": "function"
    },
    {
      "inputs": [
        {
          "internalType": "address",
          "name": "from",
          "type": "address"
        },
        {
          "internalType": "address",
          "name": "to",
          "type": "address"
        },
        {
          "internalType": "uint256",
          "name": "id",
          "type": "uint256"
        },
        {
          "internalType": "uint256",
          "name": "amount",
          "type": "uint256"
        },
        {
          "internalType": "bytes",
          "name": "data",
          "type": "bytes"
        }
      ],
      "name": "safeTransferFrom",
      "outputs": [],
      "stateMutability": "nonpayable",
      "type": "function"
    },
    {
      "inputs": [
        {
          "internalType": "address",
          "name": "operator",
          "type": "address"
        },
        {
          "internalType": "bool",
          "name": "approved",
          "type": "bool"
        }
      ],
      "name": "setApprovalForAll",
      "outputs": [],
      "stateMutability": "nonpayable",
      "type": "function"
    },
    {
      "inputs": [
        {
          "internalType": "bytes4",
          "name": "interfaceId",
          "type": "bytes4"
        }
      ],
      "name": "supportsInterface",
      "outputs": [
        {
          "internalType": "bool",
          "name": "",
          "type": "bool"
        }
      ],
      "stateMutability": "view",
      "type": "function"
    },
    {
      "inputs": [
        {
          "internalType": "uint256",
          "name": "",
          "type": "uint256"
        }
      ],
      "name": "uri",
      "outputs": [
        {
          "internalType": "string",
          "name": "",
          "type": "string"
        }
      ],
      "stateMutability": "view",
      "type": "function"
    }
  ],
  "bytecode": "0x60806040523480156200001157600080fd5b506040518060400160405280600381526020017f75726900000000000000000000000000000000000000000000000000000000008152506200005981620000a760201b60201c565b506200006f6000801b33620000bc60201b60201c565b620000a17fb86c2151d7dd199b912da25b2b6a53b7b28ac919c3397658c96a8c10317bb67733620000bc60201b60201c565b620006ab565b8060029081620000b89190620005c4565b5050565b620000ce8282620000d260201b60201c565b5050565b620000e482826200011060201b60201c565b6200010b81600460008581526020019081526020016000206200020260201b90919060201c565b505050565b6200012282826200023a60201b60201c565b620001fe5760016003600084815260200190815260200160002060000160008373ffffffffffffffffffffffffffffffffffffffff1673ffffffffffffffffffffffffffffffffffffffff16815260200190815260200160002060006101000a81548160ff021916908315150217905550620001a3620002a560201b60201c565b73ffffffffffffffffffffffffffffffffffffffff168173ffffffffffffffffffffffffffffffffffffffff16837f2f8788117e7eff1d82e926ec794901d17c78024a50270940304540a733656f0d60405160405180910390a45b5050565b600062000232836000018373ffffffffffffffffffffffffffffffffffffffff1660001b620002ad60201b60201c565b905092915050565b60006003600084815260200190815260200160002060000160008373ffffffffffffffffffffffffffffffffffffffff1673ffffffffffffffffffffffffffffffffffffffff16815260200190815260200160002060009054906101000a900460ff16905092915050565b600033905090565b6000620002c183836200032760201b60201c565b6200031c57826000018290806001815401808255809150506001900390600052602060002001600090919091909150558260000180549050836001016000848152602001908152602001600020819055506001905062000321565b600090505b92915050565b600080836001016000848152602001908152602001600020541415905092915050565b600081519050919050565b7f4e487b7100000000000000000000000000000000000000000000000000000000600052604160045260246000fd5b7f4e487b7100000000000000000000000000000000000000000000000000000000600052602260045260246000fd5b60006002820490506001821680620003cc57607f821691505b602082108103620003e257620003e162000384565b5b50919050565b60008190508160005260206000209050919050565b60006020601f8301049050919050565b600082821b905092915050565b6000600883026200044c7fffffffffffffffffffffffffffffffffffffffffffffffffffffffffffffffff826200040d565b6200045886836200040d565b95508019841693508086168417925050509392505050565b6000819050919050565b6000819050919050565b6000620004a56200049f620004998462000470565b6200047a565b62000470565b9050919050565b6000819050919050565b620004c18362000484565b620004d9620004d082620004ac565b8484546200041a565b825550505050565b600090565b620004f0620004e1565b620004fd818484620004b6565b505050565b5b81811015620005255762000519600082620004e6565b60018101905062000503565b5050565b601f82111562000574576200053e81620003e8565b6200054984620003fd565b8101602085101562000559578190505b620005716200056885620003fd565b83018262000502565b50505b505050565b600082821c905092915050565b6000620005996000198460080262000579565b1980831691505092915050565b6000620005b4838362000586565b9150826002028217905092915050565b620005cf826200034a565b67ffffffffffffffff811115620005eb57620005ea62000355565b5b620005f78254620003b3565b6200060482828562000529565b600060209050601f8311600181146200063c576000841562000627578287015190505b620006338582620005a6565b865550620006a3565b601f1984166200064c86620003e8565b60005b8281101562000676578489015182556001820191506020850194506020810190506200064f565b8683101562000696578489015162000692601f89168262000586565b8355505b6001600288020188555050505b505050505050565b613a1480620006bb6000396000f3fe608060405234801561001057600080fd5b506004361061012b5760003560e01c80639010d07c116100ad578063ca15c87311610071578063ca15c87314610364578063d547741f14610394578063e985e9c5146103b0578063ebd18e0d146103e0578063f242432a146103fc5761012b565b80639010d07c146102ae57806391d14854146102de578063a217fddf1461030e578063a22cb4651461032c578063baadc3aa146103485761012b565b80632eb2c2d6116100f45780632eb2c2d61461020c5780632f2ff15d1461022857806336568abe1461024457806341f77052146102605780634e1273f41461027e5761012b565b8062fdd58e1461013057806301ffc9a7146101605780630a99e4f8146101905780630e89341c146101ac578063248a9ca3146101dc575b600080fd5b61014a60048036038101906101459190612322565b610418565b6040516101579190612371565b60405180910390f35b61017a600480360381019061017591906123e4565b6104e0565b604051610187919061242c565b60405180910390f35b6101aa60048036038101906101a5919061258d565b610502565b005b6101c660048036038101906101c191906125d6565b61059d565b6040516101d39190612682565b60405180910390f35b6101f660048036038101906101f191906126da565b610631565b6040516102039190612716565b60405180910390f35b6102266004803603810190610221919061289a565b610651565b005b610242600480360381019061023d9190612969565b6106f2565b005b61025e60048036038101906102599190612969565b610713565b005b610268610796565b6040516102759190612716565b60405180910390f35b61029860048036038101906102939190612a6c565b6107ba565b6040516102a59190612ba2565b60405180910390f35b6102c860048036038101906102c39190612bc4565b6108d3565b6040516102d59190612c13565b60405180910390f35b6102f860048036038101906102f39190612969565b610902565b604051610305919061242c565b60405180910390f35b61031661096d565b6040516103239190612716565b60405180910390f35b61034660048036038101906103419190612c5a565b610974565b005b610362600480360381019061035d91906125d6565b61098a565b005b61037e600480360381019061037991906126da565b610a01565b60405161038b9190612371565b60405180910390f35b6103ae60048036038101906103a99190612969565b610a25565b005b6103ca60048036038101906103c59190612c9a565b610a46565b6040516103d7919061242c565b60405180910390f35b6103fa60048036038101906103f59190612cda565b610ada565b005b61041660048036038101906104119190612d07565b610b15565b005b60008073ffffffffffffffffffffffffffffffffffffffff168373ffffffffffffffffffffffffffffffffffffffff1603610488576040517f08c379a000000000000000000000000000000000000000000000000000000000815260040161047f90612e10565b60405180910390fd5b60008083815260200190815260200160002060008473ffffffffffffffffffffffffffffffffffffffff1673ffffffffffffffffffffffffffffffffffffffff16815260200190815260200160002054905092915050565b60006104eb82610bb6565b806104fb57506104fa82610c98565b5b9050919050565b7fb86c2151d7dd199b912da25b2b6a53b7b28ac919c3397658c96a8c10317bb67761052c81610d12565b6105366005610d26565b60006105426005610d3c565b90506105603082600160405180602001604052806000815250610d4a565b807fb3f7a51d97edfec0a93ec31952a01e523033a70f92f1cfae631a92c02f5306d0846040516105909190612682565b60405180910390a2505050565b6060600280546105ac90612e5f565b80601f01602080910402602001604051908101604052809291908181526020018280546105d890612e5f565b80156106255780601f106105fa57610100808354040283529160200191610625565b820191906000526020600020905b81548152906001019060200180831161060857829003601f168201915b50505050509050919050565b600060036000838152602001908152602001600020600101549050919050565b610659610efa565b73ffffffffffffffffffffffffffffffffffffffff168573ffffffffffffffffffffffffffffffffffffffff16148061069f575061069e85610699610efa565b610a46565b5b6106de576040517f08c379a00000000000000000000000000000000000000000000000000000000081526004016106d590612f02565b60405180910390fd5b6106eb8585858585610f02565b5050505050565b6106fb82610631565b61070481610d12565b61070e8383611223565b505050565b61071b610efa565b73ffffffffffffffffffffffffffffffffffffffff168173ffffffffffffffffffffffffffffffffffffffff1614610788576040517f08c379a000000000000000000000000000000000000000000000000000000000815260040161077f90612f94565b60405180910390fd5b6107928282611257565b5050565b7fb86c2151d7dd199b912da25b2b6a53b7b28ac919c3397658c96a8c10317bb67781565b60608151835114610800576040517f08c379a00000000000000000000000000000000000000000000000000000000081526004016107f790613026565b60405180910390fd5b6000835167ffffffffffffffff81111561081d5761081c612462565b5b60405190808252806020026020018201604052801561084b5781602001602082028036833780820191505090505b50905060005b84518110156108c8576108988582815181106108705761086f613046565b5b602002602001015185838151811061088b5761088a613046565b5b6020026020010151610418565b8282815181106108ab576108aa613046565b5b602002602001018181525050806108c1906130a4565b9050610851565b508091505092915050565b60006108fa826004600086815260200190815260200160002061128b90919063ffffffff16565b905092915050565b60006003600084815260200190815260200160002060000160008373ffffffffffffffffffffffffffffffffffffffff1673ffffffffffffffffffffffffffffffffffffffff16815260200190815260200160002060009054906101000a900460ff16905092915050565b6000801b81565b61098661097f610efa565b83836112a5565b5050565b7fb86c2151d7dd199b912da25b2b6a53b7b28ac919c3397658c96a8c10317bb6776109b481610d12565b6109d03383600160405180602001604052806000815250610d4a565b817fde118665a900841d7c4d8546bd1635b2b9c9373beef459558719dbccd08a9b3060405160405180910390a25050565b6000610a1e60046000848152602001908152602001600020611411565b9050919050565b610a2e82610631565b610a3781610d12565b610a418383611257565b505050565b6000600160008473ffffffffffffffffffffffffffffffffffffffff1673ffffffffffffffffffffffffffffffffffffffff16815260200190815260200160002060008373ffffffffffffffffffffffffffffffffffffffff1673ffffffffffffffffffffffffffffffffffffffff16815260200190815260200160002060009054906101000a900460ff16905092915050565b6000801b610ae781610d12565b610b117fb86c2151d7dd199b912da25b2b6a53b7b28ac919c3397658c96a8c10317bb677836106f2565b5050565b610b1d610efa565b73ffffffffffffffffffffffffffffffffffffffff168573ffffffffffffffffffffffffffffffffffffffff161480610b635750610b6285610b5d610efa565b610a46565b5b610ba2576040517f08c379a0000000000000000000000000000000000000000000000000000000008152600401610b9990612f02565b60405180910390fd5b610baf8585858585611426565b5050505050565b60007fd9b67a26000000000000000000000000000000000000000000000000000000007bffffffffffffffffffffffffffffffffffffffffffffffffffffffff1916827bffffffffffffffffffffffffffffffffffffffffffffffffffffffff19161480610c8157507f0e89341c000000000000000000000000000000000000000000000000000000007bffffffffffffffffffffffffffffffffffffffffffffffffffffffff1916827bffffffffffffffffffffffffffffffffffffffffffffffffffffffff1916145b80610c915750610c90826116c1565b5b9050919050565b60007f7965db0b000000000000000000000000000000000000000000000000000000007bffffffffffffffffffffffffffffffffffffffffffffffffffffffff1916827bffffffffffffffffffffffffffffffffffffffffffffffffffffffff19161480610d0b5750610d0a82610bb6565b5b9050919050565b610d2381610d1e610efa565b61172b565b50565b6001816000016000828254019250508190555050565b600081600001549050919050565b600073ffffffffffffffffffffffffffffffffffffffff168473ffffffffffffffffffffffffffffffffffffffff1603610db9576040517f08c379a0000000000000000000000000000000000000000000000000000000008152600401610db09061315e565b60405180910390fd5b6000610dc3610efa565b90506000610dd0856117b0565b90506000610ddd856117b0565b9050610dee8360008985858961182a565b8460008088815260200190815260200160002060008973ffffffffffffffffffffffffffffffffffffffff1673ffffffffffffffffffffffffffffffffffffffff1681526020019081526020016000206000828254610e4d919061317e565b925050819055508673ffffffffffffffffffffffffffffffffffffffff16600073ffffffffffffffffffffffffffffffffffffffff168473ffffffffffffffffffffffffffffffffffffffff167fc3d58168c5ae7397731d063d5bbf3d657854427343f4c083240f7aacaa2d0f628989604051610ecb9291906131b2565b60405180910390a4610ee283600089858589611832565b610ef18360008989898961183a565b50505050505050565b600033905090565b8151835114610f46576040517f08c379a0000000000000000000000000000000000000000000000000000000008152600401610f3d9061324d565b60405180910390fd5b600073ffffffffffffffffffffffffffffffffffffffff168473ffffffffffffffffffffffffffffffffffffffff1603610fb5576040517f08c379a0000000000000000000000000000000000000000000000000000000008152600401610fac906132df565b60405180910390fd5b6000610fbf610efa565b9050610fcf81878787878761182a565b60005b8451811015611180576000858281518110610ff057610fef613046565b5b60200260200101519050600085838151811061100f5761100e613046565b5b60200260200101519050600080600084815260200190815260200160002060008b73ffffffffffffffffffffffffffffffffffffffff1673ffffffffffffffffffffffffffffffffffffffff168152602001908152602001600020549050818110156110b0576040517f08c379a00000000000000000000000000000000000000000000000000000000081526004016110a790613371565b60405180910390fd5b81810360008085815260200190815260200160002060008c73ffffffffffffffffffffffffffffffffffffffff1673ffffffffffffffffffffffffffffffffffffffff168152602001908152602001600020819055508160008085815260200190815260200160002060008b73ffffffffffffffffffffffffffffffffffffffff1673ffffffffffffffffffffffffffffffffffffffff1681526020019081526020016000206000828254611165919061317e565b9250508190555050505080611179906130a4565b9050610fd2565b508473ffffffffffffffffffffffffffffffffffffffff168673ffffffffffffffffffffffffffffffffffffffff168273ffffffffffffffffffffffffffffffffffffffff167f4a39dc06d4c0dbc64b70af90fd698a233a518aa5d07e595d983b8c0526c8f7fb87876040516111f7929190613391565b60405180910390a461120d818787878787611832565b61121b818787878787611a11565b505050505050565b61122d8282611be8565b6112528160046000858152602001908152602001600020611cc990919063ffffffff16565b505050565b6112618282611cf9565b6112868160046000858152602001908152602001600020611ddb90919063ffffffff16565b505050565b600061129a8360000183611e0b565b60001c905092915050565b8173ffffffffffffffffffffffffffffffffffffffff168373ffffffffffffffffffffffffffffffffffffffff1603611313576040517f08c379a000000000000000000000000000000000000000000000000000000000815260040161130a9061343a565b60405180910390fd5b80600160008573ffffffffffffffffffffffffffffffffffffffff1673ffffffffffffffffffffffffffffffffffffffff16815260200190815260200160002060008473ffffffffffffffffffffffffffffffffffffffff1673ffffffffffffffffffffffffffffffffffffffff16815260200190815260200160002060006101000a81548160ff0219169083151502179055508173ffffffffffffffffffffffffffffffffffffffff168373ffffffffffffffffffffffffffffffffffffffff167f17307eab39ab6107e8899845ad3d59bd9653f200f220920489ca2b5937696c3183604051611404919061242c565b60405180910390a3505050565b600061141f82600001611e36565b9050919050565b600073ffffffffffffffffffffffffffffffffffffffff168473ffffffffffffffffffffffffffffffffffffffff1603611495576040517f08c379a000000000000000000000000000000000000000000000000000000000815260040161148c906132df565b60405180910390fd5b600061149f610efa565b905060006114ac856117b0565b905060006114b9856117b0565b90506114c983898985858961182a565b600080600088815260200190815260200160002060008a73ffffffffffffffffffffffffffffffffffffffff1673ffffffffffffffffffffffffffffffffffffffff16815260200190815260200160002054905085811015611560576040517f08c379a000000000000000000000000000000000000000000000000000000000815260040161155790613371565b60405180910390fd5b85810360008089815260200190815260200160002060008b73ffffffffffffffffffffffffffffffffffffffff1673ffffffffffffffffffffffffffffffffffffffff168152602001908152602001600020819055508560008089815260200190815260200160002060008a73ffffffffffffffffffffffffffffffffffffffff1673ffffffffffffffffffffffffffffffffffffffff1681526020019081526020016000206000828254611615919061317e565b925050819055508773ffffffffffffffffffffffffffffffffffffffff168973ffffffffffffffffffffffffffffffffffffffff168573ffffffffffffffffffffffffffffffffffffffff167fc3d58168c5ae7397731d063d5bbf3d657854427343f4c083240f7aacaa2d0f628a8a6040516116929291906131b2565b60405180910390a46116a8848a8a86868a611832565b6116b6848a8a8a8a8a61183a565b505050505050505050565b60007f01ffc9a7000000000000000000000000000000000000000000000000000000007bffffffffffffffffffffffffffffffffffffffffffffffffffffffff1916827bffffffffffffffffffffffffffffffffffffffffffffffffffffffff1916149050919050565b6117358282610902565b6117ac5761174281611e47565b6117508360001c6020611e74565b60405160200161176192919061352e565b6040516020818303038152906040526040517f08c379a00000000000000000000000000000000000000000000000000000000081526004016117a39190612682565b60405180910390fd5b5050565b60606000600167ffffffffffffffff8111156117cf576117ce612462565b5b6040519080825280602002602001820160405280156117fd5781602001602082028036833780820191505090505b509050828160008151811061181557611814613046565b5b60200260200101818152505080915050919050565b505050505050565b505050505050565b6118598473ffffffffffffffffffffffffffffffffffffffff166120b0565b15611a09578373ffffffffffffffffffffffffffffffffffffffff1663f23a6e6187878686866040518663ffffffff1660e01b815260040161189f9594939291906135bd565b6020604051808303816000875af19250505080156118db57506040513d601f19601f820116820180604052508101906118d8919061362c565b60015b611980576118e7613666565b806308c379a00361194357506118fb613688565b806119065750611945565b806040517f08c379a000000000000000000000000000000000000000000000000000000000815260040161193a9190612682565b60405180910390fd5b505b6040517f08c379a00000000000000000000000000000000000000000000000000000000081526004016119779061378a565b60405180910390fd5b63f23a6e6160e01b7bffffffffffffffffffffffffffffffffffffffffffffffffffffffff1916817bffffffffffffffffffffffffffffffffffffffffffffffffffffffff191614611a07576040517f08c379a00000000000000000000000000000000000000000000000000000000081526004016119fe9061381c565b60405180910390fd5b505b505050505050565b611a308473ffffffffffffffffffffffffffffffffffffffff166120b0565b15611be0578373ffffffffffffffffffffffffffffffffffffffff1663bc197c8187878686866040518663ffffffff1660e01b8152600401611a7695949392919061383c565b6020604051808303816000875af1925050508015611ab257506040513d601f19601f82011682018060405250810190611aaf919061362c565b60015b611b5757611abe613666565b806308c379a003611b1a5750611ad2613688565b80611add5750611b1c565b806040517f08c379a0000000000000000000000000000000000000000000000000000000008152600401611b119190612682565b60405180910390fd5b505b6040517f08c379a0000000000000000000000000000000000000000000000000000000008152600401611b4e9061378a565b60405180910390fd5b63bc197c8160e01b7bffffffffffffffffffffffffffffffffffffffffffffffffffffffff1916817bffffffffffffffffffffffffffffffffffffffffffffffffffffffff191614611bde576040517f08c379a0000000000000000000000000000000000000000000000000000000008152600401611bd59061381c565b60405180910390fd5b505b505050505050565b611bf28282610902565b611cc55760016003600084815260200190815260200160002060000160008373ffffffffffffffffffffffffffffffffffffffff1673ffffffffffffffffffffffffffffffffffffffff16815260200190815260200160002060006101000a81548160ff021916908315150217905550611c6a610efa565b73ffffffffffffffffffffffffffffffffffffffff168173ffffffffffffffffffffffffffffffffffffffff16837f2f8788117e7eff1d82e926ec794901d17c78024a50270940304540a733656f0d60405160405180910390a45b5050565b6000611cf1836000018373ffffffffffffffffffffffffffffffffffffffff1660001b6120d3565b905092915050565b611d038282610902565b15611dd75760006003600084815260200190815260200160002060000160008373ffffffffffffffffffffffffffffffffffffffff1673ffffffffffffffffffffffffffffffffffffffff16815260200190815260200160002060006101000a81548160ff021916908315150217905550611d7c610efa565b73ffffffffffffffffffffffffffffffffffffffff168173ffffffffffffffffffffffffffffffffffffffff16837ff6391f5c32d9c69d2a47ea670b442974b53935d1edc7fd64eb21e047a839171b60405160405180910390a45b5050565b6000611e03836000018373ffffffffffffffffffffffffffffffffffffffff1660001b612143565b905092915050565b6000826000018281548110611e2357611e22613046565b5b9060005260206000200154905092915050565b600081600001805490509050919050565b6060611e6d8273ffffffffffffffffffffffffffffffffffffffff16601460ff16611e74565b9050919050565b606060006002836002611e8791906138a4565b611e91919061317e565b67ffffffffffffffff811115611eaa57611ea9612462565b5b6040519080825280601f01601f191660200182016040528015611edc5781602001600182028036833780820191505090505b5090507f300000000000000000000000000000000000000000000000000000000000000081600081518110611f1457611f13613046565b5b60200101907effffffffffffffffffffffffffffffffffffffffffffffffffffffffffffff1916908160001a9053507f780000000000000000000000000000000000000000000000000000000000000081600181518110611f7857611f77613046565b5b60200101907effffffffffffffffffffffffffffffffffffffffffffffffffffffffffffff1916908160001a90535060006001846002611fb891906138a4565b611fc2919061317e565b90505b6001811115612062577f3031323334353637383961626364656600000000000000000000000000000000600f86166010811061200457612003613046565b5b1a60f81b82828151811061201b5761201a613046565b5b60200101907effffffffffffffffffffffffffffffffffffffffffffffffffffffffffffff1916908160001a905350600485901c94508061205b906138e6565b9050611fc5565b50600084146120a6576040517f08c379a000000000000000000000000000000000000000000000000000000000815260040161209d9061395b565b60405180910390fd5b8091505092915050565b6000808273ffffffffffffffffffffffffffffffffffffffff163b119050919050565b60006120df8383612257565b61213857826000018290806001815401808255809150506001900390600052602060002001600090919091909150558260000180549050836001016000848152602001908152602001600020819055506001905061213d565b600090505b92915050565b6000808360010160008481526020019081526020016000205490506000811461224b576000600182612175919061397b565b905060006001866000018054905061218d919061397b565b90508181146121fc5760008660000182815481106121ae576121ad613046565b5b90600052602060002001549050808760000184815481106121d2576121d1613046565b5b90600052602060002001819055508387600101600083815260200190815260200160002081905550505b856000018054806122105761220f6139af565b5b600190038181906000526020600020016000905590558560010160008681526020019081526020016000206000905560019350505050612251565b60009150505b92915050565b600080836001016000848152602001908152602001600020541415905092915050565b6000604051905090565b600080fd5b600080fd5b600073ffffffffffffffffffffffffffffffffffffffff82169050919050565b60006122b98261228e565b9050919050565b6122c9816122ae565b81146122d457600080fd5b50565b6000813590506122e6816122c0565b92915050565b6000819050919050565b6122ff816122ec565b811461230a57600080fd5b50565b60008135905061231c816122f6565b92915050565b6000806040838503121561233957612338612284565b5b6000612347858286016122d7565b92505060206123588582860161230d565b9150509250929050565b61236b816122ec565b82525050565b60006020820190506123866000830184612362565b92915050565b60007fffffffff0000000000000000000000000000000000000000000000000000000082169050919050565b6123c18161238c565b81146123cc57600080fd5b50565b6000813590506123de816123b8565b92915050565b6000602082840312156123fa576123f9612284565b5b6000612408848285016123cf565b91505092915050565b60008115159050919050565b61242681612411565b82525050565b6000602082019050612441600083018461241d565b92915050565b600080fd5b600080fd5b6000601f19601f8301169050919050565b7f4e487b7100000000000000000000000000000000000000000000000000000000600052604160045260246000fd5b61249a82612451565b810181811067ffffffffffffffff821117156124b9576124b8612462565b5b80604052505050565b60006124cc61227a565b90506124d88282612491565b919050565b600067ffffffffffffffff8211156124f8576124f7612462565b5b61250182612451565b9050602081019050919050565b82818337600083830152505050565b600061253061252b846124dd565b6124c2565b90508281526020810184848401111561254c5761254b61244c565b5b61255784828561250e565b509392505050565b600082601f83011261257457612573612447565b5b813561258484826020860161251d565b91505092915050565b6000602082840312156125a3576125a2612284565b5b600082013567ffffffffffffffff8111156125c1576125c0612289565b5b6125cd8482850161255f565b91505092915050565b6000602082840312156125ec576125eb612284565b5b60006125fa8482850161230d565b91505092915050565b600081519050919050565b600082825260208201905092915050565b60005b8381101561263d578082015181840152602081019050612622565b60008484015250505050565b600061265482612603565b61265e818561260e565b935061266e81856020860161261f565b61267781612451565b840191505092915050565b6000602082019050818103600083015261269c8184612649565b905092915050565b6000819050919050565b6126b7816126a4565b81146126c257600080fd5b50565b6000813590506126d4816126ae565b92915050565b6000602082840312156126f0576126ef612284565b5b60006126fe848285016126c5565b91505092915050565b612710816126a4565b82525050565b600060208201905061272b6000830184612707565b92915050565b600067ffffffffffffffff82111561274c5761274b612462565b5b602082029050602081019050919050565b600080fd5b600061277561277084612731565b6124c2565b905080838252602082019050602084028301858111156127985761279761275d565b5b835b818110156127c157806127ad888261230d565b84526020840193505060208101905061279a565b5050509392505050565b600082601f8301126127e0576127df612447565b5b81356127f0848260208601612762565b91505092915050565b600067ffffffffffffffff82111561281457612813612462565b5b61281d82612451565b9050602081019050919050565b600061283d612838846127f9565b6124c2565b9050828152602081018484840111156128595761285861244c565b5b61286484828561250e565b509392505050565b600082601f83011261288157612880612447565b5b813561289184826020860161282a565b91505092915050565b600080600080600060a086880312156128b6576128b5612284565b5b60006128c4888289016122d7565b95505060206128d5888289016122d7565b945050604086013567ffffffffffffffff8111156128f6576128f5612289565b5b612902888289016127cb565b935050606086013567ffffffffffffffff81111561292357612922612289565b5b61292f888289016127cb565b925050608086013567ffffffffffffffff8111156129505761294f612289565b5b61295c8882890161286c565b9150509295509295909350565b600080604083850312156129805761297f612284565b5b600061298e858286016126c5565b925050602061299f858286016122d7565b9150509250929050565b600067ffffffffffffffff8211156129c4576129c3612462565b5b602082029050602081019050919050565b60006129e86129e3846129a9565b6124c2565b90508083825260208201905060208402830185811115612a0b57612a0a61275d565b5b835b81811015612a345780612a2088826122d7565b845260208401935050602081019050612a0d565b5050509392505050565b600082601f830112612a5357612a52612447565b5b8135612a638482602086016129d5565b91505092915050565b60008060408385031215612a8357612a82612284565b5b600083013567ffffffffffffffff811115612aa157612aa0612289565b5b612aad85828601612a3e565b925050602083013567ffffffffffffffff811115612ace57612acd612289565b5b612ada858286016127cb565b9150509250929050565b600081519050919050565b600082825260208201905092915050565b6000819050602082019050919050565b612b19816122ec565b82525050565b6000612b2b8383612b10565b60208301905092915050565b6000602082019050919050565b6000612b4f82612ae4565b612b598185612aef565b9350612b6483612b00565b8060005b83811015612b95578151612b7c8882612b1f565b9750612b8783612b37565b925050600181019050612b68565b5085935050505092915050565b60006020820190508181036000830152612bbc8184612b44565b905092915050565b60008060408385031215612bdb57612bda612284565b5b6000612be9858286016126c5565b9250506020612bfa8582860161230d565b9150509250929050565b612c0d816122ae565b82525050565b6000602082019050612c286000830184612c04565b92915050565b612c3781612411565b8114612c4257600080fd5b50565b600081359050612c5481612c2e565b92915050565b60008060408385031215612c7157612c70612284565b5b6000612c7f858286016122d7565b9250506020612c9085828601612c45565b9150509250929050565b60008060408385031215612cb157612cb0612284565b5b6000612cbf858286016122d7565b9250506020612cd0858286016122d7565b9150509250929050565b600060208284031215612cf057612cef612284565b5b6000612cfe848285016122d7565b91505092915050565b600080600080600060a08688031215612d2357612d22612284565b5b6000612d31888289016122d7565b9550506020612d42888289016122d7565b9450506040612d538882890161230d565b9350506060612d648882890161230d565b925050608086013567ffffffffffffffff811115612d8557612d84612289565b5b612d918882890161286c565b9150509295509295909350565b7f455243313135353a2061646472657373207a65726f206973206e6f742061207660008201527f616c6964206f776e657200000000000000000000000000000000000000000000602082015250565b6000612dfa602a8361260e565b9150612e0582612d9e565b604082019050919050565b60006020820190508181036000830152612e2981612ded565b9050919050565b7f4e487b7100000000000000000000000000000000000000000000000000000000600052602260045260246000fd5b60006002820490506001821680612e7757607f821691505b602082108103612e8a57612e89612e30565b5b50919050565b7f455243313135353a2063616c6c6572206973206e6f7420746f6b656e206f776e60008201527f6572206f7220617070726f766564000000000000000000000000000000000000602082015250565b6000612eec602e8361260e565b9150612ef782612e90565b604082019050919050565b60006020820190508181036000830152612f1b81612edf565b9050919050565b7f416363657373436f6e74726f6c3a2063616e206f6e6c792072656e6f756e636560008201527f20726f6c657320666f722073656c660000000000000000000000000000000000602082015250565b6000612f7e602f8361260e565b9150612f8982612f22565b604082019050919050565b60006020820190508181036000830152612fad81612f71565b9050919050565b7f455243313135353a206163636f756e747320616e6420696473206c656e67746860008201527f206d69736d617463680000000000000000000000000000000000000000000000602082015250565b600061301060298361260e565b915061301b82612fb4565b604082019050919050565b6000602082019050818103600083015261303f81613003565b9050919050565b7f4e487b7100000000000000000000000000000000000000000000000000000000600052603260045260246000fd5b7f4e487b7100000000000000000000000000000000000000000000000000000000600052601160045260246000fd5b60006130af826122ec565b91507fffffffffffffffffffffffffffffffffffffffffffffffffffffffffffffffff82036130e1576130e0613075565b5b600182019050919050565b7f455243313135353a206d696e7420746f20746865207a65726f2061646472657360008201527f7300000000000000000000000000000000000000000000000000000000000000602082015250565b600061314860218361260e565b9150613153826130ec565b604082019050919050565b600060208201905081810360008301526131778161313b565b9050919050565b6000613189826122ec565b9150613194836122ec565b92508282019050808211156131ac576131ab613075565b5b92915050565b60006040820190506131c76000830185612362565b6131d46020830184612362565b9392505050565b7f455243313135353a2069647320616e6420616d6f756e7473206c656e6774682060008201527f6d69736d61746368000000000000000000000000000000000000000000000000602082015250565b600061323760288361260e565b9150613242826131db565b604082019050919050565b600060208201905081810360008301526132668161322a565b9050919050565b7f455243313135353a207472616e7366657220746f20746865207a65726f20616460008201527f6472657373000000000000000000000000000000000000000000000000000000602082015250565b60006132c960258361260e565b91506132d48261326d565b604082019050919050565b600060208201905081810360008301526132f8816132bc565b9050919050565b7f455243313135353a20696e73756666696369656e742062616c616e636520666f60008201527f72207472616e7366657200000000000000000000000000000000000000000000602082015250565b600061335b602a8361260e565b9150613366826132ff565b604082019050919050565b6000602082019050818103600083015261338a8161334e565b9050919050565b600060408201905081810360008301526133ab8185612b44565b905081810360208301526133bf8184612b44565b90509392505050565b7f455243313135353a2073657474696e6720617070726f76616c2073746174757360008201527f20666f722073656c660000000000000000000000000000000000000000000000602082015250565b600061342460298361260e565b915061342f826133c8565b604082019050919050565b6000602082019050818103600083015261345381613417565b9050919050565b600081905092915050565b7f416363657373436f6e74726f6c3a206163636f756e7420000000000000000000600082015250565b600061349b60178361345a565b91506134a682613465565b601782019050919050565b60006134bc82612603565b6134c6818561345a565b93506134d681856020860161261f565b80840191505092915050565b7f206973206d697373696e6720726f6c6520000000000000000000000000000000600082015250565b600061351860118361345a565b9150613523826134e2565b601182019050919050565b60006135398261348e565b915061354582856134b1565b91506135508261350b565b915061355c82846134b1565b91508190509392505050565b600081519050919050565b600082825260208201905092915050565b600061358f82613568565b6135998185613573565b93506135a981856020860161261f565b6135b281612451565b840191505092915050565b600060a0820190506135d26000830188612c04565b6135df6020830187612c04565b6135ec6040830186612362565b6135f96060830185612362565b818103608083015261360b8184613584565b90509695505050505050565b600081519050613626816123b8565b92915050565b60006020828403121561364257613641612284565b5b600061365084828501613617565b91505092915050565b60008160e01c9050919050565b600060033d11156136855760046000803e613682600051613659565b90505b90565b600060443d106137155761369a61227a565b60043d036004823e80513d602482011167ffffffffffffffff821117156136c2575050613715565b808201805167ffffffffffffffff8111156136e05750505050613715565b80602083010160043d0385018111156136fd575050505050613715565b61370c82602001850186612491565b82955050505050505b90565b7f455243313135353a207472616e7366657220746f206e6f6e2d4552433131353560008201527f526563656976657220696d706c656d656e746572000000000000000000000000602082015250565b600061377460348361260e565b915061377f82613718565b604082019050919050565b600060208201905081810360008301526137a381613767565b9050919050565b7f455243313135353a204552433131353552656365697665722072656a6563746560008201527f6420746f6b656e73000000000000000000000000000000000000000000000000602082015250565b600061380660288361260e565b9150613811826137aa565b604082019050919050565b60006020820190508181036000830152613835816137f9565b9050919050565b600060a0820190506138516000830188612c04565b61385e6020830187612c04565b81810360408301526138708186612b44565b905081810360608301526138848185612b44565b905081810360808301526138988184613584565b90509695505050505050565b60006138af826122ec565b91506138ba836122ec565b92508282026138c8816122ec565b915082820484148315176138df576138de613075565b5b5092915050565b60006138f1826122ec565b91506000820361390457613903613075565b5b600182039050919050565b7f537472696e67733a20686578206c656e67746820696e73756666696369656e74600082015250565b600061394560208361260e565b91506139508261390f565b602082019050919050565b6000602082019050818103600083015261397481613938565b9050919050565b6000613986826122ec565b9150613991836122ec565b92508282039050818111156139a9576139a8613075565b5b92915050565b7f4e487b7100000000000000000000000000000000000000000000000000000000600052603160045260246000fdfea2646970667358221220b0eca548746a07d9d31c6886b287b4c31fa6db62d124254f489662eca68464ff64736f6c63430008130033",
  "linkReferences": {},
  "deployedLinkReferences": {}
}