{
  "_format": "hh-sol-artifact-1",
  "contractName": "AnalyticalCertificateNFT",
  "sourceName": "contracts/AnalyticalCertificateNFT.sol",
  "abi": [
    {
      "inputs": [],
      "stateMutability": "nonpayable",
      "type": "constructor"
    },
    {
      "anonymous": false,
      "inputs": [
        {
          "indexed": true,
          "internalType": "uint256",
          "name": "tokenId",
          "type": "uint256"
        }
      ],
      "name": "AnalysisAdded",
      "type": "event"
    },
    {
      "anonymous": false,
      "inputs": [
        {
          "indexed": true,
          "internalType": "address",
          "name": "account",
          "type": "address"
        },
        {
          "indexed": true,
          "internalType": "address",
          "name": "operator",
          "type": "address"
        },
        {
          "indexed": false,
          "internalType": "bool",
          "name": "approved",
          "type": "bool"
        }
      ],
      "name": "ApprovalForAll",
      "type": "event"
    },
    {
      "anonymous": false,
      "inputs": [
        {
          "indexed": true,
          "internalType": "uint256",
          "name": "tokenId",
          "type": "uint256"
        },
        {
          "indexed": false,
          "internalType": "string",
          "name": "productHash",
          "type": "string"
        }
      ],
      "name": "CertificateAdded",
      "type": "event"
    },
    {
      "anonymous": false,
      "inputs": [
        {
          "indexed": true,
          "internalType": "bytes32",
          "name": "role",
          "type": "bytes32"
        },
        {
          "indexed": true,
          "internalType": "bytes32",
          "name": "previousAdminRole",
          "type": "bytes32"
        },
        {
          "indexed": true,
          "internalType": "bytes32",
          "name": "newAdminRole",
          "type": "bytes32"
        }
      ],
      "name": "RoleAdminChanged",
      "type": "event"
    },
    {
      "anonymous": false,
      "inputs": [
        {
          "indexed": true,
          "internalType": "bytes32",
          "name": "role",
          "type": "bytes32"
        },
        {
          "indexed": true,
          "internalType": "address",
          "name": "account",
          "type": "address"
        },
        {
          "indexed": true,
          "internalType": "address",
          "name": "sender",
          "type": "address"
        }
      ],
      "name": "RoleGranted",
      "type": "event"
    },
    {
      "anonymous": false,
      "inputs": [
        {
          "indexed": true,
          "internalType": "bytes32",
          "name": "role",
          "type": "bytes32"
        },
        {
          "indexed": true,
          "internalType": "address",
          "name": "account",
          "type": "address"
        },
        {
          "indexed": true,
          "internalType": "address",
          "name": "sender",
          "type": "address"
        }
      ],
      "name": "RoleRevoked",
      "type": "event"
    },
    {
      "anonymous": false,
      "inputs": [
        {
          "indexed": true,
          "internalType": "address",
          "name": "operator",
          "type": "address"
        },
        {
          "indexed": true,
          "internalType": "address",
          "name": "from",
          "type": "address"
        },
        {
          "indexed": true,
          "internalType": "address",
          "name": "to",
          "type": "address"
        },
        {
          "indexed": false,
          "internalType": "uint256[]",
          "name": "ids",
          "type": "uint256[]"
        },
        {
          "indexed": false,
          "internalType": "uint256[]",
          "name": "values",
          "type": "uint256[]"
        }
      ],
      "name": "TransferBatch",
      "type": "event"
    },
    {
      "anonymous": false,
      "inputs": [
        {
          "indexed": true,
          "internalType": "address",
          "name": "operator",
          "type": "address"
        },
        {
          "indexed": true,
          "internalType": "address",
          "name": "from",
          "type": "address"
        },
        {
          "indexed": true,
          "internalType": "address",
          "name": "to",
          "type": "address"
        },
        {
          "indexed": false,
          "internalType": "uint256",
          "name": "id",
          "type": "uint256"
        },
        {
          "indexed": false,
          "internalType": "uint256",
          "name": "value",
          "type": "uint256"
        }
      ],
      "name": "TransferSingle",
      "type": "event"
    },
    {
      "anonymous": false,
      "inputs": [
        {
          "indexed": false,
          "internalType": "string",
          "name": "value",
          "type": "string"
        },
        {
          "indexed": true,
          "internalType": "uint256",
          "name": "id",
          "type": "uint256"
        }
      ],
      "name": "URI",
      "type": "event"
    },
    {
      "inputs": [],
      "name": "AUTHORIZED_LAB_ROLE",
      "outputs": [
        {
          "internalType": "bytes32",
          "name": "",
          "type": "bytes32"
        }
      ],
      "stateMutability": "view",
      "type": "function"
    },
    {
      "inputs": [],
      "name": "DEFAULT_ADMIN_ROLE",
      "outputs": [
        {
          "internalType": "bytes32",
          "name": "",
          "type": "bytes32"
        }
      ],
      "stateMutability": "view",
      "type": "function"
    },
    {
      "inputs": [
        {
          "internalType": "uint256",
          "name": "_tokenId",
          "type": "uint256"
        }
      ],
      "name": "addAnalysis",
      "outputs": [],
      "stateMutability": "nonpayable",
      "type": "function"
    },
    {
      "inputs": [
        {
          "internalType": "address",
          "name": "_authorizedLab",
          "type": "address"
        }
      ],
      "name": "addAuthorizedLab",
      "outputs": [],
      "stateMutability": "nonpayable",
      "type": "function"
    },
    {
      "inputs": [
        {
          "internalType": "uint256",
          "name": "",
          "type": "uint256"
        }
      ],
      "name": "authorizedLabs",
      "outputs": [
        {
          "internalType": "address",
          "name": "",
          "type": "address"
        }
      ],
      "stateMutability": "view",
      "type": "function"
    },
    {
      "inputs": [
        {
          "internalType": "address",
          "name": "account",
          "type": "address"
        },
        {
          "internalType": "uint256",
          "name": "id",
          "type": "uint256"
        }
      ],
      "name": "balanceOf",
      "outputs": [
        {
          "internalType": "uint256",
          "name": "",
          "type": "uint256"
        }
      ],
      "stateMutability": "view",
      "type": "function"
    },
    {
      "inputs": [
        {
          "internalType": "address[]",
          "name": "accounts",
          "type": "address[]"
        },
        {
          "internalType": "uint256[]",
          "name": "ids",
          "type": "uint256[]"
        }
      ],
      "name": "balanceOfBatch",
      "outputs": [
        {
          "internalType": "uint256[]",
          "name": "",
          "type": "uint256[]"
        }
      ],
      "stateMutability": "view",
      "type": "function"
    },
    {
      "inputs": [
        {
          "internalType": "bytes32",
          "name": "role",
          "type": "bytes32"
        }
      ],
      "name": "getRoleAdmin",
      "outputs": [
        {
          "internalType": "bytes32",
          "name": "",
          "type": "bytes32"
        }
      ],
      "stateMutability": "view",
      "type": "function"
    },
    {
      "inputs": [
        {
          "internalType": "bytes32",
          "name": "role",
          "type": "bytes32"
        },
        {
          "internalType": "uint256",
          "name": "index",
          "type": "uint256"
        }
      ],
      "name": "getRoleMember",
      "outputs": [
        {
          "internalType": "address",
          "name": "",
          "type": "address"
        }
      ],
      "stateMutability": "view",
      "type": "function"
    },
    {
      "inputs": [
        {
          "internalType": "bytes32",
          "name": "role",
          "type": "bytes32"
        }
      ],
      "name": "getRoleMemberCount",
      "outputs": [
        {
          "internalType": "uint256",
          "name": "",
          "type": "uint256"
        }
      ],
      "stateMutability": "view",
      "type": "function"
    },
    {
      "inputs": [
        {
          "internalType": "bytes32",
          "name": "role",
          "type": "bytes32"
        },
        {
          "internalType": "address",
          "name": "account",
          "type": "address"
        }
      ],
      "name": "grantRole",
      "outputs": [],
      "stateMutability": "nonpayable",
      "type": "function"
    },
    {
      "inputs": [
        {
          "internalType": "bytes32",
          "name": "role",
          "type": "bytes32"
        },
        {
          "internalType": "address",
          "name": "account",
          "type": "address"
        }
      ],
      "name": "hasRole",
      "outputs": [
        {
          "internalType": "bool",
          "name": "",
          "type": "bool"
        }
      ],
      "stateMutability": "view",
      "type": "function"
    },
    {
      "inputs": [
        {
          "internalType": "address",
          "name": "account",
          "type": "address"
        },
        {
          "internalType": "address",
          "name": "operator",
          "type": "address"
        }
      ],
      "name": "isApprovedForAll",
      "outputs": [
        {
          "internalType": "bool",
          "name": "",
          "type": "bool"
        }
      ],
      "stateMutability": "view",
      "type": "function"
    },
    {
      "inputs": [
        {
          "internalType": "string",
          "name": "_productHash",
          "type": "string"
        }
      ],
      "name": "newProductAnalysis",
      "outputs": [],
      "stateMutability": "nonpayable",
      "type": "function"
    },
    {
      "inputs": [
        {
          "internalType": "bytes32",
          "name": "role",
          "type": "bytes32"
        },
        {
          "internalType": "address",
          "name": "account",
          "type": "address"
        }
      ],
      "name": "renounceRole",
      "outputs": [],
      "stateMutability": "nonpayable",
      "type": "function"
    },
    {
      "inputs": [
        {
          "internalType": "bytes32",
          "name": "role",
          "type": "bytes32"
        },
        {
          "internalType": "address",
          "name": "account",
          "type": "address"
        }
      ],
      "name": "revokeRole",
      "outputs": [],
      "stateMutability": "nonpayable",
      "type": "function"
    },
    {
      "inputs": [
        {
          "internalType": "address",
          "name": "from",
          "type": "address"
        },
        {
          "internalType": "address",
          "name": "to",
          "type": "address"
        },
        {
          "internalType": "uint256[]",
          "name": "ids",
          "type": "uint256[]"
        },
        {
          "internalType": "uint256[]",
          "name": "amounts",
          "type": "uint256[]"
        },
        {
          "internalType": "bytes",
          "name": "data",
          "type": "bytes"
        }
      ],
      "name": "safeBatchTransferFrom",
      "outputs": [],
      "stateMutability": "nonpayable",
      "type": "function"
    },
    {
      "inputs": [
        {
          "internalType": "address",
          "name": "from",
          "type": "address"
        },
        {
          "internalType": "address",
          "name": "to",
          "type": "address"
        },
        {
          "internalType": "uint256",
          "name": "id",
          "type": "uint256"
        },
        {
          "internalType": "uint256",
          "name": "amount",
          "type": "uint256"
        },
        {
          "internalType": "bytes",
          "name": "data",
          "type": "bytes"
        }
      ],
      "name": "safeTransferFrom",
      "outputs": [],
      "stateMutability": "nonpayable",
      "type": "function"
    },
    {
      "inputs": [
        {
          "internalType": "address",
          "name": "operator",
          "type": "address"
        },
        {
          "internalType": "bool",
          "name": "approved",
          "type": "bool"
        }
      ],
      "name": "setApprovalForAll",
      "outputs": [],
      "stateMutability": "nonpayable",
      "type": "function"
    },
    {
      "inputs": [
        {
          "internalType": "bytes4",
          "name": "interfaceId",
          "type": "bytes4"
        }
      ],
      "name": "supportsInterface",
      "outputs": [
        {
          "internalType": "bool",
          "name": "",
          "type": "bool"
        }
      ],
      "stateMutability": "view",
      "type": "function"
    },
    {
      "inputs": [
        {
          "internalType": "uint256",
          "name": "",
          "type": "uint256"
        }
      ],
      "name": "uri",
      "outputs": [
        {
          "internalType": "string",
          "name": "",
          "type": "string"
        }
      ],
      "stateMutability": "view",
      "type": "function"
    }
  ],
  "bytecode": "0x60806040523480156200001157600080fd5b506040518060400160405280600381526020017f75726900000000000000000000000000000000000000000000000000000000008152506200005981620000a760201b60201c565b506200006f6000801b33620000bc60201b60201c565b620000a17fb86c2151d7dd199b912da25b2b6a53b7b28ac919c3397658c96a8c10317bb67733620000bc60201b60201c565b620006ab565b8060029081620000b89190620005c4565b5050565b620000ce8282620000d260201b60201c565b5050565b620000e482826200011060201b60201c565b6200010b81600460008581526020019081526020016000206200020260201b90919060201c565b505050565b6200012282826200023a60201b60201c565b620001fe5760016003600084815260200190815260200160002060000160008373ffffffffffffffffffffffffffffffffffffffff1673ffffffffffffffffffffffffffffffffffffffff16815260200190815260200160002060006101000a81548160ff021916908315150217905550620001a3620002a560201b60201c565b73ffffffffffffffffffffffffffffffffffffffff168173ffffffffffffffffffffffffffffffffffffffff16837f2f8788117e7eff1d82e926ec794901d17c78024a50270940304540a733656f0d60405160405180910390a45b5050565b600062000232836000018373ffffffffffffffffffffffffffffffffffffffff1660001b620002ad60201b60201c565b905092915050565b60006003600084815260200190815260200160002060000160008373ffffffffffffffffffffffffffffffffffffffff1673ffffffffffffffffffffffffffffffffffffffff16815260200190815260200160002060009054906101000a900460ff16905092915050565b600033905090565b6000620002c183836200032760201b60201c565b6200031c57826000018290806001815401808255809150506001900390600052602060002001600090919091909150558260000180549050836001016000848152602001908152602001600020819055506001905062000321565b600090505b92915050565b600080836001016000848152602001908152602001600020541415905092915050565b600081519050919050565b7f4e487b7100000000000000000000000000000000000000000000000000000000600052604160045260246000fd5b7f4e487b7100000000000000000000000000000000000000000000000000000000600052602260045260246000fd5b60006002820490506001821680620003cc57607f821691505b602082108103620003e257620003e162000384565b5b50919050565b60008190508160005260206000209050919050565b60006020601f8301049050919050565b600082821b905092915050565b6000600883026200044c7fffffffffffffffffffffffffffffffffffffffffffffffffffffffffffffffff826200040d565b6200045886836200040d565b95508019841693508086168417925050509392505050565b6000819050919050565b6000819050919050565b6000620004a56200049f620004998462000470565b6200047a565b62000470565b9050919050565b6000819050919050565b620004c18362000484565b620004d9620004d082620004ac565b8484546200041a565b825550505050565b600090565b620004f0620004e1565b620004fd818484620004b6565b505050565b5b81811015620005255762000519600082620004e6565b60018101905062000503565b5050565b601f82111562000574576200053e81620003e8565b6200054984620003fd565b8101602085101562000559578190505b620005716200056885620003fd565b83018262000502565b50505b505050565b600082821c905092915050565b6000620005996000198460080262000579565b1980831691505092915050565b6000620005b4838362000586565b9150826002028217905092915050565b620005cf826200034a565b67ffffffffffffffff811115620005eb57620005ea62000355565b5b620005f78254620003b3565b6200060482828562000529565b600060209050601f8311600181146200063c576000841562000627578287015190505b620006338582620005a6565b865550620006a3565b601f1984166200064c86620003e8565b60005b8281101562000676578489015182556001820191506020850194506020810190506200064f565b8683101562000696578489015162000692601f89168262000586565b8355505b6001600288020188555050505b505050505050565b613af180620006bb6000396000f3fe608060405234801561001057600080fd5b50600436106101365760003560e01c80639010d07c116100b8578063ca15c8731161007c578063ca15c87314610383578063d547741f146103b3578063e985e9c5146103cf578063ebd18e0d146103ff578063f242432a1461041b578063f6377c8b1461043757610136565b80639010d07c146102cd57806391d14854146102fd578063a217fddf1461032d578063a22cb4651461034b578063baadc3aa1461036757610136565b80632f2ff15d116100ff5780632f2ff15d1461021757806336568abe1461023357806339b189eb1461024f57806341f770521461027f5780634e1273f41461029d57610136565b8062fdd58e1461013b57806301ffc9a71461016b5780630e89341c1461019b578063248a9ca3146101cb5780632eb2c2d6146101fb575b600080fd5b610155600480360381019061015091906123ff565b610453565b604051610162919061244e565b60405180910390f35b610185600480360381019061018091906124c1565b61051b565b6040516101929190612509565b60405180910390f35b6101b560048036038101906101b09190612524565b61053d565b6040516101c291906125e1565b60405180910390f35b6101e560048036038101906101e09190612639565b6105d1565b6040516101f29190612675565b60405180910390f35b6102156004803603810190610210919061288d565b6105f1565b005b610231600480360381019061022c919061295c565b610692565b005b61024d6004803603810190610248919061295c565b6106b3565b005b61026960048036038101906102649190612524565b610736565b60405161027691906129ab565b60405180910390f35b610287610775565b6040516102949190612675565b60405180910390f35b6102b760048036038101906102b29190612a89565b610799565b6040516102c49190612bbf565b60405180910390f35b6102e760048036038101906102e29190612be1565b6108b2565b6040516102f491906129ab565b60405180910390f35b6103176004803603810190610312919061295c565b6108e1565b6040516103249190612509565b60405180910390f35b61033561094c565b6040516103429190612675565b60405180910390f35b61036560048036038101906103609190612c4d565b610953565b005b610381600480360381019061037c9190612524565b610969565b005b61039d60048036038101906103989190612639565b6109e0565b6040516103aa919061244e565b60405180910390f35b6103cd60048036038101906103c8919061295c565b610a04565b005b6103e960048036038101906103e49190612c8d565b610a25565b6040516103f69190612509565b60405180910390f35b61041960048036038101906104149190612ccd565b610ab9565b005b61043560048036038101906104309190612cfa565b610b57565b005b610451600480360381019061044c9190612e32565b610bf8565b005b60008073ffffffffffffffffffffffffffffffffffffffff168373ffffffffffffffffffffffffffffffffffffffff16036104c3576040517f08c379a00000000000000000000000000000000000000000000000000000000081526004016104ba90612eed565b60405180910390fd5b60008083815260200190815260200160002060008473ffffffffffffffffffffffffffffffffffffffff1673ffffffffffffffffffffffffffffffffffffffff16815260200190815260200160002054905092915050565b600061052682610c93565b80610536575061053582610d75565b5b9050919050565b60606002805461054c90612f3c565b80601f016020809104026020016040519081016040528092919081815260200182805461057890612f3c565b80156105c55780601f1061059a576101008083540402835291602001916105c5565b820191906000526020600020905b8154815290600101906020018083116105a857829003601f168201915b50505050509050919050565b600060036000838152602001908152602001600020600101549050919050565b6105f9610def565b73ffffffffffffffffffffffffffffffffffffffff168573ffffffffffffffffffffffffffffffffffffffff16148061063f575061063e85610639610def565b610a25565b5b61067e576040517f08c379a000000000000000000000000000000000000000000000000000000000815260040161067590612fdf565b60405180910390fd5b61068b8585858585610df7565b5050505050565b61069b826105d1565b6106a481611118565b6106ae838361112c565b505050565b6106bb610def565b73ffffffffffffffffffffffffffffffffffffffff168173ffffffffffffffffffffffffffffffffffffffff1614610728576040517f08c379a000000000000000000000000000000000000000000000000000000000815260040161071f90613071565b60405180910390fd5b6107328282611160565b5050565b6006818154811061074657600080fd5b906000526020600020016000915054906101000a900473ffffffffffffffffffffffffffffffffffffffff1681565b7fb86c2151d7dd199b912da25b2b6a53b7b28ac919c3397658c96a8c10317bb67781565b606081518351146107df576040517f08c379a00000000000000000000000000000000000000000000000000000000081526004016107d690613103565b60405180910390fd5b6000835167ffffffffffffffff8111156107fc576107fb612695565b5b60405190808252806020026020018201604052801561082a5781602001602082028036833780820191505090505b50905060005b84518110156108a75761087785828151811061084f5761084e613123565b5b602002602001015185838151811061086a57610869613123565b5b6020026020010151610453565b82828151811061088a57610889613123565b5b602002602001018181525050806108a090613181565b9050610830565b508091505092915050565b60006108d9826004600086815260200190815260200160002061119490919063ffffffff16565b905092915050565b60006003600084815260200190815260200160002060000160008373ffffffffffffffffffffffffffffffffffffffff1673ffffffffffffffffffffffffffffffffffffffff16815260200190815260200160002060009054906101000a900460ff16905092915050565b6000801b81565b61096561095e610def565b83836111ae565b5050565b7fb86c2151d7dd199b912da25b2b6a53b7b28ac919c3397658c96a8c10317bb67761099381611118565b6109af338360016040518060200160405280600081525061131a565b817fde118665a900841d7c4d8546bd1635b2b9c9373beef459558719dbccd08a9b3060405160405180910390a25050565b60006109fd600460008481526020019081526020016000206114ca565b9050919050565b610a0d826105d1565b610a1681611118565b610a208383611160565b505050565b6000600160008473ffffffffffffffffffffffffffffffffffffffff1673ffffffffffffffffffffffffffffffffffffffff16815260200190815260200160002060008373ffffffffffffffffffffffffffffffffffffffff1673ffffffffffffffffffffffffffffffffffffffff16815260200190815260200160002060009054906101000a900460ff16905092915050565b6000801b610ac681611118565b610af07fb86c2151d7dd199b912da25b2b6a53b7b28ac919c3397658c96a8c10317bb67783610692565b6006829080600181540180825580915050600190039060005260206000200160009091909190916101000a81548173ffffffffffffffffffffffffffffffffffffffff021916908373ffffffffffffffffffffffffffffffffffffffff1602179055505050565b610b5f610def565b73ffffffffffffffffffffffffffffffffffffffff168573ffffffffffffffffffffffffffffffffffffffff161480610ba55750610ba485610b9f610def565b610a25565b5b610be4576040517f08c379a0000000000000000000000000000000000000000000000000000000008152600401610bdb90612fdf565b60405180910390fd5b610bf185858585856114df565b5050505050565b7fb86c2151d7dd199b912da25b2b6a53b7b28ac919c3397658c96a8c10317bb677610c2281611118565b610c2c600561177a565b6000610c386005611790565b9050610c56308260016040518060200160405280600081525061131a565b807fb3f7a51d97edfec0a93ec31952a01e523033a70f92f1cfae631a92c02f5306d084604051610c8691906125e1565b60405180910390a2505050565b60007fd9b67a26000000000000000000000000000000000000000000000000000000007bffffffffffffffffffffffffffffffffffffffffffffffffffffffff1916827bffffffffffffffffffffffffffffffffffffffffffffffffffffffff19161480610d5e57507f0e89341c000000000000000000000000000000000000000000000000000000007bffffffffffffffffffffffffffffffffffffffffffffffffffffffff1916827bffffffffffffffffffffffffffffffffffffffffffffffffffffffff1916145b80610d6e5750610d6d8261179e565b5b9050919050565b60007f7965db0b000000000000000000000000000000000000000000000000000000007bffffffffffffffffffffffffffffffffffffffffffffffffffffffff1916827bffffffffffffffffffffffffffffffffffffffffffffffffffffffff19161480610de85750610de782610c93565b5b9050919050565b600033905090565b8151835114610e3b576040517f08c379a0000000000000000000000000000000000000000000000000000000008152600401610e329061323b565b60405180910390fd5b600073ffffffffffffffffffffffffffffffffffffffff168473ffffffffffffffffffffffffffffffffffffffff1603610eaa576040517f08c379a0000000000000000000000000000000000000000000000000000000008152600401610ea1906132cd565b60405180910390fd5b6000610eb4610def565b9050610ec4818787878787611808565b60005b8451811015611075576000858281518110610ee557610ee4613123565b5b602002602001015190506000858381518110610f0457610f03613123565b5b60200260200101519050600080600084815260200190815260200160002060008b73ffffffffffffffffffffffffffffffffffffffff1673ffffffffffffffffffffffffffffffffffffffff16815260200190815260200160002054905081811015610fa5576040517f08c379a0000000000000000000000000000000000000000000000000000000008152600401610f9c9061335f565b60405180910390fd5b81810360008085815260200190815260200160002060008c73ffffffffffffffffffffffffffffffffffffffff1673ffffffffffffffffffffffffffffffffffffffff168152602001908152602001600020819055508160008085815260200190815260200160002060008b73ffffffffffffffffffffffffffffffffffffffff1673ffffffffffffffffffffffffffffffffffffffff168152602001908152602001600020600082825461105a919061337f565b925050819055505050508061106e90613181565b9050610ec7565b508473ffffffffffffffffffffffffffffffffffffffff168673ffffffffffffffffffffffffffffffffffffffff168273ffffffffffffffffffffffffffffffffffffffff167f4a39dc06d4c0dbc64b70af90fd698a233a518aa5d07e595d983b8c0526c8f7fb87876040516110ec9291906133b3565b60405180910390a4611102818787878787611810565b611110818787878787611818565b505050505050565b61112981611124610def565b6119ef565b50565b6111368282611a74565b61115b8160046000858152602001908152602001600020611b5590919063ffffffff16565b505050565b61116a8282611b85565b61118f8160046000858152602001908152602001600020611c6790919063ffffffff16565b505050565b60006111a38360000183611c97565b60001c905092915050565b8173ffffffffffffffffffffffffffffffffffffffff168373ffffffffffffffffffffffffffffffffffffffff160361121c576040517f08c379a00000000000000000000000000000000000000000000000000000000081526004016112139061345c565b60405180910390fd5b80600160008573ffffffffffffffffffffffffffffffffffffffff1673ffffffffffffffffffffffffffffffffffffffff16815260200190815260200160002060008473ffffffffffffffffffffffffffffffffffffffff1673ffffffffffffffffffffffffffffffffffffffff16815260200190815260200160002060006101000a81548160ff0219169083151502179055508173ffffffffffffffffffffffffffffffffffffffff168373ffffffffffffffffffffffffffffffffffffffff167f17307eab39ab6107e8899845ad3d59bd9653f200f220920489ca2b5937696c318360405161130d9190612509565b60405180910390a3505050565b600073ffffffffffffffffffffffffffffffffffffffff168473ffffffffffffffffffffffffffffffffffffffff1603611389576040517f08c379a0000000000000000000000000000000000000000000000000000000008152600401611380906134ee565b60405180910390fd5b6000611393610def565b905060006113a085611cc2565b905060006113ad85611cc2565b90506113be83600089858589611808565b8460008088815260200190815260200160002060008973ffffffffffffffffffffffffffffffffffffffff1673ffffffffffffffffffffffffffffffffffffffff168152602001908152602001600020600082825461141d919061337f565b925050819055508673ffffffffffffffffffffffffffffffffffffffff16600073ffffffffffffffffffffffffffffffffffffffff168473ffffffffffffffffffffffffffffffffffffffff167fc3d58168c5ae7397731d063d5bbf3d657854427343f4c083240f7aacaa2d0f62898960405161149b92919061350e565b60405180910390a46114b283600089858589611810565b6114c183600089898989611d3c565b50505050505050565b60006114d882600001611f13565b9050919050565b600073ffffffffffffffffffffffffffffffffffffffff168473ffffffffffffffffffffffffffffffffffffffff160361154e576040517f08c379a0000000000000000000000000000000000000000000000000000000008152600401611545906132cd565b60405180910390fd5b6000611558610def565b9050600061156585611cc2565b9050600061157285611cc2565b9050611582838989858589611808565b600080600088815260200190815260200160002060008a73ffffffffffffffffffffffffffffffffffffffff1673ffffffffffffffffffffffffffffffffffffffff16815260200190815260200160002054905085811015611619576040517f08c379a00000000000000000000000000000000000000000000000000000000081526004016116109061335f565b60405180910390fd5b85810360008089815260200190815260200160002060008b73ffffffffffffffffffffffffffffffffffffffff1673ffffffffffffffffffffffffffffffffffffffff168152602001908152602001600020819055508560008089815260200190815260200160002060008a73ffffffffffffffffffffffffffffffffffffffff1673ffffffffffffffffffffffffffffffffffffffff16815260200190815260200160002060008282546116ce919061337f565b925050819055508773ffffffffffffffffffffffffffffffffffffffff168973ffffffffffffffffffffffffffffffffffffffff168573ffffffffffffffffffffffffffffffffffffffff167fc3d58168c5ae7397731d063d5bbf3d657854427343f4c083240f7aacaa2d0f628a8a60405161174b92919061350e565b60405180910390a4611761848a8a86868a611810565b61176f848a8a8a8a8a611d3c565b505050505050505050565b6001816000016000828254019250508190555050565b600081600001549050919050565b60007f01ffc9a7000000000000000000000000000000000000000000000000000000007bffffffffffffffffffffffffffffffffffffffffffffffffffffffff1916827bffffffffffffffffffffffffffffffffffffffffffffffffffffffff1916149050919050565b505050505050565b505050505050565b6118378473ffffffffffffffffffffffffffffffffffffffff16611f24565b156119e7578373ffffffffffffffffffffffffffffffffffffffff1663bc197c8187878686866040518663ffffffff1660e01b815260040161187d95949392919061358c565b6020604051808303816000875af19250505080156118b957506040513d601f19601f820116820180604052508101906118b69190613609565b60015b61195e576118c5613643565b806308c379a00361192157506118d9613665565b806118e45750611923565b806040517f08c379a000000000000000000000000000000000000000000000000000000000815260040161191891906125e1565b60405180910390fd5b505b6040517f08c379a000000000000000000000000000000000000000000000000000000000815260040161195590613767565b60405180910390fd5b63bc197c8160e01b7bffffffffffffffffffffffffffffffffffffffffffffffffffffffff1916817bffffffffffffffffffffffffffffffffffffffffffffffffffffffff1916146119e5576040517f08c379a00000000000000000000000000000000000000000000000000000000081526004016119dc906137f9565b60405180910390fd5b505b505050505050565b6119f982826108e1565b611a7057611a0681611f47565b611a148360001c6020611f74565b604051602001611a259291906138ed565b6040516020818303038152906040526040517f08c379a0000000000000000000000000000000000000000000000000000000008152600401611a6791906125e1565b60405180910390fd5b5050565b611a7e82826108e1565b611b515760016003600084815260200190815260200160002060000160008373ffffffffffffffffffffffffffffffffffffffff1673ffffffffffffffffffffffffffffffffffffffff16815260200190815260200160002060006101000a81548160ff021916908315150217905550611af6610def565b73ffffffffffffffffffffffffffffffffffffffff168173ffffffffffffffffffffffffffffffffffffffff16837f2f8788117e7eff1d82e926ec794901d17c78024a50270940304540a733656f0d60405160405180910390a45b5050565b6000611b7d836000018373ffffffffffffffffffffffffffffffffffffffff1660001b6121b0565b905092915050565b611b8f82826108e1565b15611c635760006003600084815260200190815260200160002060000160008373ffffffffffffffffffffffffffffffffffffffff1673ffffffffffffffffffffffffffffffffffffffff16815260200190815260200160002060006101000a81548160ff021916908315150217905550611c08610def565b73ffffffffffffffffffffffffffffffffffffffff168173ffffffffffffffffffffffffffffffffffffffff16837ff6391f5c32d9c69d2a47ea670b442974b53935d1edc7fd64eb21e047a839171b60405160405180910390a45b5050565b6000611c8f836000018373ffffffffffffffffffffffffffffffffffffffff1660001b612220565b905092915050565b6000826000018281548110611caf57611cae613123565b5b9060005260206000200154905092915050565b60606000600167ffffffffffffffff811115611ce157611ce0612695565b5b604051908082528060200260200182016040528015611d0f5781602001602082028036833780820191505090505b5090508281600081518110611d2757611d26613123565b5b60200260200101818152505080915050919050565b611d5b8473ffffffffffffffffffffffffffffffffffffffff16611f24565b15611f0b578373ffffffffffffffffffffffffffffffffffffffff1663f23a6e6187878686866040518663ffffffff1660e01b8152600401611da1959493929190613927565b6020604051808303816000875af1925050508015611ddd57506040513d601f19601f82011682018060405250810190611dda9190613609565b60015b611e8257611de9613643565b806308c379a003611e455750611dfd613665565b80611e085750611e47565b806040517f08c379a0000000000000000000000000000000000000000000000000000000008152600401611e3c91906125e1565b60405180910390fd5b505b6040517f08c379a0000000000000000000000000000000000000000000000000000000008152600401611e7990613767565b60405180910390fd5b63f23a6e6160e01b7bffffffffffffffffffffffffffffffffffffffffffffffffffffffff1916817bffffffffffffffffffffffffffffffffffffffffffffffffffffffff191614611f09576040517f08c379a0000000000000000000000000000000000000000000000000000000008152600401611f00906137f9565b60405180910390fd5b505b505050505050565b600081600001805490509050919050565b6000808273ffffffffffffffffffffffffffffffffffffffff163b119050919050565b6060611f6d8273ffffffffffffffffffffffffffffffffffffffff16601460ff16611f74565b9050919050565b606060006002836002611f879190613981565b611f91919061337f565b67ffffffffffffffff811115611faa57611fa9612695565b5b6040519080825280601f01601f191660200182016040528015611fdc5781602001600182028036833780820191505090505b5090507f30000000000000000000000000000000000000000000000000000000000000008160008151811061201457612013613123565b5b60200101907effffffffffffffffffffffffffffffffffffffffffffffffffffffffffffff1916908160001a9053507f78000000000000000000000000000000000000000000000000000000000000008160018151811061207857612077613123565b5b60200101907effffffffffffffffffffffffffffffffffffffffffffffffffffffffffffff1916908160001a905350600060018460026120b89190613981565b6120c2919061337f565b90505b6001811115612162577f3031323334353637383961626364656600000000000000000000000000000000600f86166010811061210457612103613123565b5b1a60f81b82828151811061211b5761211a613123565b5b60200101907effffffffffffffffffffffffffffffffffffffffffffffffffffffffffffff1916908160001a905350600485901c94508061215b906139c3565b90506120c5565b50600084146121a6576040517f08c379a000000000000000000000000000000000000000000000000000000000815260040161219d90613a38565b60405180910390fd5b8091505092915050565b60006121bc8383612334565b61221557826000018290806001815401808255809150506001900390600052602060002001600090919091909150558260000180549050836001016000848152602001908152602001600020819055506001905061221a565b600090505b92915050565b600080836001016000848152602001908152602001600020549050600081146123285760006001826122529190613a58565b905060006001866000018054905061226a9190613a58565b90508181146122d957600086600001828154811061228b5761228a613123565b5b90600052602060002001549050808760000184815481106122af576122ae613123565b5b90600052602060002001819055508387600101600083815260200190815260200160002081905550505b856000018054806122ed576122ec613a8c565b5b60019003818190600052602060002001600090559055856001016000868152602001908152602001600020600090556001935050505061232e565b60009150505b92915050565b600080836001016000848152602001908152602001600020541415905092915050565b6000604051905090565b600080fd5b600080fd5b600073ffffffffffffffffffffffffffffffffffffffff82169050919050565b60006123968261236b565b9050919050565b6123a68161238b565b81146123b157600080fd5b50565b6000813590506123c38161239d565b92915050565b6000819050919050565b6123dc816123c9565b81146123e757600080fd5b50565b6000813590506123f9816123d3565b92915050565b6000806040838503121561241657612415612361565b5b6000612424858286016123b4565b9250506020612435858286016123ea565b9150509250929050565b612448816123c9565b82525050565b6000602082019050612463600083018461243f565b92915050565b60007fffffffff0000000000000000000000000000000000000000000000000000000082169050919050565b61249e81612469565b81146124a957600080fd5b50565b6000813590506124bb81612495565b92915050565b6000602082840312156124d7576124d6612361565b5b60006124e5848285016124ac565b91505092915050565b60008115159050919050565b612503816124ee565b82525050565b600060208201905061251e60008301846124fa565b92915050565b60006020828403121561253a57612539612361565b5b6000612548848285016123ea565b91505092915050565b600081519050919050565b600082825260208201905092915050565b60005b8381101561258b578082015181840152602081019050612570565b60008484015250505050565b6000601f19601f8301169050919050565b60006125b382612551565b6125bd818561255c565b93506125cd81856020860161256d565b6125d681612597565b840191505092915050565b600060208201905081810360008301526125fb81846125a8565b905092915050565b6000819050919050565b61261681612603565b811461262157600080fd5b50565b6000813590506126338161260d565b92915050565b60006020828403121561264f5761264e612361565b5b600061265d84828501612624565b91505092915050565b61266f81612603565b82525050565b600060208201905061268a6000830184612666565b92915050565b600080fd5b7f4e487b7100000000000000000000000000000000000000000000000000000000600052604160045260246000fd5b6126cd82612597565b810181811067ffffffffffffffff821117156126ec576126eb612695565b5b80604052505050565b60006126ff612357565b905061270b82826126c4565b919050565b600067ffffffffffffffff82111561272b5761272a612695565b5b602082029050602081019050919050565b600080fd5b600061275461274f84612710565b6126f5565b905080838252602082019050602084028301858111156127775761277661273c565b5b835b818110156127a0578061278c88826123ea565b845260208401935050602081019050612779565b5050509392505050565b600082601f8301126127bf576127be612690565b5b81356127cf848260208601612741565b91505092915050565b600080fd5b600067ffffffffffffffff8211156127f8576127f7612695565b5b61280182612597565b9050602081019050919050565b82818337600083830152505050565b600061283061282b846127dd565b6126f5565b90508281526020810184848401111561284c5761284b6127d8565b5b61285784828561280e565b509392505050565b600082601f83011261287457612873612690565b5b813561288484826020860161281d565b91505092915050565b600080600080600060a086880312156128a9576128a8612361565b5b60006128b7888289016123b4565b95505060206128c8888289016123b4565b945050604086013567ffffffffffffffff8111156128e9576128e8612366565b5b6128f5888289016127aa565b935050606086013567ffffffffffffffff81111561291657612915612366565b5b612922888289016127aa565b925050608086013567ffffffffffffffff81111561294357612942612366565b5b61294f8882890161285f565b9150509295509295909350565b6000806040838503121561297357612972612361565b5b600061298185828601612624565b9250506020612992858286016123b4565b9150509250929050565b6129a58161238b565b82525050565b60006020820190506129c0600083018461299c565b92915050565b600067ffffffffffffffff8211156129e1576129e0612695565b5b602082029050602081019050919050565b6000612a05612a00846129c6565b6126f5565b90508083825260208201905060208402830185811115612a2857612a2761273c565b5b835b81811015612a515780612a3d88826123b4565b845260208401935050602081019050612a2a565b5050509392505050565b600082601f830112612a7057612a6f612690565b5b8135612a808482602086016129f2565b91505092915050565b60008060408385031215612aa057612a9f612361565b5b600083013567ffffffffffffffff811115612abe57612abd612366565b5b612aca85828601612a5b565b925050602083013567ffffffffffffffff811115612aeb57612aea612366565b5b612af7858286016127aa565b9150509250929050565b600081519050919050565b600082825260208201905092915050565b6000819050602082019050919050565b612b36816123c9565b82525050565b6000612b488383612b2d565b60208301905092915050565b6000602082019050919050565b6000612b6c82612b01565b612b768185612b0c565b9350612b8183612b1d565b8060005b83811015612bb2578151612b998882612b3c565b9750612ba483612b54565b925050600181019050612b85565b5085935050505092915050565b60006020820190508181036000830152612bd98184612b61565b905092915050565b60008060408385031215612bf857612bf7612361565b5b6000612c0685828601612624565b9250506020612c17858286016123ea565b9150509250929050565b612c2a816124ee565b8114612c3557600080fd5b50565b600081359050612c4781612c21565b92915050565b60008060408385031215612c6457612c63612361565b5b6000612c72858286016123b4565b9250506020612c8385828601612c38565b9150509250929050565b60008060408385031215612ca457612ca3612361565b5b6000612cb2858286016123b4565b9250506020612cc3858286016123b4565b9150509250929050565b600060208284031215612ce357612ce2612361565b5b6000612cf1848285016123b4565b91505092915050565b600080600080600060a08688031215612d1657612d15612361565b5b6000612d24888289016123b4565b9550506020612d35888289016123b4565b9450506040612d46888289016123ea565b9350506060612d57888289016123ea565b925050608086013567ffffffffffffffff811115612d7857612d77612366565b5b612d848882890161285f565b9150509295509295909350565b600067ffffffffffffffff821115612dac57612dab612695565b5b612db582612597565b9050602081019050919050565b6000612dd5612dd084612d91565b6126f5565b905082815260208101848484011115612df157612df06127d8565b5b612dfc84828561280e565b509392505050565b600082601f830112612e1957612e18612690565b5b8135612e29848260208601612dc2565b91505092915050565b600060208284031215612e4857612e47612361565b5b600082013567ffffffffffffffff811115612e6657612e65612366565b5b612e7284828501612e04565b91505092915050565b7f455243313135353a2061646472657373207a65726f206973206e6f742061207660008201527f616c6964206f776e657200000000000000000000000000000000000000000000602082015250565b6000612ed7602a8361255c565b9150612ee282612e7b565b604082019050919050565b60006020820190508181036000830152612f0681612eca565b9050919050565b7f4e487b7100000000000000000000000000000000000000000000000000000000600052602260045260246000fd5b60006002820490506001821680612f5457607f821691505b602082108103612f6757612f66612f0d565b5b50919050565b7f455243313135353a2063616c6c6572206973206e6f7420746f6b656e206f776e60008201527f6572206f7220617070726f766564000000000000000000000000000000000000602082015250565b6000612fc9602e8361255c565b9150612fd482612f6d565b604082019050919050565b60006020820190508181036000830152612ff881612fbc565b9050919050565b7f416363657373436f6e74726f6c3a2063616e206f6e6c792072656e6f756e636560008201527f20726f6c657320666f722073656c660000000000000000000000000000000000602082015250565b600061305b602f8361255c565b915061306682612fff565b604082019050919050565b6000602082019050818103600083015261308a8161304e565b9050919050565b7f455243313135353a206163636f756e747320616e6420696473206c656e67746860008201527f206d69736d617463680000000000000000000000000000000000000000000000602082015250565b60006130ed60298361255c565b91506130f882613091565b604082019050919050565b6000602082019050818103600083015261311c816130e0565b9050919050565b7f4e487b7100000000000000000000000000000000000000000000000000000000600052603260045260246000fd5b7f4e487b7100000000000000000000000000000000000000000000000000000000600052601160045260246000fd5b600061318c826123c9565b91507fffffffffffffffffffffffffffffffffffffffffffffffffffffffffffffffff82036131be576131bd613152565b5b600182019050919050565b7f455243313135353a2069647320616e6420616d6f756e7473206c656e6774682060008201527f6d69736d61746368000000000000000000000000000000000000000000000000602082015250565b600061322560288361255c565b9150613230826131c9565b604082019050919050565b6000602082019050818103600083015261325481613218565b9050919050565b7f455243313135353a207472616e7366657220746f20746865207a65726f20616460008201527f6472657373000000000000000000000000000000000000000000000000000000602082015250565b60006132b760258361255c565b91506132c28261325b565b604082019050919050565b600060208201905081810360008301526132e6816132aa565b9050919050565b7f455243313135353a20696e73756666696369656e742062616c616e636520666f60008201527f72207472616e7366657200000000000000000000000000000000000000000000602082015250565b6000613349602a8361255c565b9150613354826132ed565b604082019050919050565b600060208201905081810360008301526133788161333c565b9050919050565b600061338a826123c9565b9150613395836123c9565b92508282019050808211156133ad576133ac613152565b5b92915050565b600060408201905081810360008301526133cd8185612b61565b905081810360208301526133e18184612b61565b90509392505050565b7f455243313135353a2073657474696e6720617070726f76616c2073746174757360008201527f20666f722073656c660000000000000000000000000000000000000000000000602082015250565b600061344660298361255c565b9150613451826133ea565b604082019050919050565b6000602082019050818103600083015261347581613439565b9050919050565b7f455243313135353a206d696e7420746f20746865207a65726f2061646472657360008201527f7300000000000000000000000000000000000000000000000000000000000000602082015250565b60006134d860218361255c565b91506134e38261347c565b604082019050919050565b60006020820190508181036000830152613507816134cb565b9050919050565b6000604082019050613523600083018561243f565b613530602083018461243f565b9392505050565b600081519050919050565b600082825260208201905092915050565b600061355e82613537565b6135688185613542565b935061357881856020860161256d565b61358181612597565b840191505092915050565b600060a0820190506135a1600083018861299c565b6135ae602083018761299c565b81810360408301526135c08186612b61565b905081810360608301526135d48185612b61565b905081810360808301526135e88184613553565b90509695505050505050565b60008151905061360381612495565b92915050565b60006020828403121561361f5761361e612361565b5b600061362d848285016135f4565b91505092915050565b60008160e01c9050919050565b600060033d11156136625760046000803e61365f600051613636565b90505b90565b600060443d106136f257613677612357565b60043d036004823e80513d602482011167ffffffffffffffff8211171561369f5750506136f2565b808201805167ffffffffffffffff8111156136bd57505050506136f2565b80602083010160043d0385018111156136da5750505050506136f2565b6136e9826020018501866126c4565b82955050505050505b90565b7f455243313135353a207472616e7366657220746f206e6f6e2d4552433131353560008201527f526563656976657220696d706c656d656e746572000000000000000000000000602082015250565b600061375160348361255c565b915061375c826136f5565b604082019050919050565b6000602082019050818103600083015261378081613744565b9050919050565b7f455243313135353a204552433131353552656365697665722072656a6563746560008201527f6420746f6b656e73000000000000000000000000000000000000000000000000602082015250565b60006137e360288361255c565b91506137ee82613787565b604082019050919050565b60006020820190508181036000830152613812816137d6565b9050919050565b600081905092915050565b7f416363657373436f6e74726f6c3a206163636f756e7420000000000000000000600082015250565b600061385a601783613819565b915061386582613824565b601782019050919050565b600061387b82612551565b6138858185613819565b935061389581856020860161256d565b80840191505092915050565b7f206973206d697373696e6720726f6c6520000000000000000000000000000000600082015250565b60006138d7601183613819565b91506138e2826138a1565b601182019050919050565b60006138f88261384d565b91506139048285613870565b915061390f826138ca565b915061391b8284613870565b91508190509392505050565b600060a08201905061393c600083018861299c565b613949602083018761299c565b613956604083018661243f565b613963606083018561243f565b81810360808301526139758184613553565b90509695505050505050565b600061398c826123c9565b9150613997836123c9565b92508282026139a5816123c9565b915082820484148315176139bc576139bb613152565b5b5092915050565b60006139ce826123c9565b9150600082036139e1576139e0613152565b5b600182039050919050565b7f537472696e67733a20686578206c656e67746820696e73756666696369656e74600082015250565b6000613a2260208361255c565b9150613a2d826139ec565b602082019050919050565b60006020820190508181036000830152613a5181613a15565b9050919050565b6000613a63826123c9565b9150613a6e836123c9565b9250828203905081811115613a8657613a85613152565b5b92915050565b7f4e487b7100000000000000000000000000000000000000000000000000000000600052603160045260246000fdfea26469706673582212204211e203b84f39d15386117b821d7fecd72f9d6a2701bd0dd0db18141b15b1b164736f6c63430008130033",
  "linkReferences": {},
  "deployedLinkReferences": {}
}