{
  "_format": "hh-sol-artifact-1",
  "contractName": "VotingContract",
  "sourceName": "contracts/VotingContract .sol",
  "abi": [
    {
      "inputs": [
        {
          "internalType": "address payable",
          "name": "_vaultAddress",
          "type": "address"
        },
        {
          "internalType": "address",
          "name": "ottiAddress",
          "type": "address"
        }
      ],
      "stateMutability": "nonpayable",
      "type": "constructor"
    },
    {
      "inputs": [],
      "name": "amountZero",
      "type": "error"
    },
    {
      "inputs": [],
      "name": "ethNotSent",
      "type": "error"
    },
    {
      "inputs": [],
      "name": "proposalNotValid",
      "type": "error"
    },
    {
      "inputs": [],
      "name": "timeElapsed",
      "type": "error"
    },
    {
      "inputs": [],
      "name": "timeNotElapsed",
      "type": "error"
    },
    {
      "inputs": [],
      "name": "voted",
      "type": "error"
    },
    {
      "inputs": [],
      "name": "votingNotClosed",
      "type": "error"
    },
    {
      "anonymous": false,
      "inputs": [
        {
          "indexed": true,
          "internalType": "address",
          "name": "previousOwner",
          "type": "address"
        },
        {
          "indexed": true,
          "internalType": "address",
          "name": "newOwner",
          "type": "address"
        }
      ],
      "name": "OwnershipTransferred",
      "type": "event"
    },
    {
      "anonymous": false,
      "inputs": [
        {
          "indexed": true,
          "internalType": "uint256",
          "name": "proposalId",
          "type": "uint256"
        },
        {
          "indexed": true,
          "internalType": "address",
          "name": "voter",
          "type": "address"
        }
      ],
      "name": "Vote",
      "type": "event"
    },
    {
      "anonymous": false,
      "inputs": [
        {
          "indexed": false,
          "internalType": "uint256",
          "name": "winningProposalId",
          "type": "uint256"
        },
        {
          "indexed": false,
          "internalType": "uint256",
          "name": "winningProposalVotes",
          "type": "uint256"
        }
      ],
      "name": "VotingClosed",
      "type": "event"
    },
    {
      "inputs": [
        {
          "internalType": "bytes32",
          "name": "name",
          "type": "bytes32"
        }
      ],
      "name": "addProposal",
      "outputs": [],
      "stateMutability": "nonpayable",
      "type": "function"
    },
    {
      "inputs": [
        {
          "internalType": "uint256",
          "name": "",
          "type": "uint256"
        }
      ],
      "name": "addressRegistered",
      "outputs": [
        {
          "internalType": "address",
          "name": "",
          "type": "address"
        }
      ],
      "stateMutability": "view",
      "type": "function"
    },
    {
      "inputs": [],
      "name": "closeVoting",
      "outputs": [],
      "stateMutability": "nonpayable",
      "type": "function"
    },
    {
      "inputs": [],
      "name": "donationAmount",
      "outputs": [
        {
          "internalType": "uint256",
          "name": "",
          "type": "uint256"
        }
      ],
      "stateMutability": "view",
      "type": "function"
    },
    {
      "inputs": [],
      "name": "donationGoal",
      "outputs": [
        {
          "internalType": "uint256",
          "name": "",
          "type": "uint256"
        }
      ],
      "stateMutability": "view",
      "type": "function"
    },
    {
      "inputs": [
        {
          "internalType": "uint256",
          "name": "_votingEndTime",
          "type": "uint256"
        },
        {
          "internalType": "uint256",
          "name": "_donationGoal",
          "type": "uint256"
        },
        {
          "internalType": "bytes32[]",
          "name": "proposalNames",
          "type": "bytes32[]"
        }
      ],
      "name": "initVoting",
      "outputs": [],
      "stateMutability": "nonpayable",
      "type": "function"
    },
    {
      "inputs": [],
      "name": "isVotingClosed",
      "outputs": [
        {
          "internalType": "bool",
          "name": "",
          "type": "bool"
        }
      ],
      "stateMutability": "view",
      "type": "function"
    },
    {
      "inputs": [],
      "name": "latestWinner",
      "outputs": [
        {
          "internalType": "bytes32",
          "name": "name",
          "type": "bytes32"
        },
        {
          "internalType": "uint256",
          "name": "weidhtedVotes",
          "type": "uint256"
        }
      ],
      "stateMutability": "view",
      "type": "function"
    },
    {
      "inputs": [],
      "name": "ottiToken",
      "outputs": [
        {
          "internalType": "address",
          "name": "",
          "type": "address"
        }
      ],
      "stateMutability": "view",
      "type": "function"
    },
    {
      "inputs": [],
      "name": "owner",
      "outputs": [
        {
          "internalType": "address",
          "name": "",
          "type": "address"
        }
      ],
      "stateMutability": "view",
      "type": "function"
    },
    {
      "inputs": [
        {
          "internalType": "uint256",
          "name": "",
          "type": "uint256"
        }
      ],
      "name": "proposals",
      "outputs": [
        {
          "internalType": "bytes32",
          "name": "name",
          "type": "bytes32"
        },
        {
          "internalType": "uint256",
          "name": "weidhtedVotes",
          "type": "uint256"
        }
      ],
      "stateMutability": "view",
      "type": "function"
    },
    {
      "inputs": [],
      "name": "renounceOwnership",
      "outputs": [],
      "stateMutability": "nonpayable",
      "type": "function"
    },
    {
      "inputs": [
        {
          "internalType": "address",
          "name": "newOwner",
          "type": "address"
        }
      ],
      "name": "transferOwnership",
      "outputs": [],
      "stateMutability": "nonpayable",
      "type": "function"
    },
    {
      "inputs": [
        {
          "internalType": "uint256",
          "name": "proposalId",
          "type": "uint256"
        }
      ],
      "name": "vote",
      "outputs": [],
      "stateMutability": "payable",
      "type": "function"
    },
    {
      "inputs": [],
      "name": "votingEndTime",
      "outputs": [
        {
          "internalType": "uint256",
          "name": "",
          "type": "uint256"
        }
      ],
      "stateMutability": "view",
      "type": "function"
    },
    {
      "inputs": [],
      "name": "winningProposalId",
      "outputs": [
        {
          "internalType": "uint256",
          "name": "",
          "type": "uint256"
        }
      ],
      "stateMutability": "view",
      "type": "function"
    },
    {
      "inputs": [],
      "name": "winningProposalVotes",
      "outputs": [
        {
          "internalType": "uint256",
          "name": "",
          "type": "uint256"
        }
      ],
      "stateMutability": "view",
      "type": "function"
    },
    {
      "inputs": [
        {
          "internalType": "address payable",
          "name": "to",
          "type": "address"
        },
        {
          "internalType": "uint256",
          "name": "amount",
          "type": "uint256"
        }
      ],
      "name": "withdrawDonations",
      "outputs": [],
      "stateMutability": "nonpayable",
      "type": "function"
    }
  ],
  "bytecode": "0x60806040523480156200001157600080fd5b506040516200204d3803806200204d833981810160405281019062000037919062000277565b620000576200004b620000fc60201b60201c565b6200010460201b60201c565b81600960006101000a81548173ffffffffffffffffffffffffffffffffffffffff021916908373ffffffffffffffffffffffffffffffffffffffff1602179055506001600460006101000a81548160ff02191690831515021790555080600d60006101000a81548173ffffffffffffffffffffffffffffffffffffffff021916908373ffffffffffffffffffffffffffffffffffffffff1602179055505050620002be565b600033905090565b60008060009054906101000a900473ffffffffffffffffffffffffffffffffffffffff169050816000806101000a81548173ffffffffffffffffffffffffffffffffffffffff021916908373ffffffffffffffffffffffffffffffffffffffff1602179055508173ffffffffffffffffffffffffffffffffffffffff168173ffffffffffffffffffffffffffffffffffffffff167f8be0079c531659141344cd1fd0a4f28419497f9722a3daafe3b4186f6b6457e060405160405180910390a35050565b600080fd5b600073ffffffffffffffffffffffffffffffffffffffff82169050919050565b6000620001fa82620001cd565b9050919050565b6200020c81620001ed565b81146200021857600080fd5b50565b6000815190506200022c8162000201565b92915050565b60006200023f82620001cd565b9050919050565b620002518162000232565b81146200025d57600080fd5b50565b600081519050620002718162000246565b92915050565b60008060408385031215620002915762000290620001c8565b5b6000620002a1858286016200021b565b9250506020620002b48582860162000260565b9150509250929050565b611d7f80620002ce6000396000f3fe6080604052600436106101095760003560e01c806345825c58116100955780637d2f7190116100645780637d2f71901461033a5780638da5cb5b14610365578063c631b29214610390578063c64963c5146103a7578063f2fde38b146103d257610109565b806345825c58146102a45780634bed6c23146102cf5780635ab08f00146102fa578063715018a61461032357610109565b806306efe3b0116100dc57806306efe3b0146101bf57806317162df9146101e85780631ea736e0146102255780632199456e146102505780633f1b40811461027957610109565b80630121b93f1461010e578063013cf08b1461012a578063068781da1461016857806306ef53e014610193575b600080fd5b61012860048036038101906101239190611341565b6103fb565b005b34801561013657600080fd5b50610151600480360381019061014c9190611341565b610708565b60405161015f929190611396565b60405180910390f35b34801561017457600080fd5b5061017d61073c565b60405161018a9190611400565b60405180910390f35b34801561019f57600080fd5b506101a8610762565b6040516101b6929190611396565b60405180910390f35b3480156101cb57600080fd5b506101e660048036038101906101e19190611447565b610774565b005b3480156101f457600080fd5b5061020f600480360381019061020a9190611341565b6107d6565b60405161021c9190611400565b60405180910390f35b34801561023157600080fd5b5061023a610815565b6040516102479190611474565b60405180910390f35b34801561025c57600080fd5b50610277600480360381019061027291906115e8565b61081b565b005b34801561028557600080fd5b5061028e610943565b60405161029b9190611474565b60405180910390f35b3480156102b057600080fd5b506102b9610949565b6040516102c69190611672565b60405180910390f35b3480156102db57600080fd5b506102e461095c565b6040516102f19190611474565b60405180910390f35b34801561030657600080fd5b50610321600480360381019061031c91906116cb565b610962565b005b34801561032f57600080fd5b50610338610a43565b005b34801561034657600080fd5b5061034f610a57565b60405161035c9190611474565b60405180910390f35b34801561037157600080fd5b5061037a610a5d565b6040516103879190611400565b60405180910390f35b34801561039c57600080fd5b506103a5610a86565b005b3480156103b357600080fd5b506103bc610b2b565b6040516103c99190611474565b60405180910390f35b3480156103de57600080fd5b506103f960048036038101906103f49190611737565b610b31565b005b600154421115610437576040517fdc2cf3f500000000000000000000000000000000000000000000000000000000815260040160405180910390fd5b60003403610471576040517fbcb27c3e00000000000000000000000000000000000000000000000000000000815260040160405180910390fd5b600c60003373ffffffffffffffffffffffffffffffffffffffff1673ffffffffffffffffffffffffffffffffffffffff16815260200190815260200160002060020160009054906101000a900460ff16156104f8576040517f3500f91e00000000000000000000000000000000000000000000000000000000815260040160405180910390fd5b600a805490508111801561051157506000600a80549050145b15610548576040517ff87f8f6200000000000000000000000000000000000000000000000000000000815260040160405180910390fd5b6000349050806003600082825461055f9190611793565b9250508190555061056f81610bb4565b6000600a8261057e91906117f6565b90506105ad600d60009054906101000a900473ffffffffffffffffffffffffffffffffffffffff163383610c7d565b600b339080600181540180825580915050600190039060005260206000200160009091909190916101000a81548173ffffffffffffffffffffffffffffffffffffffff021916908373ffffffffffffffffffffffffffffffffffffffff1602179055506000600c60003373ffffffffffffffffffffffffffffffffffffffff1673ffffffffffffffffffffffffffffffffffffffff168152602001908152602001600020905083816000018190555082816001018190555060018160020160006101000a81548160ff02191690831515021790555082600a858154811061069757610696611827565b5b906000526020600020906002020160010160008282546106b79190611793565b925050819055503373ffffffffffffffffffffffffffffffffffffffff16847f10a412bf229fbac2408912cb271b8ff9eb39eb72da91dd0c8accab0fb101113560405160405180910390a350505050565b600a818154811061071857600080fd5b90600052602060002090600202016000915090508060000154908060010154905082565b600d60009054906101000a900473ffffffffffffffffffffffffffffffffffffffff1681565b60078060000154908060010154905082565b61077c610d03565b600a6040518060400160405280838152602001600081525090806001815401808255809150506001900390600052602060002090600202016000909190919091506000820151816000015560208201518160010155505050565b600b81815481106107e657600080fd5b906000526020600020016000915054906101000a900473ffffffffffffffffffffffffffffffffffffffff1681565b60015481565b610823610d03565b600460009054906101000a900460ff16610869576040517fc9c6a7d800000000000000000000000000000000000000000000000000000000815260040160405180910390fd5b610871610d81565b610879610e72565b42836108859190611793565b6001819055508160028190555060005b815181101561092257600a60405180604001604052808484815181106108be576108bd611827565b5b602002602001015181526020016000815250908060018154018082558091505060019003906000526020600020906002020160009091909190915060008201518160000155602082015181600101555050808061091a90611856565b915050610895565b506000600460006101000a81548160ff021916908315150217905550505050565b60065481565b600460009054906101000a900460ff1681565b60035481565b61096a610d03565b600460009054906101000a900460ff166109b0576040517fc9c6a7d800000000000000000000000000000000000000000000000000000000815260040160405180910390fd5b600960009054906101000a900473ffffffffffffffffffffffffffffffffffffffff1673ffffffffffffffffffffffffffffffffffffffff1663f3fef3a383836040518363ffffffff1660e01b8152600401610a0d9291906118ad565b600060405180830381600087803b158015610a2757600080fd5b505af1158015610a3b573d6000803e3d6000fd5b505050505050565b610a4b610d03565b610a556000610e82565b565b60025481565b60008060009054906101000a900473ffffffffffffffffffffffffffffffffffffffff16905090565b610a8e610d03565b6001544211610ac9576040517f851f071500000000000000000000000000000000000000000000000000000000815260040160405180910390fd5b610ad1610f46565b6001600460006101000a81548160ff0219169083151502179055507faff28777f2409f4b37134d80d0e47af000be7515d291c576b1412337f3eeb653600554600654604051610b219291906118d6565b60405180910390a1565b60055481565b610b39610d03565b600073ffffffffffffffffffffffffffffffffffffffff168173ffffffffffffffffffffffffffffffffffffffff1603610ba8576040517f08c379a0000000000000000000000000000000000000000000000000000000008152600401610b9f90611982565b60405180910390fd5b610bb181610e82565b50565b6000600960009054906101000a900473ffffffffffffffffffffffffffffffffffffffff1673ffffffffffffffffffffffffffffffffffffffff1682604051610bfc906119d3565b60006040518083038185875af1925050503d8060008114610c39576040519150601f19603f3d011682016040523d82523d6000602084013e610c3e565b606091505b5050905080610c79576040517f043deed500000000000000000000000000000000000000000000000000000000815260040160405180910390fd5b5050565b610cfe8363a9059cbb60e01b8484604051602401610c9c9291906119e8565b604051602081830303815290604052907bffffffffffffffffffffffffffffffffffffffffffffffffffffffff19166020820180517bffffffffffffffffffffffffffffffffffffffffffffffffffffffff838183161783525050505061100f565b505050565b610d0b6110d7565b73ffffffffffffffffffffffffffffffffffffffff16610d29610a5d565b73ffffffffffffffffffffffffffffffffffffffff1614610d7f576040517f08c379a0000000000000000000000000000000000000000000000000000000008152600401610d7690611a5d565b60405180910390fd5b565b60005b600b80549050811015610e6f576000600c6000600b8481548110610dab57610daa611827565b5b9060005260206000200160009054906101000a900473ffffffffffffffffffffffffffffffffffffffff1673ffffffffffffffffffffffffffffffffffffffff1673ffffffffffffffffffffffffffffffffffffffff16815260200190815260200160002090508060020160009054906101000a900460ff1615610e5b5760008160020160006101000a81548160ff02191690831515021790555060008160010181905550600081600001819055505b508080610e6790611856565b915050610d84565b50565b600a6000610e8091906112ac565b565b60008060009054906101000a900473ffffffffffffffffffffffffffffffffffffffff169050816000806101000a81548173ffffffffffffffffffffffffffffffffffffffff021916908373ffffffffffffffffffffffffffffffffffffffff1602179055508173ffffffffffffffffffffffffffffffffffffffff168173ffffffffffffffffffffffffffffffffffffffff167f8be0079c531659141344cd1fd0a4f28419497f9722a3daafe3b4186f6b6457e060405160405180910390a35050565b6000805b600a80549050811015610fce5781600a8281548110610f6c57610f6b611827565b5b9060005260206000209060020201600101541115610fbb57600a8181548110610f9857610f97611827565b5b906000526020600020906002020160010154915080600581905550816006819055505b8080610fc690611856565b915050610f4a565b50600a60055481548110610fe557610fe4611827565b5b90600052602060002090600202016007600082015481600001556001820154816001015590505050565b6000611071826040518060400160405280602081526020017f5361666545524332303a206c6f772d6c6576656c2063616c6c206661696c65648152508573ffffffffffffffffffffffffffffffffffffffff166110df9092919063ffffffff16565b90506000815114806110935750808060200190518101906110929190611aa9565b5b6110d2576040517f08c379a00000000000000000000000000000000000000000000000000000000081526004016110c990611b48565b60405180910390fd5b505050565b600033905090565b60606110ee84846000856110f7565b90509392505050565b60608247101561113c576040517f08c379a000000000000000000000000000000000000000000000000000000000815260040161113390611bda565b60405180910390fd5b6000808673ffffffffffffffffffffffffffffffffffffffff1685876040516111659190611c60565b60006040518083038185875af1925050503d80600081146111a2576040519150601f19603f3d011682016040523d82523d6000602084013e6111a7565b606091505b50915091506111b8878383876111c4565b92505050949350505050565b6060831561122657600083510361121e576111de85611239565b61121d576040517f08c379a000000000000000000000000000000000000000000000000000000000815260040161121490611cc3565b60405180910390fd5b5b829050611231565b611230838361125c565b5b949350505050565b6000808273ffffffffffffffffffffffffffffffffffffffff163b119050919050565b60008251111561126f5781518083602001fd5b806040517f08c379a00000000000000000000000000000000000000000000000000000000081526004016112a39190611d27565b60405180910390fd5b50805460008255600202906000526020600020908101906112cd91906112d0565b50565b5b808211156112f3576000808201600090556001820160009055506002016112d1565b5090565b6000604051905090565b600080fd5b600080fd5b6000819050919050565b61131e8161130b565b811461132957600080fd5b50565b60008135905061133b81611315565b92915050565b60006020828403121561135757611356611301565b5b60006113658482850161132c565b91505092915050565b6000819050919050565b6113818161136e565b82525050565b6113908161130b565b82525050565b60006040820190506113ab6000830185611378565b6113b86020830184611387565b9392505050565b600073ffffffffffffffffffffffffffffffffffffffff82169050919050565b60006113ea826113bf565b9050919050565b6113fa816113df565b82525050565b600060208201905061141560008301846113f1565b92915050565b6114248161136e565b811461142f57600080fd5b50565b6000813590506114418161141b565b92915050565b60006020828403121561145d5761145c611301565b5b600061146b84828501611432565b91505092915050565b60006020820190506114896000830184611387565b92915050565b600080fd5b6000601f19601f8301169050919050565b7f4e487b7100000000000000000000000000000000000000000000000000000000600052604160045260246000fd5b6114dd82611494565b810181811067ffffffffffffffff821117156114fc576114fb6114a5565b5b80604052505050565b600061150f6112f7565b905061151b82826114d4565b919050565b600067ffffffffffffffff82111561153b5761153a6114a5565b5b602082029050602081019050919050565b600080fd5b600061156461155f84611520565b611505565b905080838252602082019050602084028301858111156115875761158661154c565b5b835b818110156115b0578061159c8882611432565b845260208401935050602081019050611589565b5050509392505050565b600082601f8301126115cf576115ce61148f565b5b81356115df848260208601611551565b91505092915050565b60008060006060848603121561160157611600611301565b5b600061160f8682870161132c565b93505060206116208682870161132c565b925050604084013567ffffffffffffffff81111561164157611640611306565b5b61164d868287016115ba565b9150509250925092565b60008115159050919050565b61166c81611657565b82525050565b60006020820190506116876000830184611663565b92915050565b6000611698826113bf565b9050919050565b6116a88161168d565b81146116b357600080fd5b50565b6000813590506116c58161169f565b92915050565b600080604083850312156116e2576116e1611301565b5b60006116f0858286016116b6565b92505060206117018582860161132c565b9150509250929050565b611714816113df565b811461171f57600080fd5b50565b6000813590506117318161170b565b92915050565b60006020828403121561174d5761174c611301565b5b600061175b84828501611722565b91505092915050565b7f4e487b7100000000000000000000000000000000000000000000000000000000600052601160045260246000fd5b600061179e8261130b565b91506117a98361130b565b92508282019050808211156117c1576117c0611764565b5b92915050565b7f4e487b7100000000000000000000000000000000000000000000000000000000600052601260045260246000fd5b60006118018261130b565b915061180c8361130b565b92508261181c5761181b6117c7565b5b828204905092915050565b7f4e487b7100000000000000000000000000000000000000000000000000000000600052603260045260246000fd5b60006118618261130b565b91507fffffffffffffffffffffffffffffffffffffffffffffffffffffffffffffffff820361189357611892611764565b5b600182019050919050565b6118a78161168d565b82525050565b60006040820190506118c2600083018561189e565b6118cf6020830184611387565b9392505050565b60006040820190506118eb6000830185611387565b6118f86020830184611387565b9392505050565b600082825260208201905092915050565b7f4f776e61626c653a206e6577206f776e657220697320746865207a65726f206160008201527f6464726573730000000000000000000000000000000000000000000000000000602082015250565b600061196c6026836118ff565b915061197782611910565b604082019050919050565b6000602082019050818103600083015261199b8161195f565b9050919050565b600081905092915050565b50565b60006119bd6000836119a2565b91506119c8826119ad565b600082019050919050565b60006119de826119b0565b9150819050919050565b60006040820190506119fd60008301856113f1565b611a0a6020830184611387565b9392505050565b7f4f776e61626c653a2063616c6c6572206973206e6f7420746865206f776e6572600082015250565b6000611a476020836118ff565b9150611a5282611a11565b602082019050919050565b60006020820190508181036000830152611a7681611a3a565b9050919050565b611a8681611657565b8114611a9157600080fd5b50565b600081519050611aa381611a7d565b92915050565b600060208284031215611abf57611abe611301565b5b6000611acd84828501611a94565b91505092915050565b7f5361666545524332303a204552433230206f7065726174696f6e20646964206e60008201527f6f74207375636365656400000000000000000000000000000000000000000000602082015250565b6000611b32602a836118ff565b9150611b3d82611ad6565b604082019050919050565b60006020820190508181036000830152611b6181611b25565b9050919050565b7f416464726573733a20696e73756666696369656e742062616c616e636520666f60008201527f722063616c6c0000000000000000000000000000000000000000000000000000602082015250565b6000611bc46026836118ff565b9150611bcf82611b68565b604082019050919050565b60006020820190508181036000830152611bf381611bb7565b9050919050565b600081519050919050565b60005b83811015611c23578082015181840152602081019050611c08565b60008484015250505050565b6000611c3a82611bfa565b611c4481856119a2565b9350611c54818560208601611c05565b80840191505092915050565b6000611c6c8284611c2f565b915081905092915050565b7f416464726573733a2063616c6c20746f206e6f6e2d636f6e7472616374000000600082015250565b6000611cad601d836118ff565b9150611cb882611c77565b602082019050919050565b60006020820190508181036000830152611cdc81611ca0565b9050919050565b600081519050919050565b6000611cf982611ce3565b611d0381856118ff565b9350611d13818560208601611c05565b611d1c81611494565b840191505092915050565b60006020820190508181036000830152611d418184611cee565b90509291505056fea2646970667358221220da269d730090ed28e21a480ea0c837a0088e545f42ad750b224128558dc9685964736f6c63430008130033",
  "linkReferences": {},
  "deployedLinkReferences": {}
}