{
  "_format": "hh-sol-artifact-1",
  "contractName": "VotingContract",
  "sourceName": "contracts/VotingContract .sol",
  "abi": [
    {
      "inputs": [
        {
          "internalType": "address payable",
          "name": "_vaultAddress",
          "type": "address"
        },
        {
          "internalType": "uint256",
          "name": "_votingEndTime",
          "type": "uint256"
        },
        {
          "internalType": "uint256",
          "name": "_donationGoal",
          "type": "uint256"
        }
      ],
      "stateMutability": "nonpayable",
      "type": "constructor"
    },
    {
      "inputs": [],
      "name": "amountZero",
      "type": "error"
    },
    {
      "inputs": [],
      "name": "ethNotSent",
      "type": "error"
    },
    {
      "inputs": [],
      "name": "proposalNotValid",
      "type": "error"
    },
    {
      "inputs": [],
      "name": "timeElapsed",
      "type": "error"
    },
    {
      "inputs": [],
      "name": "timeNotElapsed",
      "type": "error"
    },
    {
      "inputs": [],
      "name": "votingClosed",
      "type": "error"
    },
    {
      "inputs": [],
      "name": "votingNotClosed",
      "type": "error"
    },
    {
      "anonymous": false,
      "inputs": [
        {
          "indexed": true,
          "internalType": "address",
          "name": "previousOwner",
          "type": "address"
        },
        {
          "indexed": true,
          "internalType": "address",
          "name": "newOwner",
          "type": "address"
        }
      ],
      "name": "OwnershipTransferred",
      "type": "event"
    },
    {
      "anonymous": false,
      "inputs": [
        {
          "indexed": true,
          "internalType": "uint256",
          "name": "proposalId",
          "type": "uint256"
        },
        {
          "indexed": true,
          "internalType": "address",
          "name": "voter",
          "type": "address"
        }
      ],
      "name": "Vote",
      "type": "event"
    },
    {
      "anonymous": false,
      "inputs": [
        {
          "indexed": false,
          "internalType": "uint256",
          "name": "winningProposalId",
          "type": "uint256"
        },
        {
          "indexed": false,
          "internalType": "uint256",
          "name": "winningProposalVotes",
          "type": "uint256"
        }
      ],
      "name": "VotingClosed",
      "type": "event"
    },
    {
      "inputs": [
        {
          "internalType": "string",
          "name": "name",
          "type": "string"
        }
      ],
      "name": "addProposal",
      "outputs": [],
      "stateMutability": "nonpayable",
      "type": "function"
    },
    {
      "inputs": [],
      "name": "closeVoting",
      "outputs": [],
      "stateMutability": "nonpayable",
      "type": "function"
    },
    {
      "inputs": [],
      "name": "donationGoal",
      "outputs": [
        {
          "internalType": "uint256",
          "name": "",
          "type": "uint256"
        }
      ],
      "stateMutability": "view",
      "type": "function"
    },
    {
      "inputs": [],
      "name": "isVotingClosed",
      "outputs": [
        {
          "internalType": "bool",
          "name": "",
          "type": "bool"
        }
      ],
      "stateMutability": "view",
      "type": "function"
    },
    {
      "inputs": [],
      "name": "owner",
      "outputs": [
        {
          "internalType": "address",
          "name": "",
          "type": "address"
        }
      ],
      "stateMutability": "view",
      "type": "function"
    },
    {
      "inputs": [
        {
          "internalType": "uint256",
          "name": "",
          "type": "uint256"
        }
      ],
      "name": "proposals",
      "outputs": [
        {
          "internalType": "string",
          "name": "name",
          "type": "string"
        },
        {
          "internalType": "uint256",
          "name": "votes",
          "type": "uint256"
        }
      ],
      "stateMutability": "view",
      "type": "function"
    },
    {
      "inputs": [],
      "name": "proposalsCount",
      "outputs": [
        {
          "internalType": "uint256",
          "name": "",
          "type": "uint256"
        }
      ],
      "stateMutability": "view",
      "type": "function"
    },
    {
      "inputs": [],
      "name": "renounceOwnership",
      "outputs": [],
      "stateMutability": "nonpayable",
      "type": "function"
    },
    {
      "inputs": [
        {
          "internalType": "address",
          "name": "newOwner",
          "type": "address"
        }
      ],
      "name": "transferOwnership",
      "outputs": [],
      "stateMutability": "nonpayable",
      "type": "function"
    },
    {
      "inputs": [
        {
          "internalType": "uint256",
          "name": "proposalId",
          "type": "uint256"
        }
      ],
      "name": "vote",
      "outputs": [],
      "stateMutability": "payable",
      "type": "function"
    },
    {
      "inputs": [],
      "name": "votingEndTime",
      "outputs": [
        {
          "internalType": "uint256",
          "name": "",
          "type": "uint256"
        }
      ],
      "stateMutability": "view",
      "type": "function"
    },
    {
      "inputs": [],
      "name": "winningProposalId",
      "outputs": [
        {
          "internalType": "uint256",
          "name": "",
          "type": "uint256"
        }
      ],
      "stateMutability": "view",
      "type": "function"
    },
    {
      "inputs": [],
      "name": "winningProposalVotes",
      "outputs": [
        {
          "internalType": "uint256",
          "name": "",
          "type": "uint256"
        }
      ],
      "stateMutability": "view",
      "type": "function"
    },
    {
      "inputs": [
        {
          "internalType": "address payable",
          "name": "to",
          "type": "address"
        },
        {
          "internalType": "uint256",
          "name": "amount",
          "type": "uint256"
        }
      ],
      "name": "withdrawDonations",
      "outputs": [],
      "stateMutability": "nonpayable",
      "type": "function"
    }
  ],
  "bytecode": "0x60806040523480156200001157600080fd5b506040516200173e3803806200173e833981810160405281019062000037919062000243565b620000576200004b620000d260201b60201c565b620000da60201b60201c565b82600760006101000a81548173ffffffffffffffffffffffffffffffffffffffff021916908373ffffffffffffffffffffffffffffffffffffffff16021790555081600181905550806002819055506000600360006101000a81548160ff02191690831515021790555060006006819055505050506200029f565b600033905090565b60008060009054906101000a900473ffffffffffffffffffffffffffffffffffffffff169050816000806101000a81548173ffffffffffffffffffffffffffffffffffffffff021916908373ffffffffffffffffffffffffffffffffffffffff1602179055508173ffffffffffffffffffffffffffffffffffffffff168173ffffffffffffffffffffffffffffffffffffffff167f8be0079c531659141344cd1fd0a4f28419497f9722a3daafe3b4186f6b6457e060405160405180910390a35050565b600080fd5b600073ffffffffffffffffffffffffffffffffffffffff82169050919050565b6000620001d082620001a3565b9050919050565b620001e281620001c3565b8114620001ee57600080fd5b50565b6000815190506200020281620001d7565b92915050565b6000819050919050565b6200021d8162000208565b81146200022957600080fd5b50565b6000815190506200023d8162000212565b92915050565b6000806000606084860312156200025f576200025e6200019e565b5b60006200026f86828701620001f1565b935050602062000282868287016200022c565b925050604062000295868287016200022c565b9150509250925092565b61148f80620002af6000396000f3fe6080604052600436106100dd5760003560e01c80635ab08f001161007f5780638da5cb5b116100595780638da5cb5b1461027c578063c631b292146102a7578063c64963c5146102be578063f2fde38b146102e9576100dd565b80635ab08f0014610211578063715018a61461023a5780637d2f719014610251576100dd565b80631ea736e0116100bb5780631ea736e0146101675780632fdae3c5146101925780633f1b4081146101bb57806345825c58146101e6576100dd565b80630121b93f146100e2578063013cf08b146100fe5780630a9f46ad1461013c575b600080fd5b6100fc60048036038101906100f79190610b2d565b610312565b005b34801561010a57600080fd5b5061012560048036038101906101209190610b2d565b610487565b604051610133929190610bf9565b60405180910390f35b34801561014857600080fd5b50610151610533565b60405161015e9190610c29565b60405180910390f35b34801561017357600080fd5b5061017c610539565b6040516101899190610c29565b60405180910390f35b34801561019e57600080fd5b506101b960048036038101906101b49190610d79565b61053f565b005b3480156101c757600080fd5b506101d06105f7565b6040516101dd9190610c29565b60405180910390f35b3480156101f257600080fd5b506101fb6105fd565b6040516102089190610ddd565b60405180910390f35b34801561021d57600080fd5b5061023860048036038101906102339190610e56565b610610565b005b34801561024657600080fd5b5061024f6106f1565b005b34801561025d57600080fd5b50610266610705565b6040516102739190610c29565b60405180910390f35b34801561028857600080fd5b5061029161070b565b60405161029e9190610eb7565b60405180910390f35b3480156102b357600080fd5b506102bc610734565b005b3480156102ca57600080fd5b506102d36107d9565b6040516102e09190610c29565b60405180910390f35b3480156102f557600080fd5b50610310600480360381019061030b9190610efe565b6107df565b005b60015442111561034e576040517fdc2cf3f500000000000000000000000000000000000000000000000000000000815260040160405180910390fd5b600360009054906101000a900460ff1615610395576040517f2479ecb800000000000000000000000000000000000000000000000000000000815260040160405180910390fd5b600034036103cf576040517fbcb27c3e00000000000000000000000000000000000000000000000000000000815260040160405180910390fd5b60008103610409576040517ff87f8f6200000000000000000000000000000000000000000000000000000000815260040160405180910390fd5b60016008600083815260200190815260200160002060010160008282546104309190610f5a565b9250508190555061044034610862565b3373ffffffffffffffffffffffffffffffffffffffff16817f10a412bf229fbac2408912cb271b8ff9eb39eb72da91dd0c8accab0fb101113560405160405180910390a350565b60086020528060005260406000206000915090508060000180546104aa90610fbd565b80601f01602080910402602001604051908101604052809291908181526020018280546104d690610fbd565b80156105235780601f106104f857610100808354040283529160200191610523565b820191906000526020600020905b81548152906001019060200180831161050657829003601f168201915b5050505050908060010154905082565b60065481565b60015481565b61054761092b565b600360009054906101000a900460ff161561058e576040517f2479ecb800000000000000000000000000000000000000000000000000000000815260040160405180910390fd5b600660008154809291906105a190610fee565b91905055506040518060400160405280828152602001600081525060086000600654815260200190815260200160002060008201518160000190816105e691906111e2565b506020820151816001015590505050565b60055481565b600360009054906101000a900460ff1681565b61061861092b565b600360009054906101000a900460ff1661065e576040517fc9c6a7d800000000000000000000000000000000000000000000000000000000815260040160405180910390fd5b600760009054906101000a900473ffffffffffffffffffffffffffffffffffffffff1673ffffffffffffffffffffffffffffffffffffffff1663f3fef3a383836040518363ffffffff1660e01b81526004016106bb9291906112c3565b600060405180830381600087803b1580156106d557600080fd5b505af11580156106e9573d6000803e3d6000fd5b505050505050565b6106f961092b565b61070360006109a9565b565b60025481565b60008060009054906101000a900473ffffffffffffffffffffffffffffffffffffffff16905090565b61073c61092b565b6001544211610777576040517f851f071500000000000000000000000000000000000000000000000000000000815260040160405180910390fd5b61077f610a6d565b6001600360006101000a81548160ff0219169083151502179055507faff28777f2409f4b37134d80d0e47af000be7515d291c576b1412337f3eeb6536004546005546040516107cf9291906112ec565b60405180910390a1565b60045481565b6107e761092b565b600073ffffffffffffffffffffffffffffffffffffffff168173ffffffffffffffffffffffffffffffffffffffff1603610856576040517f08c379a000000000000000000000000000000000000000000000000000000000815260040161084d90611387565b60405180910390fd5b61085f816109a9565b50565b6000600760009054906101000a900473ffffffffffffffffffffffffffffffffffffffff1673ffffffffffffffffffffffffffffffffffffffff16826040516108aa906113d8565b60006040518083038185875af1925050503d80600081146108e7576040519150601f19603f3d011682016040523d82523d6000602084013e6108ec565b606091505b5050905080610927576040517f043deed500000000000000000000000000000000000000000000000000000000815260040160405180910390fd5b5050565b610933610adb565b73ffffffffffffffffffffffffffffffffffffffff1661095161070b565b73ffffffffffffffffffffffffffffffffffffffff16146109a7576040517f08c379a000000000000000000000000000000000000000000000000000000000815260040161099e90611439565b60405180910390fd5b565b60008060009054906101000a900473ffffffffffffffffffffffffffffffffffffffff169050816000806101000a81548173ffffffffffffffffffffffffffffffffffffffff021916908373ffffffffffffffffffffffffffffffffffffffff1602179055508173ffffffffffffffffffffffffffffffffffffffff168173ffffffffffffffffffffffffffffffffffffffff167f8be0079c531659141344cd1fd0a4f28419497f9722a3daafe3b4186f6b6457e060405160405180910390a35050565b600080600190505b6006548111610ad7578160086000838152602001908152602001600020600101541115610ac4576008600082815260200190815260200160002060010154915080600481905550816005819055505b8080610acf90610fee565b915050610a75565b5050565b600033905090565b6000604051905090565b600080fd5b600080fd5b6000819050919050565b610b0a81610af7565b8114610b1557600080fd5b50565b600081359050610b2781610b01565b92915050565b600060208284031215610b4357610b42610aed565b5b6000610b5184828501610b18565b91505092915050565b600081519050919050565b600082825260208201905092915050565b60005b83811015610b94578082015181840152602081019050610b79565b60008484015250505050565b6000601f19601f8301169050919050565b6000610bbc82610b5a565b610bc68185610b65565b9350610bd6818560208601610b76565b610bdf81610ba0565b840191505092915050565b610bf381610af7565b82525050565b60006040820190508181036000830152610c138185610bb1565b9050610c226020830184610bea565b9392505050565b6000602082019050610c3e6000830184610bea565b92915050565b600080fd5b600080fd5b7f4e487b7100000000000000000000000000000000000000000000000000000000600052604160045260246000fd5b610c8682610ba0565b810181811067ffffffffffffffff82111715610ca557610ca4610c4e565b5b80604052505050565b6000610cb8610ae3565b9050610cc48282610c7d565b919050565b600067ffffffffffffffff821115610ce457610ce3610c4e565b5b610ced82610ba0565b9050602081019050919050565b82818337600083830152505050565b6000610d1c610d1784610cc9565b610cae565b905082815260208101848484011115610d3857610d37610c49565b5b610d43848285610cfa565b509392505050565b600082601f830112610d6057610d5f610c44565b5b8135610d70848260208601610d09565b91505092915050565b600060208284031215610d8f57610d8e610aed565b5b600082013567ffffffffffffffff811115610dad57610dac610af2565b5b610db984828501610d4b565b91505092915050565b60008115159050919050565b610dd781610dc2565b82525050565b6000602082019050610df26000830184610dce565b92915050565b600073ffffffffffffffffffffffffffffffffffffffff82169050919050565b6000610e2382610df8565b9050919050565b610e3381610e18565b8114610e3e57600080fd5b50565b600081359050610e5081610e2a565b92915050565b60008060408385031215610e6d57610e6c610aed565b5b6000610e7b85828601610e41565b9250506020610e8c85828601610b18565b9150509250929050565b6000610ea182610df8565b9050919050565b610eb181610e96565b82525050565b6000602082019050610ecc6000830184610ea8565b92915050565b610edb81610e96565b8114610ee657600080fd5b50565b600081359050610ef881610ed2565b92915050565b600060208284031215610f1457610f13610aed565b5b6000610f2284828501610ee9565b91505092915050565b7f4e487b7100000000000000000000000000000000000000000000000000000000600052601160045260246000fd5b6000610f6582610af7565b9150610f7083610af7565b9250828201905080821115610f8857610f87610f2b565b5b92915050565b7f4e487b7100000000000000000000000000000000000000000000000000000000600052602260045260246000fd5b60006002820490506001821680610fd557607f821691505b602082108103610fe857610fe7610f8e565b5b50919050565b6000610ff982610af7565b91507fffffffffffffffffffffffffffffffffffffffffffffffffffffffffffffffff820361102b5761102a610f2b565b5b600182019050919050565b60008190508160005260206000209050919050565b60006020601f8301049050919050565b600082821b905092915050565b6000600883026110987fffffffffffffffffffffffffffffffffffffffffffffffffffffffffffffffff8261105b565b6110a2868361105b565b95508019841693508086168417925050509392505050565b6000819050919050565b60006110df6110da6110d584610af7565b6110ba565b610af7565b9050919050565b6000819050919050565b6110f9836110c4565b61110d611105826110e6565b848454611068565b825550505050565b600090565b611122611115565b61112d8184846110f0565b505050565b5b818110156111515761114660008261111a565b600181019050611133565b5050565b601f8211156111965761116781611036565b6111708461104b565b8101602085101561117f578190505b61119361118b8561104b565b830182611132565b50505b505050565b600082821c905092915050565b60006111b96000198460080261119b565b1980831691505092915050565b60006111d283836111a8565b9150826002028217905092915050565b6111eb82610b5a565b67ffffffffffffffff81111561120457611203610c4e565b5b61120e8254610fbd565b611219828285611155565b600060209050601f83116001811461124c576000841561123a578287015190505b61124485826111c6565b8655506112ac565b601f19841661125a86611036565b60005b828110156112825784890151825560018201915060208501945060208101905061125d565b8683101561129f578489015161129b601f8916826111a8565b8355505b6001600288020188555050505b505050505050565b6112bd81610e18565b82525050565b60006040820190506112d860008301856112b4565b6112e56020830184610bea565b9392505050565b60006040820190506113016000830185610bea565b61130e6020830184610bea565b9392505050565b7f4f776e61626c653a206e6577206f776e657220697320746865207a65726f206160008201527f6464726573730000000000000000000000000000000000000000000000000000602082015250565b6000611371602683610b65565b915061137c82611315565b604082019050919050565b600060208201905081810360008301526113a081611364565b9050919050565b600081905092915050565b50565b60006113c26000836113a7565b91506113cd826113b2565b600082019050919050565b60006113e3826113b5565b9150819050919050565b7f4f776e61626c653a2063616c6c6572206973206e6f7420746865206f776e6572600082015250565b6000611423602083610b65565b915061142e826113ed565b602082019050919050565b6000602082019050818103600083015261145281611416565b905091905056fea2646970667358221220903afe04c8a40af0ade954372fb8b94006f4a58b8d451d1ba5cc23831156ca9964736f6c63430008130033",
  "linkReferences": {},
  "deployedLinkReferences": {}
}