{
  "_format": "hh-sol-artifact-1",
  "contractName": "VotingContract",
  "sourceName": "contracts/VotingContract .sol",
  "abi": [
    {
      "inputs": [
        {
          "internalType": "address payable",
          "name": "_vaultAddress",
          "type": "address"
        },
        {
          "internalType": "address",
          "name": "ottiAddress",
          "type": "address"
        }
      ],
      "stateMutability": "nonpayable",
      "type": "constructor"
    },
    {
      "inputs": [],
      "name": "amountZero",
      "type": "error"
    },
    {
      "inputs": [],
      "name": "ethNotSent",
      "type": "error"
    },
    {
      "inputs": [],
      "name": "proposalNotValid",
      "type": "error"
    },
    {
      "inputs": [],
      "name": "timeElapsed",
      "type": "error"
    },
    {
      "inputs": [],
      "name": "timeNotElapsed",
      "type": "error"
    },
    {
      "inputs": [],
      "name": "voted",
      "type": "error"
    },
    {
      "inputs": [],
      "name": "votingNotClosed",
      "type": "error"
    },
    {
      "anonymous": false,
      "inputs": [
        {
          "indexed": true,
          "internalType": "address",
          "name": "previousOwner",
          "type": "address"
        },
        {
          "indexed": true,
          "internalType": "address",
          "name": "newOwner",
          "type": "address"
        }
      ],
      "name": "OwnershipTransferred",
      "type": "event"
    },
    {
      "anonymous": false,
      "inputs": [
        {
          "indexed": true,
          "internalType": "uint256",
          "name": "proposalId",
          "type": "uint256"
        },
        {
          "indexed": true,
          "internalType": "address",
          "name": "voter",
          "type": "address"
        }
      ],
      "name": "Vote",
      "type": "event"
    },
    {
      "anonymous": false,
      "inputs": [
        {
          "indexed": false,
          "internalType": "uint256",
          "name": "winningProposalId",
          "type": "uint256"
        },
        {
          "indexed": false,
          "internalType": "uint256",
          "name": "winningProposalVotes",
          "type": "uint256"
        }
      ],
      "name": "VotingClosed",
      "type": "event"
    },
    {
      "inputs": [
        {
          "internalType": "bytes32",
          "name": "name",
          "type": "bytes32"
        }
      ],
      "name": "addProposal",
      "outputs": [],
      "stateMutability": "nonpayable",
      "type": "function"
    },
    {
      "inputs": [
        {
          "internalType": "uint256",
          "name": "",
          "type": "uint256"
        }
      ],
      "name": "addressRegistered",
      "outputs": [
        {
          "internalType": "address",
          "name": "",
          "type": "address"
        }
      ],
      "stateMutability": "view",
      "type": "function"
    },
    {
      "inputs": [],
      "name": "closeVoting",
      "outputs": [],
      "stateMutability": "nonpayable",
      "type": "function"
    },
    {
      "inputs": [],
      "name": "donationAmount",
      "outputs": [
        {
          "internalType": "uint256",
          "name": "",
          "type": "uint256"
        }
      ],
      "stateMutability": "view",
      "type": "function"
    },
    {
      "inputs": [],
      "name": "donationGoal",
      "outputs": [
        {
          "internalType": "uint256",
          "name": "",
          "type": "uint256"
        }
      ],
      "stateMutability": "view",
      "type": "function"
    },
    {
      "inputs": [],
      "name": "getProposalLength",
      "outputs": [
        {
          "internalType": "uint256",
          "name": "",
          "type": "uint256"
        }
      ],
      "stateMutability": "view",
      "type": "function"
    },
    {
      "inputs": [
        {
          "internalType": "uint256",
          "name": "_votingEndTime",
          "type": "uint256"
        },
        {
          "internalType": "uint256",
          "name": "_donationGoal",
          "type": "uint256"
        },
        {
          "internalType": "bytes32[]",
          "name": "proposalNames",
          "type": "bytes32[]"
        }
      ],
      "name": "initVoting",
      "outputs": [],
      "stateMutability": "nonpayable",
      "type": "function"
    },
    {
      "inputs": [],
      "name": "isVotingClosed",
      "outputs": [
        {
          "internalType": "bool",
          "name": "",
          "type": "bool"
        }
      ],
      "stateMutability": "view",
      "type": "function"
    },
    {
      "inputs": [],
      "name": "latestWinner",
      "outputs": [
        {
          "internalType": "bytes32",
          "name": "name",
          "type": "bytes32"
        },
        {
          "internalType": "uint256",
          "name": "weidhtedVotes",
          "type": "uint256"
        },
        {
          "internalType": "uint256",
          "name": "votes",
          "type": "uint256"
        }
      ],
      "stateMutability": "view",
      "type": "function"
    },
    {
      "inputs": [],
      "name": "ottiToken",
      "outputs": [
        {
          "internalType": "address",
          "name": "",
          "type": "address"
        }
      ],
      "stateMutability": "view",
      "type": "function"
    },
    {
      "inputs": [],
      "name": "owner",
      "outputs": [
        {
          "internalType": "address",
          "name": "",
          "type": "address"
        }
      ],
      "stateMutability": "view",
      "type": "function"
    },
    {
      "inputs": [
        {
          "internalType": "uint256",
          "name": "",
          "type": "uint256"
        }
      ],
      "name": "proposals",
      "outputs": [
        {
          "internalType": "bytes32",
          "name": "name",
          "type": "bytes32"
        },
        {
          "internalType": "uint256",
          "name": "weidhtedVotes",
          "type": "uint256"
        },
        {
          "internalType": "uint256",
          "name": "votes",
          "type": "uint256"
        }
      ],
      "stateMutability": "view",
      "type": "function"
    },
    {
      "inputs": [],
      "name": "renounceOwnership",
      "outputs": [],
      "stateMutability": "nonpayable",
      "type": "function"
    },
    {
      "inputs": [
        {
          "internalType": "address",
          "name": "newOwner",
          "type": "address"
        }
      ],
      "name": "transferOwnership",
      "outputs": [],
      "stateMutability": "nonpayable",
      "type": "function"
    },
    {
      "inputs": [
        {
          "internalType": "uint256",
          "name": "proposalId",
          "type": "uint256"
        }
      ],
      "name": "vote",
      "outputs": [],
      "stateMutability": "payable",
      "type": "function"
    },
    {
      "inputs": [
        {
          "internalType": "address",
          "name": "",
          "type": "address"
        }
      ],
      "name": "voters",
      "outputs": [
        {
          "internalType": "uint256",
          "name": "vote",
          "type": "uint256"
        },
        {
          "internalType": "uint256",
          "name": "weightVote",
          "type": "uint256"
        },
        {
          "internalType": "bool",
          "name": "voted",
          "type": "bool"
        }
      ],
      "stateMutability": "view",
      "type": "function"
    },
    {
      "inputs": [],
      "name": "votingEndTime",
      "outputs": [
        {
          "internalType": "uint256",
          "name": "",
          "type": "uint256"
        }
      ],
      "stateMutability": "view",
      "type": "function"
    },
    {
      "inputs": [],
      "name": "winningDonationVotes",
      "outputs": [
        {
          "internalType": "uint256",
          "name": "",
          "type": "uint256"
        }
      ],
      "stateMutability": "view",
      "type": "function"
    },
    {
      "inputs": [],
      "name": "winningProposalId",
      "outputs": [
        {
          "internalType": "uint256",
          "name": "",
          "type": "uint256"
        }
      ],
      "stateMutability": "view",
      "type": "function"
    },
    {
      "inputs": [
        {
          "internalType": "address payable",
          "name": "to",
          "type": "address"
        },
        {
          "internalType": "uint256",
          "name": "amount",
          "type": "uint256"
        }
      ],
      "name": "withdrawDonations",
      "outputs": [],
      "stateMutability": "nonpayable",
      "type": "function"
    }
  ],
  "bytecode": "0x60806040523480156200001157600080fd5b50604051620021c6380380620021c6833981810160405281019062000037919062000277565b620000576200004b620000fc60201b60201c565b6200010460201b60201c565b81600a60006101000a81548173ffffffffffffffffffffffffffffffffffffffff021916908373ffffffffffffffffffffffffffffffffffffffff1602179055506001600460006101000a81548160ff02191690831515021790555080600e60006101000a81548173ffffffffffffffffffffffffffffffffffffffff021916908373ffffffffffffffffffffffffffffffffffffffff1602179055505050620002be565b600033905090565b60008060009054906101000a900473ffffffffffffffffffffffffffffffffffffffff169050816000806101000a81548173ffffffffffffffffffffffffffffffffffffffff021916908373ffffffffffffffffffffffffffffffffffffffff1602179055508173ffffffffffffffffffffffffffffffffffffffff168173ffffffffffffffffffffffffffffffffffffffff167f8be0079c531659141344cd1fd0a4f28419497f9722a3daafe3b4186f6b6457e060405160405180910390a35050565b600080fd5b600073ffffffffffffffffffffffffffffffffffffffff82169050919050565b6000620001fa82620001cd565b9050919050565b6200020c81620001ed565b81146200021857600080fd5b50565b6000815190506200022c8162000201565b92915050565b60006200023f82620001cd565b9050919050565b620002518162000232565b81146200025d57600080fd5b50565b600081519050620002718162000246565b92915050565b60008060408385031215620002915762000290620001c8565b5b6000620002a1858286016200021b565b9250506020620002b48582860162000260565b9150509250929050565b611ef880620002ce6000396000f3fe60806040526004361061011f5760003560e01c80635ab08f00116100a05780638da5cb5b116100645780638da5cb5b146103a8578063a3ec138d146103d3578063c631b29214610412578063c64963c514610429578063f2fde38b146104545761011f565b80635ab08f00146102e7578063695b056914610310578063715018a61461033b5780637d2f7190146103525780638263a9381461037d5761011f565b806317162df9116100e757806317162df9146102005780631ea736e01461023d5780632199456e1461026857806345825c58146102915780634bed6c23146102bc5761011f565b80630121b93f14610124578063013cf08b14610140578063068781da1461017f57806306ef53e0146101aa57806306efe3b0146101d7575b600080fd5b61013e60048036038101906101399190611475565b61047d565b005b34801561014c57600080fd5b5061016760048036038101906101629190611475565b6107ac565b604051610176939291906114ca565b60405180910390f35b34801561018b57600080fd5b506101946107e6565b6040516101a19190611542565b60405180910390f35b3480156101b657600080fd5b506101bf61080c565b6040516101ce939291906114ca565b60405180910390f35b3480156101e357600080fd5b506101fe60048036038101906101f99190611589565b610824565b005b34801561020c57600080fd5b5061022760048036038101906102229190611475565b610897565b6040516102349190611542565b60405180910390f35b34801561024957600080fd5b506102526108d6565b60405161025f91906115b6565b60405180910390f35b34801561027457600080fd5b5061028f600480360381019061028a919061172a565b6108dc565b005b34801561029d57600080fd5b506102a6610a15565b6040516102b391906117b4565b60405180910390f35b3480156102c857600080fd5b506102d1610a28565b6040516102de91906115b6565b60405180910390f35b3480156102f357600080fd5b5061030e6004803603810190610309919061180d565b610a2e565b005b34801561031c57600080fd5b50610325610b0f565b60405161033291906115b6565b60405180910390f35b34801561034757600080fd5b50610350610b15565b005b34801561035e57600080fd5b50610367610b29565b60405161037491906115b6565b60405180910390f35b34801561038957600080fd5b50610392610b2f565b60405161039f91906115b6565b60405180910390f35b3480156103b457600080fd5b506103bd610b3c565b6040516103ca9190611542565b60405180910390f35b3480156103df57600080fd5b506103fa60048036038101906103f59190611879565b610b65565b604051610409939291906118a6565b60405180910390f35b34801561041e57600080fd5b50610427610b9c565b005b34801561043557600080fd5b5061043e610c41565b60405161044b91906115b6565b60405180910390f35b34801561046057600080fd5b5061047b60048036038101906104769190611879565b610c47565b005b6001544211156104b9576040517fdc2cf3f500000000000000000000000000000000000000000000000000000000815260040160405180910390fd5b600034036104f3576040517fbcb27c3e00000000000000000000000000000000000000000000000000000000815260040160405180910390fd5b600d60003373ffffffffffffffffffffffffffffffffffffffff1673ffffffffffffffffffffffffffffffffffffffff16815260200190815260200160002060020160009054906101000a900460ff161561057a576040517f3500f91e00000000000000000000000000000000000000000000000000000000815260040160405180910390fd5b600b805490508111801561059357506000600b80549050145b156105ca576040517ff87f8f6200000000000000000000000000000000000000000000000000000000815260040160405180910390fd5b600034905080600360008282546105e1919061190c565b925050819055506105f181610cca565b6000600a82610600919061196f565b905061062f600e60009054906101000a900473ffffffffffffffffffffffffffffffffffffffff163383610d93565b600c339080600181540180825580915050600190039060005260206000200160009091909190916101000a81548173ffffffffffffffffffffffffffffffffffffffff021916908373ffffffffffffffffffffffffffffffffffffffff1602179055506000600d60003373ffffffffffffffffffffffffffffffffffffffff1673ffffffffffffffffffffffffffffffffffffffff168152602001908152602001600020905083816000018190555082816001018190555060018160020160006101000a81548160ff0219169083151502179055506000600b858154811061071a576107196119a0565b5b906000526020600020906003020190508381600101600082825461073e919061190c565b92505081905550600181600201600082825461075a919061190c565b925050819055503373ffffffffffffffffffffffffffffffffffffffff16857f10a412bf229fbac2408912cb271b8ff9eb39eb72da91dd0c8accab0fb101113560405160405180910390a35050505050565b600b81815481106107bc57600080fd5b90600052602060002090600302016000915090508060000154908060010154908060020154905083565b600e60009054906101000a900473ffffffffffffffffffffffffffffffffffffffff1681565b60078060000154908060010154908060020154905083565b61082c610e19565b600b60405180606001604052808381526020016000815260200160008152509080600181540180825580915050600190039060005260206000209060030201600090919091909150600082015181600001556020820151816001015560408201518160020155505050565b600c81815481106108a757600080fd5b906000526020600020016000915054906101000a900473ffffffffffffffffffffffffffffffffffffffff1681565b60015481565b6108e4610e19565b600460009054906101000a900460ff1661092a576040517fc9c6a7d800000000000000000000000000000000000000000000000000000000815260040160405180910390fd5b610932610e97565b61093a610f88565b4283610946919061190c565b6001819055508160028190555060005b81518110156109f457600b604051806060016040528084848151811061097f5761097e6119a0565b5b602002602001015181526020016000815260200160008152509080600181540180825580915050600190039060005260206000209060030201600090919091909150600082015181600001556020820151816001015560408201518160020155505080806109ec906119cf565b915050610956565b506000600460006101000a81548160ff021916908315150217905550505050565b600460009054906101000a900460ff1681565b60035481565b610a36610e19565b600460009054906101000a900460ff16610a7c576040517fc9c6a7d800000000000000000000000000000000000000000000000000000000815260040160405180910390fd5b600a60009054906101000a900473ffffffffffffffffffffffffffffffffffffffff1673ffffffffffffffffffffffffffffffffffffffff1663f3fef3a383836040518363ffffffff1660e01b8152600401610ad9929190611a26565b600060405180830381600087803b158015610af357600080fd5b505af1158015610b07573d6000803e3d6000fd5b505050505050565b60065481565b610b1d610e19565b610b276000610f98565b565b60025481565b6000600b80549050905090565b60008060009054906101000a900473ffffffffffffffffffffffffffffffffffffffff16905090565b600d6020528060005260406000206000915090508060000154908060010154908060020160009054906101000a900460ff16905083565b610ba4610e19565b6001544211610bdf576040517f851f071500000000000000000000000000000000000000000000000000000000815260040160405180910390fd5b610be761105c565b6001600460006101000a81548160ff0219169083151502179055507faff28777f2409f4b37134d80d0e47af000be7515d291c576b1412337f3eeb653600554600654604051610c37929190611a4f565b60405180910390a1565b60055481565b610c4f610e19565b600073ffffffffffffffffffffffffffffffffffffffff168173ffffffffffffffffffffffffffffffffffffffff1603610cbe576040517f08c379a0000000000000000000000000000000000000000000000000000000008152600401610cb590611afb565b60405180910390fd5b610cc781610f98565b50565b6000600a60009054906101000a900473ffffffffffffffffffffffffffffffffffffffff1673ffffffffffffffffffffffffffffffffffffffff1682604051610d1290611b4c565b60006040518083038185875af1925050503d8060008114610d4f576040519150601f19603f3d011682016040523d82523d6000602084013e610d54565b606091505b5050905080610d8f576040517f043deed500000000000000000000000000000000000000000000000000000000815260040160405180910390fd5b5050565b610e148363a9059cbb60e01b8484604051602401610db2929190611b61565b604051602081830303815290604052907bffffffffffffffffffffffffffffffffffffffffffffffffffffffff19166020820180517bffffffffffffffffffffffffffffffffffffffffffffffffffffffff838183161783525050505061113b565b505050565b610e21611203565b73ffffffffffffffffffffffffffffffffffffffff16610e3f610b3c565b73ffffffffffffffffffffffffffffffffffffffff1614610e95576040517f08c379a0000000000000000000000000000000000000000000000000000000008152600401610e8c90611bd6565b60405180910390fd5b565b60005b600c80549050811015610f85576000600d6000600c8481548110610ec157610ec06119a0565b5b9060005260206000200160009054906101000a900473ffffffffffffffffffffffffffffffffffffffff1673ffffffffffffffffffffffffffffffffffffffff1673ffffffffffffffffffffffffffffffffffffffff16815260200190815260200160002090508060020160009054906101000a900460ff1615610f715760008160020160006101000a81548160ff02191690831515021790555060008160010181905550600081600001819055505b508080610f7d906119cf565b915050610e9a565b50565b600b6000610f9691906113d8565b565b60008060009054906101000a900473ffffffffffffffffffffffffffffffffffffffff169050816000806101000a81548173ffffffffffffffffffffffffffffffffffffffff021916908373ffffffffffffffffffffffffffffffffffffffff1602179055508173ffffffffffffffffffffffffffffffffffffffff168173ffffffffffffffffffffffffffffffffffffffff167f8be0079c531659141344cd1fd0a4f28419497f9722a3daafe3b4186f6b6457e060405160405180910390a35050565b60008060005b600b805490508110156110ef576000600b8281548110611085576110846119a0565b5b9060005260206000209060030201905083816001015411806110b957508381600101541480156110b85750828160020154115b5b156110db57806001015493508060020154925081600581905550836006819055505b5080806110e7906119cf565b915050611062565b50600b60055481548110611106576111056119a0565b5b906000526020600020906003020160076000820154816000015560018201548160010155600282015481600201559050505050565b600061119d826040518060400160405280602081526020017f5361666545524332303a206c6f772d6c6576656c2063616c6c206661696c65648152508573ffffffffffffffffffffffffffffffffffffffff1661120b9092919063ffffffff16565b90506000815114806111bf5750808060200190518101906111be9190611c22565b5b6111fe576040517f08c379a00000000000000000000000000000000000000000000000000000000081526004016111f590611cc1565b60405180910390fd5b505050565b600033905090565b606061121a8484600085611223565b90509392505050565b606082471015611268576040517f08c379a000000000000000000000000000000000000000000000000000000000815260040161125f90611d53565b60405180910390fd5b6000808673ffffffffffffffffffffffffffffffffffffffff1685876040516112919190611dd9565b60006040518083038185875af1925050503d80600081146112ce576040519150601f19603f3d011682016040523d82523d6000602084013e6112d3565b606091505b50915091506112e4878383876112f0565b92505050949350505050565b6060831561135257600083510361134a5761130a85611365565b611349576040517f08c379a000000000000000000000000000000000000000000000000000000000815260040161134090611e3c565b60405180910390fd5b5b82905061135d565b61135c8383611388565b5b949350505050565b6000808273ffffffffffffffffffffffffffffffffffffffff163b119050919050565b60008251111561139b5781518083602001fd5b806040517f08c379a00000000000000000000000000000000000000000000000000000000081526004016113cf9190611ea0565b60405180910390fd5b50805460008255600302906000526020600020908101906113f991906113fc565b50565b5b808211156114275760008082016000905560018201600090556002820160009055506003016113fd565b5090565b6000604051905090565b600080fd5b600080fd5b6000819050919050565b6114528161143f565b811461145d57600080fd5b50565b60008135905061146f81611449565b92915050565b60006020828403121561148b5761148a611435565b5b600061149984828501611460565b91505092915050565b6000819050919050565b6114b5816114a2565b82525050565b6114c48161143f565b82525050565b60006060820190506114df60008301866114ac565b6114ec60208301856114bb565b6114f960408301846114bb565b949350505050565b600073ffffffffffffffffffffffffffffffffffffffff82169050919050565b600061152c82611501565b9050919050565b61153c81611521565b82525050565b60006020820190506115576000830184611533565b92915050565b611566816114a2565b811461157157600080fd5b50565b6000813590506115838161155d565b92915050565b60006020828403121561159f5761159e611435565b5b60006115ad84828501611574565b91505092915050565b60006020820190506115cb60008301846114bb565b92915050565b600080fd5b6000601f19601f8301169050919050565b7f4e487b7100000000000000000000000000000000000000000000000000000000600052604160045260246000fd5b61161f826115d6565b810181811067ffffffffffffffff8211171561163e5761163d6115e7565b5b80604052505050565b600061165161142b565b905061165d8282611616565b919050565b600067ffffffffffffffff82111561167d5761167c6115e7565b5b602082029050602081019050919050565b600080fd5b60006116a66116a184611662565b611647565b905080838252602082019050602084028301858111156116c9576116c861168e565b5b835b818110156116f257806116de8882611574565b8452602084019350506020810190506116cb565b5050509392505050565b600082601f830112611711576117106115d1565b5b8135611721848260208601611693565b91505092915050565b60008060006060848603121561174357611742611435565b5b600061175186828701611460565b935050602061176286828701611460565b925050604084013567ffffffffffffffff8111156117835761178261143a565b5b61178f868287016116fc565b9150509250925092565b60008115159050919050565b6117ae81611799565b82525050565b60006020820190506117c960008301846117a5565b92915050565b60006117da82611501565b9050919050565b6117ea816117cf565b81146117f557600080fd5b50565b600081359050611807816117e1565b92915050565b6000806040838503121561182457611823611435565b5b6000611832858286016117f8565b925050602061184385828601611460565b9150509250929050565b61185681611521565b811461186157600080fd5b50565b6000813590506118738161184d565b92915050565b60006020828403121561188f5761188e611435565b5b600061189d84828501611864565b91505092915050565b60006060820190506118bb60008301866114bb565b6118c860208301856114bb565b6118d560408301846117a5565b949350505050565b7f4e487b7100000000000000000000000000000000000000000000000000000000600052601160045260246000fd5b60006119178261143f565b91506119228361143f565b925082820190508082111561193a576119396118dd565b5b92915050565b7f4e487b7100000000000000000000000000000000000000000000000000000000600052601260045260246000fd5b600061197a8261143f565b91506119858361143f565b92508261199557611994611940565b5b828204905092915050565b7f4e487b7100000000000000000000000000000000000000000000000000000000600052603260045260246000fd5b60006119da8261143f565b91507fffffffffffffffffffffffffffffffffffffffffffffffffffffffffffffffff8203611a0c57611a0b6118dd565b5b600182019050919050565b611a20816117cf565b82525050565b6000604082019050611a3b6000830185611a17565b611a4860208301846114bb565b9392505050565b6000604082019050611a6460008301856114bb565b611a7160208301846114bb565b9392505050565b600082825260208201905092915050565b7f4f776e61626c653a206e6577206f776e657220697320746865207a65726f206160008201527f6464726573730000000000000000000000000000000000000000000000000000602082015250565b6000611ae5602683611a78565b9150611af082611a89565b604082019050919050565b60006020820190508181036000830152611b1481611ad8565b9050919050565b600081905092915050565b50565b6000611b36600083611b1b565b9150611b4182611b26565b600082019050919050565b6000611b5782611b29565b9150819050919050565b6000604082019050611b766000830185611533565b611b8360208301846114bb565b9392505050565b7f4f776e61626c653a2063616c6c6572206973206e6f7420746865206f776e6572600082015250565b6000611bc0602083611a78565b9150611bcb82611b8a565b602082019050919050565b60006020820190508181036000830152611bef81611bb3565b9050919050565b611bff81611799565b8114611c0a57600080fd5b50565b600081519050611c1c81611bf6565b92915050565b600060208284031215611c3857611c37611435565b5b6000611c4684828501611c0d565b91505092915050565b7f5361666545524332303a204552433230206f7065726174696f6e20646964206e60008201527f6f74207375636365656400000000000000000000000000000000000000000000602082015250565b6000611cab602a83611a78565b9150611cb682611c4f565b604082019050919050565b60006020820190508181036000830152611cda81611c9e565b9050919050565b7f416464726573733a20696e73756666696369656e742062616c616e636520666f60008201527f722063616c6c0000000000000000000000000000000000000000000000000000602082015250565b6000611d3d602683611a78565b9150611d4882611ce1565b604082019050919050565b60006020820190508181036000830152611d6c81611d30565b9050919050565b600081519050919050565b60005b83811015611d9c578082015181840152602081019050611d81565b60008484015250505050565b6000611db382611d73565b611dbd8185611b1b565b9350611dcd818560208601611d7e565b80840191505092915050565b6000611de58284611da8565b915081905092915050565b7f416464726573733a2063616c6c20746f206e6f6e2d636f6e7472616374000000600082015250565b6000611e26601d83611a78565b9150611e3182611df0565b602082019050919050565b60006020820190508181036000830152611e5581611e19565b9050919050565b600081519050919050565b6000611e7282611e5c565b611e7c8185611a78565b9350611e8c818560208601611d7e565b611e95816115d6565b840191505092915050565b60006020820190508181036000830152611eba8184611e67565b90509291505056fea2646970667358221220d2fb0df715f1bad6cf8366db27b722e0d5d9e1a9a16856022b2b67fdd0c0d1e364736f6c63430008130033",
  "linkReferences": {},
  "deployedLinkReferences": {}
}