{
  "_format": "hh-sol-artifact-1",
  "contractName": "VotingContract",
  "sourceName": "contracts/VotingContract .sol",
  "abi": [
    {
      "inputs": [
        {
          "internalType": "address payable",
          "name": "_vaultAddress",
          "type": "address"
        },
        {
          "internalType": "uint256",
          "name": "_votingEndTime",
          "type": "uint256"
        },
        {
          "internalType": "uint256",
          "name": "_donationGoal",
          "type": "uint256"
        },
        {
          "internalType": "bytes32[]",
          "name": "proposalNames",
          "type": "bytes32[]"
        }
      ],
      "stateMutability": "nonpayable",
      "type": "constructor"
    },
    {
      "inputs": [],
      "name": "amountZero",
      "type": "error"
    },
    {
      "inputs": [],
      "name": "ethNotSent",
      "type": "error"
    },
    {
      "inputs": [],
      "name": "proposalNotValid",
      "type": "error"
    },
    {
      "inputs": [],
      "name": "timeElapsed",
      "type": "error"
    },
    {
      "inputs": [],
      "name": "timeNotElapsed",
      "type": "error"
    },
    {
      "inputs": [],
      "name": "voted",
      "type": "error"
    },
    {
      "inputs": [],
      "name": "votingNotClosed",
      "type": "error"
    },
    {
      "anonymous": false,
      "inputs": [
        {
          "indexed": true,
          "internalType": "address",
          "name": "previousOwner",
          "type": "address"
        },
        {
          "indexed": true,
          "internalType": "address",
          "name": "newOwner",
          "type": "address"
        }
      ],
      "name": "OwnershipTransferred",
      "type": "event"
    },
    {
      "anonymous": false,
      "inputs": [
        {
          "indexed": true,
          "internalType": "uint256",
          "name": "proposalId",
          "type": "uint256"
        },
        {
          "indexed": true,
          "internalType": "address",
          "name": "voter",
          "type": "address"
        }
      ],
      "name": "Vote",
      "type": "event"
    },
    {
      "anonymous": false,
      "inputs": [
        {
          "indexed": false,
          "internalType": "uint256",
          "name": "winningProposalId",
          "type": "uint256"
        },
        {
          "indexed": false,
          "internalType": "uint256",
          "name": "winningProposalVotes",
          "type": "uint256"
        }
      ],
      "name": "VotingClosed",
      "type": "event"
    },
    {
      "inputs": [
        {
          "internalType": "bytes32",
          "name": "name",
          "type": "bytes32"
        }
      ],
      "name": "addProposal",
      "outputs": [],
      "stateMutability": "nonpayable",
      "type": "function"
    },
    {
      "inputs": [],
      "name": "closeVoting",
      "outputs": [],
      "stateMutability": "nonpayable",
      "type": "function"
    },
    {
      "inputs": [],
      "name": "donationAmount",
      "outputs": [
        {
          "internalType": "uint256",
          "name": "",
          "type": "uint256"
        }
      ],
      "stateMutability": "view",
      "type": "function"
    },
    {
      "inputs": [],
      "name": "donationGoal",
      "outputs": [
        {
          "internalType": "uint256",
          "name": "",
          "type": "uint256"
        }
      ],
      "stateMutability": "view",
      "type": "function"
    },
    {
      "inputs": [],
      "name": "isVotingClosed",
      "outputs": [
        {
          "internalType": "bool",
          "name": "",
          "type": "bool"
        }
      ],
      "stateMutability": "view",
      "type": "function"
    },
    {
      "inputs": [],
      "name": "owner",
      "outputs": [
        {
          "internalType": "address",
          "name": "",
          "type": "address"
        }
      ],
      "stateMutability": "view",
      "type": "function"
    },
    {
      "inputs": [
        {
          "internalType": "uint256",
          "name": "",
          "type": "uint256"
        }
      ],
      "name": "proposals",
      "outputs": [
        {
          "internalType": "bytes32",
          "name": "name",
          "type": "bytes32"
        },
        {
          "internalType": "uint256",
          "name": "weidhtedVotes",
          "type": "uint256"
        }
      ],
      "stateMutability": "view",
      "type": "function"
    },
    {
      "inputs": [],
      "name": "proposalsCount",
      "outputs": [
        {
          "internalType": "uint256",
          "name": "",
          "type": "uint256"
        }
      ],
      "stateMutability": "view",
      "type": "function"
    },
    {
      "inputs": [],
      "name": "renounceOwnership",
      "outputs": [],
      "stateMutability": "nonpayable",
      "type": "function"
    },
    {
      "inputs": [
        {
          "internalType": "address",
          "name": "newOwner",
          "type": "address"
        }
      ],
      "name": "transferOwnership",
      "outputs": [],
      "stateMutability": "nonpayable",
      "type": "function"
    },
    {
      "inputs": [
        {
          "internalType": "uint256",
          "name": "proposalId",
          "type": "uint256"
        }
      ],
      "name": "vote",
      "outputs": [],
      "stateMutability": "payable",
      "type": "function"
    },
    {
      "inputs": [
        {
          "internalType": "address",
          "name": "",
          "type": "address"
        }
      ],
      "name": "voters",
      "outputs": [
        {
          "internalType": "uint256",
          "name": "vote",
          "type": "uint256"
        },
        {
          "internalType": "uint256",
          "name": "weightVote",
          "type": "uint256"
        },
        {
          "internalType": "bool",
          "name": "voted",
          "type": "bool"
        }
      ],
      "stateMutability": "view",
      "type": "function"
    },
    {
      "inputs": [],
      "name": "votingEndTime",
      "outputs": [
        {
          "internalType": "uint256",
          "name": "",
          "type": "uint256"
        }
      ],
      "stateMutability": "view",
      "type": "function"
    },
    {
      "inputs": [],
      "name": "winningProposalId",
      "outputs": [
        {
          "internalType": "uint256",
          "name": "",
          "type": "uint256"
        }
      ],
      "stateMutability": "view",
      "type": "function"
    },
    {
      "inputs": [],
      "name": "winningProposalVotes",
      "outputs": [
        {
          "internalType": "uint256",
          "name": "",
          "type": "uint256"
        }
      ],
      "stateMutability": "view",
      "type": "function"
    },
    {
      "inputs": [
        {
          "internalType": "address payable",
          "name": "to",
          "type": "address"
        },
        {
          "internalType": "uint256",
          "name": "amount",
          "type": "uint256"
        }
      ],
      "name": "withdrawDonations",
      "outputs": [],
      "stateMutability": "nonpayable",
      "type": "function"
    }
  ],
  "bytecode": "0x60806040523480156200001157600080fd5b5060405162001732380380620017328339818101604052810190620000379190620004b1565b620000576200004b6200018160201b60201c565b6200018960201b60201c565b83600860006101000a81548173ffffffffffffffffffffffffffffffffffffffff021916908373ffffffffffffffffffffffffffffffffffffffff1602179055504283620000a6919062000571565b600181905550816002819055506000600460006101000a81548160ff02191690831515021790555060006007819055506000600190505b8151811015620001765760076000815480929190620000fc90620005ac565b91905055506040518060400160405280838381518110620001225762000121620005f9565b5b602002602001015181526020016000815250600960006007548152602001908152602001600020600082015181600001556020820151816001015590505080806200016d90620005ac565b915050620000dd565b505050505062000628565b600033905090565b60008060009054906101000a900473ffffffffffffffffffffffffffffffffffffffff169050816000806101000a81548173ffffffffffffffffffffffffffffffffffffffff021916908373ffffffffffffffffffffffffffffffffffffffff1602179055508173ffffffffffffffffffffffffffffffffffffffff168173ffffffffffffffffffffffffffffffffffffffff167f8be0079c531659141344cd1fd0a4f28419497f9722a3daafe3b4186f6b6457e060405160405180910390a35050565b6000604051905090565b600080fd5b600080fd5b600073ffffffffffffffffffffffffffffffffffffffff82169050919050565b60006200028e8262000261565b9050919050565b620002a08162000281565b8114620002ac57600080fd5b50565b600081519050620002c08162000295565b92915050565b6000819050919050565b620002db81620002c6565b8114620002e757600080fd5b50565b600081519050620002fb81620002d0565b92915050565b600080fd5b6000601f19601f8301169050919050565b7f4e487b7100000000000000000000000000000000000000000000000000000000600052604160045260246000fd5b620003518262000306565b810181811067ffffffffffffffff8211171562000373576200037262000317565b5b80604052505050565b6000620003886200024d565b905062000396828262000346565b919050565b600067ffffffffffffffff821115620003b957620003b862000317565b5b602082029050602081019050919050565b600080fd5b6000819050919050565b620003e481620003cf565b8114620003f057600080fd5b50565b6000815190506200040481620003d9565b92915050565b6000620004216200041b846200039b565b6200037c565b90508083825260208201905060208402830185811115620004475762000446620003ca565b5b835b818110156200047457806200045f8882620003f3565b84526020840193505060208101905062000449565b5050509392505050565b600082601f83011262000496576200049562000301565b5b8151620004a88482602086016200040a565b91505092915050565b60008060008060808587031215620004ce57620004cd62000257565b5b6000620004de87828801620002af565b9450506020620004f187828801620002ea565b93505060406200050487828801620002ea565b925050606085015167ffffffffffffffff8111156200052857620005276200025c565b5b62000536878288016200047e565b91505092959194509250565b7f4e487b7100000000000000000000000000000000000000000000000000000000600052601160045260246000fd5b60006200057e82620002c6565b91506200058b83620002c6565b9250828201905080821115620005a657620005a562000542565b5b92915050565b6000620005b982620002c6565b91507fffffffffffffffffffffffffffffffffffffffffffffffffffffffffffffffff8203620005ee57620005ed62000542565b5b600182019050919050565b7f4e487b7100000000000000000000000000000000000000000000000000000000600052603260045260246000fd5b6110fa80620006386000396000f3fe6080604052600436106100f35760003560e01c80635ab08f001161008a578063a3ec138d11610059578063a3ec138d146102e8578063c631b29214610327578063c64963c51461033e578063f2fde38b14610369576100f3565b80635ab08f0014610252578063715018a61461027b5780637d2f7190146102925780638da5cb5b146102bd576100f3565b80631ea736e0116100c65780631ea736e0146101a65780633f1b4081146101d157806345825c58146101fc5780634bed6c2314610227576100f3565b80630121b93f146100f8578063013cf08b1461011457806306efe3b0146101525780630a9f46ad1461017b575b600080fd5b610112600480360381019061010d9190610bd1565b610392565b005b34801561012057600080fd5b5061013b60048036038101906101369190610bd1565b6105d8565b604051610149929190610c26565b60405180910390f35b34801561015e57600080fd5b5061017960048036038101906101749190610c7b565b6105fc565b005b34801561018757600080fd5b50610190610661565b60405161019d9190610ca8565b60405180910390f35b3480156101b257600080fd5b506101bb610667565b6040516101c89190610ca8565b60405180910390f35b3480156101dd57600080fd5b506101e661066d565b6040516101f39190610ca8565b60405180910390f35b34801561020857600080fd5b50610211610673565b60405161021e9190610cde565b60405180910390f35b34801561023357600080fd5b5061023c610686565b6040516102499190610ca8565b60405180910390f35b34801561025e57600080fd5b5061027960048036038101906102749190610d57565b61068c565b005b34801561028757600080fd5b5061029061076d565b005b34801561029e57600080fd5b506102a7610781565b6040516102b49190610ca8565b60405180910390f35b3480156102c957600080fd5b506102d2610787565b6040516102df9190610db8565b60405180910390f35b3480156102f457600080fd5b5061030f600480360381019061030a9190610dff565b6107b0565b60405161031e93929190610e2c565b60405180910390f35b34801561033357600080fd5b5061033c6107e7565b005b34801561034a57600080fd5b5061035361088c565b6040516103609190610ca8565b60405180910390f35b34801561037557600080fd5b50610390600480360381019061038b9190610dff565b610892565b005b6001544211156103ce576040517fdc2cf3f500000000000000000000000000000000000000000000000000000000815260040160405180910390fd5b60003403610408576040517fbcb27c3e00000000000000000000000000000000000000000000000000000000815260040160405180910390fd5b600a60003373ffffffffffffffffffffffffffffffffffffffff1673ffffffffffffffffffffffffffffffffffffffff16815260200190815260200160002060020160009054906101000a900460ff161561048f576040517f3500f91e00000000000000000000000000000000000000000000000000000000815260040160405180910390fd5b600081036104c9576040517ff87f8f6200000000000000000000000000000000000000000000000000000000815260040160405180910390fd5b600034905080600360008282546104e09190610e92565b925050819055506104f081610915565b6000600a60003373ffffffffffffffffffffffffffffffffffffffff1673ffffffffffffffffffffffffffffffffffffffff168152602001908152602001600020905082816000018190555081816001018190555060018160020160006101000a81548160ff021916908315150217905550816009600085815260200190815260200160002060010160008282546105889190610e92565b925050819055503373ffffffffffffffffffffffffffffffffffffffff16837f10a412bf229fbac2408912cb271b8ff9eb39eb72da91dd0c8accab0fb101113560405160405180910390a3505050565b60096020528060005260406000206000915090508060000154908060010154905082565b6106046109de565b6007600081548092919061061790610ec6565b919050555060405180604001604052808281526020016000815250600960006007548152602001908152602001600020600082015181600001556020820151816001015590505050565b60075481565b60015481565b60065481565b600460009054906101000a900460ff1681565b60035481565b6106946109de565b600460009054906101000a900460ff166106da576040517fc9c6a7d800000000000000000000000000000000000000000000000000000000815260040160405180910390fd5b600860009054906101000a900473ffffffffffffffffffffffffffffffffffffffff1673ffffffffffffffffffffffffffffffffffffffff1663f3fef3a383836040518363ffffffff1660e01b8152600401610737929190610f1d565b600060405180830381600087803b15801561075157600080fd5b505af1158015610765573d6000803e3d6000fd5b505050505050565b6107756109de565b61077f6000610a5c565b565b60025481565b60008060009054906101000a900473ffffffffffffffffffffffffffffffffffffffff16905090565b600a6020528060005260406000206000915090508060000154908060010154908060020160009054906101000a900460ff16905083565b6107ef6109de565b600154421161082a576040517f851f071500000000000000000000000000000000000000000000000000000000815260040160405180910390fd5b610832610b20565b6001600460006101000a81548160ff0219169083151502179055507faff28777f2409f4b37134d80d0e47af000be7515d291c576b1412337f3eeb653600554600654604051610882929190610f46565b60405180910390a1565b60055481565b61089a6109de565b600073ffffffffffffffffffffffffffffffffffffffff168173ffffffffffffffffffffffffffffffffffffffff1603610909576040517f08c379a000000000000000000000000000000000000000000000000000000000815260040161090090610ff2565b60405180910390fd5b61091281610a5c565b50565b6000600860009054906101000a900473ffffffffffffffffffffffffffffffffffffffff1673ffffffffffffffffffffffffffffffffffffffff168260405161095d90611043565b60006040518083038185875af1925050503d806000811461099a576040519150601f19603f3d011682016040523d82523d6000602084013e61099f565b606091505b50509050806109da576040517f043deed500000000000000000000000000000000000000000000000000000000815260040160405180910390fd5b5050565b6109e6610b8e565b73ffffffffffffffffffffffffffffffffffffffff16610a04610787565b73ffffffffffffffffffffffffffffffffffffffff1614610a5a576040517f08c379a0000000000000000000000000000000000000000000000000000000008152600401610a51906110a4565b60405180910390fd5b565b60008060009054906101000a900473ffffffffffffffffffffffffffffffffffffffff169050816000806101000a81548173ffffffffffffffffffffffffffffffffffffffff021916908373ffffffffffffffffffffffffffffffffffffffff1602179055508173ffffffffffffffffffffffffffffffffffffffff168173ffffffffffffffffffffffffffffffffffffffff167f8be0079c531659141344cd1fd0a4f28419497f9722a3daafe3b4186f6b6457e060405160405180910390a35050565b600080600190505b6007548111610b8a578160096000838152602001908152602001600020600101541115610b77576009600082815260200190815260200160002060010154915080600581905550816006819055505b8080610b8290610ec6565b915050610b28565b5050565b600033905090565b600080fd5b6000819050919050565b610bae81610b9b565b8114610bb957600080fd5b50565b600081359050610bcb81610ba5565b92915050565b600060208284031215610be757610be6610b96565b5b6000610bf584828501610bbc565b91505092915050565b6000819050919050565b610c1181610bfe565b82525050565b610c2081610b9b565b82525050565b6000604082019050610c3b6000830185610c08565b610c486020830184610c17565b9392505050565b610c5881610bfe565b8114610c6357600080fd5b50565b600081359050610c7581610c4f565b92915050565b600060208284031215610c9157610c90610b96565b5b6000610c9f84828501610c66565b91505092915050565b6000602082019050610cbd6000830184610c17565b92915050565b60008115159050919050565b610cd881610cc3565b82525050565b6000602082019050610cf36000830184610ccf565b92915050565b600073ffffffffffffffffffffffffffffffffffffffff82169050919050565b6000610d2482610cf9565b9050919050565b610d3481610d19565b8114610d3f57600080fd5b50565b600081359050610d5181610d2b565b92915050565b60008060408385031215610d6e57610d6d610b96565b5b6000610d7c85828601610d42565b9250506020610d8d85828601610bbc565b9150509250929050565b6000610da282610cf9565b9050919050565b610db281610d97565b82525050565b6000602082019050610dcd6000830184610da9565b92915050565b610ddc81610d97565b8114610de757600080fd5b50565b600081359050610df981610dd3565b92915050565b600060208284031215610e1557610e14610b96565b5b6000610e2384828501610dea565b91505092915050565b6000606082019050610e416000830186610c17565b610e4e6020830185610c17565b610e5b6040830184610ccf565b949350505050565b7f4e487b7100000000000000000000000000000000000000000000000000000000600052601160045260246000fd5b6000610e9d82610b9b565b9150610ea883610b9b565b9250828201905080821115610ec057610ebf610e63565b5b92915050565b6000610ed182610b9b565b91507fffffffffffffffffffffffffffffffffffffffffffffffffffffffffffffffff8203610f0357610f02610e63565b5b600182019050919050565b610f1781610d19565b82525050565b6000604082019050610f326000830185610f0e565b610f3f6020830184610c17565b9392505050565b6000604082019050610f5b6000830185610c17565b610f686020830184610c17565b9392505050565b600082825260208201905092915050565b7f4f776e61626c653a206e6577206f776e657220697320746865207a65726f206160008201527f6464726573730000000000000000000000000000000000000000000000000000602082015250565b6000610fdc602683610f6f565b9150610fe782610f80565b604082019050919050565b6000602082019050818103600083015261100b81610fcf565b9050919050565b600081905092915050565b50565b600061102d600083611012565b91506110388261101d565b600082019050919050565b600061104e82611020565b9150819050919050565b7f4f776e61626c653a2063616c6c6572206973206e6f7420746865206f776e6572600082015250565b600061108e602083610f6f565b915061109982611058565b602082019050919050565b600060208201905081810360008301526110bd81611081565b905091905056fea2646970667358221220ac44931cb80ae3dfe80cc7e87e15b2137144e56c9409005438f2572519401bbc64736f6c63430008130033",
  "linkReferences": {},
  "deployedLinkReferences": {}
}