{
  "_format": "hh-sol-artifact-1",
  "contractName": "VotingContract",
  "sourceName": "contracts/VotingContract .sol",
  "abi": [
    {
      "inputs": [
        {
          "internalType": "address payable",
          "name": "_vaultAddress",
          "type": "address"
        },
        {
          "internalType": "address",
          "name": "ottiAddress",
          "type": "address"
        }
      ],
      "stateMutability": "nonpayable",
      "type": "constructor"
    },
    {
      "inputs": [],
      "name": "amountZero",
      "type": "error"
    },
    {
      "inputs": [],
      "name": "ethNotSent",
      "type": "error"
    },
    {
      "inputs": [],
      "name": "proposalNotValid",
      "type": "error"
    },
    {
      "inputs": [],
      "name": "timeElapsed",
      "type": "error"
    },
    {
      "inputs": [],
      "name": "timeNotElapsed",
      "type": "error"
    },
    {
      "inputs": [],
      "name": "voted",
      "type": "error"
    },
    {
      "inputs": [],
      "name": "votingNotClosed",
      "type": "error"
    },
    {
      "anonymous": false,
      "inputs": [
        {
          "indexed": true,
          "internalType": "address",
          "name": "previousOwner",
          "type": "address"
        },
        {
          "indexed": true,
          "internalType": "address",
          "name": "newOwner",
          "type": "address"
        }
      ],
      "name": "OwnershipTransferred",
      "type": "event"
    },
    {
      "anonymous": false,
      "inputs": [
        {
          "indexed": true,
          "internalType": "uint256",
          "name": "proposalId",
          "type": "uint256"
        },
        {
          "indexed": true,
          "internalType": "address",
          "name": "voter",
          "type": "address"
        }
      ],
      "name": "Vote",
      "type": "event"
    },
    {
      "anonymous": false,
      "inputs": [
        {
          "indexed": false,
          "internalType": "uint256",
          "name": "winningProposalId",
          "type": "uint256"
        },
        {
          "indexed": false,
          "internalType": "uint256",
          "name": "winningProposalVotes",
          "type": "uint256"
        }
      ],
      "name": "VotingClosed",
      "type": "event"
    },
    {
      "inputs": [
        {
          "internalType": "bytes32",
          "name": "name",
          "type": "bytes32"
        }
      ],
      "name": "addProposal",
      "outputs": [],
      "stateMutability": "nonpayable",
      "type": "function"
    },
    {
      "inputs": [
        {
          "internalType": "uint256",
          "name": "",
          "type": "uint256"
        }
      ],
      "name": "addressRegistered",
      "outputs": [
        {
          "internalType": "address",
          "name": "",
          "type": "address"
        }
      ],
      "stateMutability": "view",
      "type": "function"
    },
    {
      "inputs": [],
      "name": "closeVoting",
      "outputs": [],
      "stateMutability": "nonpayable",
      "type": "function"
    },
    {
      "inputs": [],
      "name": "donationAmount",
      "outputs": [
        {
          "internalType": "uint256",
          "name": "",
          "type": "uint256"
        }
      ],
      "stateMutability": "view",
      "type": "function"
    },
    {
      "inputs": [],
      "name": "donationGoal",
      "outputs": [
        {
          "internalType": "uint256",
          "name": "",
          "type": "uint256"
        }
      ],
      "stateMutability": "view",
      "type": "function"
    },
    {
      "inputs": [
        {
          "internalType": "uint256",
          "name": "_votingEndTime",
          "type": "uint256"
        },
        {
          "internalType": "uint256",
          "name": "_donationGoal",
          "type": "uint256"
        },
        {
          "internalType": "bytes32[]",
          "name": "proposalNames",
          "type": "bytes32[]"
        }
      ],
      "name": "initVoting",
      "outputs": [],
      "stateMutability": "nonpayable",
      "type": "function"
    },
    {
      "inputs": [],
      "name": "isVotingClosed",
      "outputs": [
        {
          "internalType": "bool",
          "name": "",
          "type": "bool"
        }
      ],
      "stateMutability": "view",
      "type": "function"
    },
    {
      "inputs": [],
      "name": "latestWinner",
      "outputs": [
        {
          "internalType": "bytes32",
          "name": "name",
          "type": "bytes32"
        },
        {
          "internalType": "uint256",
          "name": "weidhtedVotes",
          "type": "uint256"
        },
        {
          "internalType": "uint256",
          "name": "votes",
          "type": "uint256"
        }
      ],
      "stateMutability": "view",
      "type": "function"
    },
    {
      "inputs": [],
      "name": "ottiToken",
      "outputs": [
        {
          "internalType": "address",
          "name": "",
          "type": "address"
        }
      ],
      "stateMutability": "view",
      "type": "function"
    },
    {
      "inputs": [],
      "name": "owner",
      "outputs": [
        {
          "internalType": "address",
          "name": "",
          "type": "address"
        }
      ],
      "stateMutability": "view",
      "type": "function"
    },
    {
      "inputs": [
        {
          "internalType": "uint256",
          "name": "",
          "type": "uint256"
        }
      ],
      "name": "proposals",
      "outputs": [
        {
          "internalType": "bytes32",
          "name": "name",
          "type": "bytes32"
        },
        {
          "internalType": "uint256",
          "name": "weidhtedVotes",
          "type": "uint256"
        },
        {
          "internalType": "uint256",
          "name": "votes",
          "type": "uint256"
        }
      ],
      "stateMutability": "view",
      "type": "function"
    },
    {
      "inputs": [],
      "name": "renounceOwnership",
      "outputs": [],
      "stateMutability": "nonpayable",
      "type": "function"
    },
    {
      "inputs": [
        {
          "internalType": "address",
          "name": "newOwner",
          "type": "address"
        }
      ],
      "name": "transferOwnership",
      "outputs": [],
      "stateMutability": "nonpayable",
      "type": "function"
    },
    {
      "inputs": [
        {
          "internalType": "uint256",
          "name": "proposalId",
          "type": "uint256"
        }
      ],
      "name": "vote",
      "outputs": [],
      "stateMutability": "payable",
      "type": "function"
    },
    {
      "inputs": [
        {
          "internalType": "address",
          "name": "",
          "type": "address"
        }
      ],
      "name": "voters",
      "outputs": [
        {
          "internalType": "uint256",
          "name": "vote",
          "type": "uint256"
        },
        {
          "internalType": "uint256",
          "name": "weightVote",
          "type": "uint256"
        },
        {
          "internalType": "bool",
          "name": "voted",
          "type": "bool"
        }
      ],
      "stateMutability": "view",
      "type": "function"
    },
    {
      "inputs": [],
      "name": "votingEndTime",
      "outputs": [
        {
          "internalType": "uint256",
          "name": "",
          "type": "uint256"
        }
      ],
      "stateMutability": "view",
      "type": "function"
    },
    {
      "inputs": [],
      "name": "winningDonationVotes",
      "outputs": [
        {
          "internalType": "uint256",
          "name": "",
          "type": "uint256"
        }
      ],
      "stateMutability": "view",
      "type": "function"
    },
    {
      "inputs": [],
      "name": "winningProposalId",
      "outputs": [
        {
          "internalType": "uint256",
          "name": "",
          "type": "uint256"
        }
      ],
      "stateMutability": "view",
      "type": "function"
    },
    {
      "inputs": [
        {
          "internalType": "address payable",
          "name": "to",
          "type": "address"
        },
        {
          "internalType": "uint256",
          "name": "amount",
          "type": "uint256"
        }
      ],
      "name": "withdrawDonations",
      "outputs": [],
      "stateMutability": "nonpayable",
      "type": "function"
    }
  ],
  "bytecode": "0x60806040523480156200001157600080fd5b506040516200218338038062002183833981810160405281019062000037919062000277565b620000576200004b620000fc60201b60201c565b6200010460201b60201c565b81600a60006101000a81548173ffffffffffffffffffffffffffffffffffffffff021916908373ffffffffffffffffffffffffffffffffffffffff1602179055506001600460006101000a81548160ff02191690831515021790555080600e60006101000a81548173ffffffffffffffffffffffffffffffffffffffff021916908373ffffffffffffffffffffffffffffffffffffffff1602179055505050620002be565b600033905090565b60008060009054906101000a900473ffffffffffffffffffffffffffffffffffffffff169050816000806101000a81548173ffffffffffffffffffffffffffffffffffffffff021916908373ffffffffffffffffffffffffffffffffffffffff1602179055508173ffffffffffffffffffffffffffffffffffffffff168173ffffffffffffffffffffffffffffffffffffffff167f8be0079c531659141344cd1fd0a4f28419497f9722a3daafe3b4186f6b6457e060405160405180910390a35050565b600080fd5b600073ffffffffffffffffffffffffffffffffffffffff82169050919050565b6000620001fa82620001cd565b9050919050565b6200020c81620001ed565b81146200021857600080fd5b50565b6000815190506200022c8162000201565b92915050565b60006200023f82620001cd565b9050919050565b620002518162000232565b81146200025d57600080fd5b50565b600081519050620002718162000246565b92915050565b60008060408385031215620002915762000290620001c8565b5b6000620002a1858286016200021b565b9250506020620002b48582860162000260565b9150509250929050565b611eb580620002ce6000396000f3fe6080604052600436106101145760003560e01c80634bed6c23116100a05780638da5cb5b116100645780638da5cb5b14610372578063a3ec138d1461039d578063c631b292146103dc578063c64963c5146103f3578063f2fde38b1461041e57610114565b80634bed6c23146102b15780635ab08f00146102dc578063695b056914610305578063715018a6146103305780637d2f71901461034757610114565b806306efe3b0116100e757806306efe3b0146101cc57806317162df9146101f55780631ea736e0146102325780632199456e1461025d57806345825c581461028657610114565b80630121b93f14610119578063013cf08b14610135578063068781da1461017457806306ef53e01461019f575b600080fd5b610133600480360381019061012e9190611432565b610447565b005b34801561014157600080fd5b5061015c60048036038101906101579190611432565b610776565b60405161016b93929190611487565b60405180910390f35b34801561018057600080fd5b506101896107b0565b60405161019691906114ff565b60405180910390f35b3480156101ab57600080fd5b506101b46107d6565b6040516101c393929190611487565b60405180910390f35b3480156101d857600080fd5b506101f360048036038101906101ee9190611546565b6107ee565b005b34801561020157600080fd5b5061021c60048036038101906102179190611432565b610861565b60405161022991906114ff565b60405180910390f35b34801561023e57600080fd5b506102476108a0565b6040516102549190611573565b60405180910390f35b34801561026957600080fd5b50610284600480360381019061027f91906116e7565b6108a6565b005b34801561029257600080fd5b5061029b6109df565b6040516102a89190611771565b60405180910390f35b3480156102bd57600080fd5b506102c66109f2565b6040516102d39190611573565b60405180910390f35b3480156102e857600080fd5b5061030360048036038101906102fe91906117ca565b6109f8565b005b34801561031157600080fd5b5061031a610ad9565b6040516103279190611573565b60405180910390f35b34801561033c57600080fd5b50610345610adf565b005b34801561035357600080fd5b5061035c610af3565b6040516103699190611573565b60405180910390f35b34801561037e57600080fd5b50610387610af9565b60405161039491906114ff565b60405180910390f35b3480156103a957600080fd5b506103c460048036038101906103bf9190611836565b610b22565b6040516103d393929190611863565b60405180910390f35b3480156103e857600080fd5b506103f1610b59565b005b3480156103ff57600080fd5b50610408610bfe565b6040516104159190611573565b60405180910390f35b34801561042a57600080fd5b5061044560048036038101906104409190611836565b610c04565b005b600154421115610483576040517fdc2cf3f500000000000000000000000000000000000000000000000000000000815260040160405180910390fd5b600034036104bd576040517fbcb27c3e00000000000000000000000000000000000000000000000000000000815260040160405180910390fd5b600d60003373ffffffffffffffffffffffffffffffffffffffff1673ffffffffffffffffffffffffffffffffffffffff16815260200190815260200160002060020160009054906101000a900460ff1615610544576040517f3500f91e00000000000000000000000000000000000000000000000000000000815260040160405180910390fd5b600b805490508111801561055d57506000600b80549050145b15610594576040517ff87f8f6200000000000000000000000000000000000000000000000000000000815260040160405180910390fd5b600034905080600360008282546105ab91906118c9565b925050819055506105bb81610c87565b6000600a826105ca919061192c565b90506105f9600e60009054906101000a900473ffffffffffffffffffffffffffffffffffffffff163383610d50565b600c339080600181540180825580915050600190039060005260206000200160009091909190916101000a81548173ffffffffffffffffffffffffffffffffffffffff021916908373ffffffffffffffffffffffffffffffffffffffff1602179055506000600d60003373ffffffffffffffffffffffffffffffffffffffff1673ffffffffffffffffffffffffffffffffffffffff168152602001908152602001600020905083816000018190555082816001018190555060018160020160006101000a81548160ff0219169083151502179055506000600b85815481106106e4576106e361195d565b5b906000526020600020906003020190508381600101600082825461070891906118c9565b92505081905550600181600201600082825461072491906118c9565b925050819055503373ffffffffffffffffffffffffffffffffffffffff16857f10a412bf229fbac2408912cb271b8ff9eb39eb72da91dd0c8accab0fb101113560405160405180910390a35050505050565b600b818154811061078657600080fd5b90600052602060002090600302016000915090508060000154908060010154908060020154905083565b600e60009054906101000a900473ffffffffffffffffffffffffffffffffffffffff1681565b60078060000154908060010154908060020154905083565b6107f6610dd6565b600b60405180606001604052808381526020016000815260200160008152509080600181540180825580915050600190039060005260206000209060030201600090919091909150600082015181600001556020820151816001015560408201518160020155505050565b600c818154811061087157600080fd5b906000526020600020016000915054906101000a900473ffffffffffffffffffffffffffffffffffffffff1681565b60015481565b6108ae610dd6565b600460009054906101000a900460ff166108f4576040517fc9c6a7d800000000000000000000000000000000000000000000000000000000815260040160405180910390fd5b6108fc610e54565b610904610f45565b428361091091906118c9565b6001819055508160028190555060005b81518110156109be57600b60405180606001604052808484815181106109495761094861195d565b5b602002602001015181526020016000815260200160008152509080600181540180825580915050600190039060005260206000209060030201600090919091909150600082015181600001556020820151816001015560408201518160020155505080806109b69061198c565b915050610920565b506000600460006101000a81548160ff021916908315150217905550505050565b600460009054906101000a900460ff1681565b60035481565b610a00610dd6565b600460009054906101000a900460ff16610a46576040517fc9c6a7d800000000000000000000000000000000000000000000000000000000815260040160405180910390fd5b600a60009054906101000a900473ffffffffffffffffffffffffffffffffffffffff1673ffffffffffffffffffffffffffffffffffffffff1663f3fef3a383836040518363ffffffff1660e01b8152600401610aa39291906119e3565b600060405180830381600087803b158015610abd57600080fd5b505af1158015610ad1573d6000803e3d6000fd5b505050505050565b60065481565b610ae7610dd6565b610af16000610f55565b565b60025481565b60008060009054906101000a900473ffffffffffffffffffffffffffffffffffffffff16905090565b600d6020528060005260406000206000915090508060000154908060010154908060020160009054906101000a900460ff16905083565b610b61610dd6565b6001544211610b9c576040517f851f071500000000000000000000000000000000000000000000000000000000815260040160405180910390fd5b610ba4611019565b6001600460006101000a81548160ff0219169083151502179055507faff28777f2409f4b37134d80d0e47af000be7515d291c576b1412337f3eeb653600554600654604051610bf4929190611a0c565b60405180910390a1565b60055481565b610c0c610dd6565b600073ffffffffffffffffffffffffffffffffffffffff168173ffffffffffffffffffffffffffffffffffffffff1603610c7b576040517f08c379a0000000000000000000000000000000000000000000000000000000008152600401610c7290611ab8565b60405180910390fd5b610c8481610f55565b50565b6000600a60009054906101000a900473ffffffffffffffffffffffffffffffffffffffff1673ffffffffffffffffffffffffffffffffffffffff1682604051610ccf90611b09565b60006040518083038185875af1925050503d8060008114610d0c576040519150601f19603f3d011682016040523d82523d6000602084013e610d11565b606091505b5050905080610d4c576040517f043deed500000000000000000000000000000000000000000000000000000000815260040160405180910390fd5b5050565b610dd18363a9059cbb60e01b8484604051602401610d6f929190611b1e565b604051602081830303815290604052907bffffffffffffffffffffffffffffffffffffffffffffffffffffffff19166020820180517bffffffffffffffffffffffffffffffffffffffffffffffffffffffff83818316178352505050506110f8565b505050565b610dde6111c0565b73ffffffffffffffffffffffffffffffffffffffff16610dfc610af9565b73ffffffffffffffffffffffffffffffffffffffff1614610e52576040517f08c379a0000000000000000000000000000000000000000000000000000000008152600401610e4990611b93565b60405180910390fd5b565b60005b600c80549050811015610f42576000600d6000600c8481548110610e7e57610e7d61195d565b5b9060005260206000200160009054906101000a900473ffffffffffffffffffffffffffffffffffffffff1673ffffffffffffffffffffffffffffffffffffffff1673ffffffffffffffffffffffffffffffffffffffff16815260200190815260200160002090508060020160009054906101000a900460ff1615610f2e5760008160020160006101000a81548160ff02191690831515021790555060008160010181905550600081600001819055505b508080610f3a9061198c565b915050610e57565b50565b600b6000610f539190611395565b565b60008060009054906101000a900473ffffffffffffffffffffffffffffffffffffffff169050816000806101000a81548173ffffffffffffffffffffffffffffffffffffffff021916908373ffffffffffffffffffffffffffffffffffffffff1602179055508173ffffffffffffffffffffffffffffffffffffffff168173ffffffffffffffffffffffffffffffffffffffff167f8be0079c531659141344cd1fd0a4f28419497f9722a3daafe3b4186f6b6457e060405160405180910390a35050565b60008060005b600b805490508110156110ac576000600b82815481106110425761104161195d565b5b90600052602060002090600302019050838160010154118061107657508381600101541480156110755750828160020154115b5b1561109857806001015493508060020154925081600581905550836006819055505b5080806110a49061198c565b91505061101f565b50600b600554815481106110c3576110c261195d565b5b906000526020600020906003020160076000820154816000015560018201548160010155600282015481600201559050505050565b600061115a826040518060400160405280602081526020017f5361666545524332303a206c6f772d6c6576656c2063616c6c206661696c65648152508573ffffffffffffffffffffffffffffffffffffffff166111c89092919063ffffffff16565b905060008151148061117c57508080602001905181019061117b9190611bdf565b5b6111bb576040517f08c379a00000000000000000000000000000000000000000000000000000000081526004016111b290611c7e565b60405180910390fd5b505050565b600033905090565b60606111d784846000856111e0565b90509392505050565b606082471015611225576040517f08c379a000000000000000000000000000000000000000000000000000000000815260040161121c90611d10565b60405180910390fd5b6000808673ffffffffffffffffffffffffffffffffffffffff16858760405161124e9190611d96565b60006040518083038185875af1925050503d806000811461128b576040519150601f19603f3d011682016040523d82523d6000602084013e611290565b606091505b50915091506112a1878383876112ad565b92505050949350505050565b6060831561130f576000835103611307576112c785611322565b611306576040517f08c379a00000000000000000000000000000000000000000000000000000000081526004016112fd90611df9565b60405180910390fd5b5b82905061131a565b6113198383611345565b5b949350505050565b6000808273ffffffffffffffffffffffffffffffffffffffff163b119050919050565b6000825111156113585781518083602001fd5b806040517f08c379a000000000000000000000000000000000000000000000000000000000815260040161138c9190611e5d565b60405180910390fd5b50805460008255600302906000526020600020908101906113b691906113b9565b50565b5b808211156113e45760008082016000905560018201600090556002820160009055506003016113ba565b5090565b6000604051905090565b600080fd5b600080fd5b6000819050919050565b61140f816113fc565b811461141a57600080fd5b50565b60008135905061142c81611406565b92915050565b600060208284031215611448576114476113f2565b5b60006114568482850161141d565b91505092915050565b6000819050919050565b6114728161145f565b82525050565b611481816113fc565b82525050565b600060608201905061149c6000830186611469565b6114a96020830185611478565b6114b66040830184611478565b949350505050565b600073ffffffffffffffffffffffffffffffffffffffff82169050919050565b60006114e9826114be565b9050919050565b6114f9816114de565b82525050565b600060208201905061151460008301846114f0565b92915050565b6115238161145f565b811461152e57600080fd5b50565b6000813590506115408161151a565b92915050565b60006020828403121561155c5761155b6113f2565b5b600061156a84828501611531565b91505092915050565b60006020820190506115886000830184611478565b92915050565b600080fd5b6000601f19601f8301169050919050565b7f4e487b7100000000000000000000000000000000000000000000000000000000600052604160045260246000fd5b6115dc82611593565b810181811067ffffffffffffffff821117156115fb576115fa6115a4565b5b80604052505050565b600061160e6113e8565b905061161a82826115d3565b919050565b600067ffffffffffffffff82111561163a576116396115a4565b5b602082029050602081019050919050565b600080fd5b600061166361165e8461161f565b611604565b905080838252602082019050602084028301858111156116865761168561164b565b5b835b818110156116af578061169b8882611531565b845260208401935050602081019050611688565b5050509392505050565b600082601f8301126116ce576116cd61158e565b5b81356116de848260208601611650565b91505092915050565b600080600060608486031215611700576116ff6113f2565b5b600061170e8682870161141d565b935050602061171f8682870161141d565b925050604084013567ffffffffffffffff8111156117405761173f6113f7565b5b61174c868287016116b9565b9150509250925092565b60008115159050919050565b61176b81611756565b82525050565b60006020820190506117866000830184611762565b92915050565b6000611797826114be565b9050919050565b6117a78161178c565b81146117b257600080fd5b50565b6000813590506117c48161179e565b92915050565b600080604083850312156117e1576117e06113f2565b5b60006117ef858286016117b5565b92505060206118008582860161141d565b9150509250929050565b611813816114de565b811461181e57600080fd5b50565b6000813590506118308161180a565b92915050565b60006020828403121561184c5761184b6113f2565b5b600061185a84828501611821565b91505092915050565b60006060820190506118786000830186611478565b6118856020830185611478565b6118926040830184611762565b949350505050565b7f4e487b7100000000000000000000000000000000000000000000000000000000600052601160045260246000fd5b60006118d4826113fc565b91506118df836113fc565b92508282019050808211156118f7576118f661189a565b5b92915050565b7f4e487b7100000000000000000000000000000000000000000000000000000000600052601260045260246000fd5b6000611937826113fc565b9150611942836113fc565b925082611952576119516118fd565b5b828204905092915050565b7f4e487b7100000000000000000000000000000000000000000000000000000000600052603260045260246000fd5b6000611997826113fc565b91507fffffffffffffffffffffffffffffffffffffffffffffffffffffffffffffffff82036119c9576119c861189a565b5b600182019050919050565b6119dd8161178c565b82525050565b60006040820190506119f860008301856119d4565b611a056020830184611478565b9392505050565b6000604082019050611a216000830185611478565b611a2e6020830184611478565b9392505050565b600082825260208201905092915050565b7f4f776e61626c653a206e6577206f776e657220697320746865207a65726f206160008201527f6464726573730000000000000000000000000000000000000000000000000000602082015250565b6000611aa2602683611a35565b9150611aad82611a46565b604082019050919050565b60006020820190508181036000830152611ad181611a95565b9050919050565b600081905092915050565b50565b6000611af3600083611ad8565b9150611afe82611ae3565b600082019050919050565b6000611b1482611ae6565b9150819050919050565b6000604082019050611b3360008301856114f0565b611b406020830184611478565b9392505050565b7f4f776e61626c653a2063616c6c6572206973206e6f7420746865206f776e6572600082015250565b6000611b7d602083611a35565b9150611b8882611b47565b602082019050919050565b60006020820190508181036000830152611bac81611b70565b9050919050565b611bbc81611756565b8114611bc757600080fd5b50565b600081519050611bd981611bb3565b92915050565b600060208284031215611bf557611bf46113f2565b5b6000611c0384828501611bca565b91505092915050565b7f5361666545524332303a204552433230206f7065726174696f6e20646964206e60008201527f6f74207375636365656400000000000000000000000000000000000000000000602082015250565b6000611c68602a83611a35565b9150611c7382611c0c565b604082019050919050565b60006020820190508181036000830152611c9781611c5b565b9050919050565b7f416464726573733a20696e73756666696369656e742062616c616e636520666f60008201527f722063616c6c0000000000000000000000000000000000000000000000000000602082015250565b6000611cfa602683611a35565b9150611d0582611c9e565b604082019050919050565b60006020820190508181036000830152611d2981611ced565b9050919050565b600081519050919050565b60005b83811015611d59578082015181840152602081019050611d3e565b60008484015250505050565b6000611d7082611d30565b611d7a8185611ad8565b9350611d8a818560208601611d3b565b80840191505092915050565b6000611da28284611d65565b915081905092915050565b7f416464726573733a2063616c6c20746f206e6f6e2d636f6e7472616374000000600082015250565b6000611de3601d83611a35565b9150611dee82611dad565b602082019050919050565b60006020820190508181036000830152611e1281611dd6565b9050919050565b600081519050919050565b6000611e2f82611e19565b611e398185611a35565b9350611e49818560208601611d3b565b611e5281611593565b840191505092915050565b60006020820190508181036000830152611e778184611e24565b90509291505056fea2646970667358221220b97bb1efab841b357756f594c1521702936b031fa24b95ddb19df9c8c9cbc68764736f6c63430008130033",
  "linkReferences": {},
  "deployedLinkReferences": {}
}