{
  "_format": "hh-sol-artifact-1",
  "contractName": "VotingContract",
  "sourceName": "contracts/VotingContract .sol",
  "abi": [
    {
      "inputs": [],
      "name": "amountZero",
      "type": "error"
    },
    {
      "inputs": [],
      "name": "ethNotSent",
      "type": "error"
    },
    {
      "inputs": [],
      "name": "proposalNotValid",
      "type": "error"
    },
    {
      "inputs": [],
      "name": "timeElapsed",
      "type": "error"
    },
    {
      "inputs": [],
      "name": "timeNotElapsed",
      "type": "error"
    },
    {
      "inputs": [],
      "name": "voted",
      "type": "error"
    },
    {
      "inputs": [],
      "name": "votingNotClosed",
      "type": "error"
    },
    {
      "anonymous": false,
      "inputs": [
        {
          "indexed": false,
          "internalType": "uint8",
          "name": "version",
          "type": "uint8"
        }
      ],
      "name": "Initialized",
      "type": "event"
    },
    {
      "anonymous": false,
      "inputs": [
        {
          "indexed": false,
          "internalType": "bytes32",
          "name": "name",
          "type": "bytes32"
        }
      ],
      "name": "NewProposal",
      "type": "event"
    },
    {
      "anonymous": false,
      "inputs": [
        {
          "indexed": true,
          "internalType": "address",
          "name": "previousOwner",
          "type": "address"
        },
        {
          "indexed": true,
          "internalType": "address",
          "name": "newOwner",
          "type": "address"
        }
      ],
      "name": "OwnershipTransferred",
      "type": "event"
    },
    {
      "anonymous": false,
      "inputs": [
        {
          "indexed": true,
          "internalType": "uint256",
          "name": "proposalId",
          "type": "uint256"
        },
        {
          "indexed": true,
          "internalType": "address",
          "name": "voter",
          "type": "address"
        }
      ],
      "name": "Vote",
      "type": "event"
    },
    {
      "anonymous": false,
      "inputs": [
        {
          "indexed": false,
          "internalType": "uint256",
          "name": "winningProposalId",
          "type": "uint256"
        },
        {
          "indexed": false,
          "internalType": "uint256",
          "name": "winningProposalVotes",
          "type": "uint256"
        }
      ],
      "name": "VotingClosed",
      "type": "event"
    },
    {
      "inputs": [
        {
          "internalType": "bytes32",
          "name": "name",
          "type": "bytes32"
        }
      ],
      "name": "addProposal",
      "outputs": [],
      "stateMutability": "nonpayable",
      "type": "function"
    },
    {
      "inputs": [
        {
          "internalType": "uint256",
          "name": "",
          "type": "uint256"
        }
      ],
      "name": "addressRegistered",
      "outputs": [
        {
          "internalType": "address",
          "name": "",
          "type": "address"
        }
      ],
      "stateMutability": "view",
      "type": "function"
    },
    {
      "inputs": [],
      "name": "closeVoting",
      "outputs": [],
      "stateMutability": "nonpayable",
      "type": "function"
    },
    {
      "inputs": [],
      "name": "deleteProposal",
      "outputs": [],
      "stateMutability": "nonpayable",
      "type": "function"
    },
    {
      "inputs": [],
      "name": "donationAmount",
      "outputs": [
        {
          "internalType": "uint256",
          "name": "",
          "type": "uint256"
        }
      ],
      "stateMutability": "view",
      "type": "function"
    },
    {
      "inputs": [],
      "name": "donationGoal",
      "outputs": [
        {
          "internalType": "uint256",
          "name": "",
          "type": "uint256"
        }
      ],
      "stateMutability": "view",
      "type": "function"
    },
    {
      "inputs": [],
      "name": "getProposalLength",
      "outputs": [
        {
          "internalType": "uint256",
          "name": "",
          "type": "uint256"
        }
      ],
      "stateMutability": "view",
      "type": "function"
    },
    {
      "inputs": [
        {
          "internalType": "uint256",
          "name": "_votingEndTime",
          "type": "uint256"
        },
        {
          "internalType": "uint256",
          "name": "_donationGoal",
          "type": "uint256"
        },
        {
          "internalType": "bytes32[]",
          "name": "proposalNames",
          "type": "bytes32[]"
        }
      ],
      "name": "initVoting",
      "outputs": [],
      "stateMutability": "nonpayable",
      "type": "function"
    },
    {
      "inputs": [
        {
          "internalType": "address payable",
          "name": "_vaultAddress",
          "type": "address"
        },
        {
          "internalType": "address",
          "name": "ottiAddress",
          "type": "address"
        }
      ],
      "name": "initialize",
      "outputs": [],
      "stateMutability": "nonpayable",
      "type": "function"
    },
    {
      "inputs": [],
      "name": "isVotingClosed",
      "outputs": [
        {
          "internalType": "bool",
          "name": "",
          "type": "bool"
        }
      ],
      "stateMutability": "view",
      "type": "function"
    },
    {
      "inputs": [],
      "name": "latestWinner",
      "outputs": [
        {
          "internalType": "bytes32",
          "name": "name",
          "type": "bytes32"
        },
        {
          "internalType": "uint256",
          "name": "weidhtedVotes",
          "type": "uint256"
        },
        {
          "internalType": "uint256",
          "name": "votes",
          "type": "uint256"
        }
      ],
      "stateMutability": "view",
      "type": "function"
    },
    {
      "inputs": [],
      "name": "ottiToken",
      "outputs": [
        {
          "internalType": "address",
          "name": "",
          "type": "address"
        }
      ],
      "stateMutability": "view",
      "type": "function"
    },
    {
      "inputs": [],
      "name": "owner",
      "outputs": [
        {
          "internalType": "address",
          "name": "",
          "type": "address"
        }
      ],
      "stateMutability": "view",
      "type": "function"
    },
    {
      "inputs": [],
      "name": "proposal_counter",
      "outputs": [
        {
          "internalType": "uint256",
          "name": "_value",
          "type": "uint256"
        }
      ],
      "stateMutability": "view",
      "type": "function"
    },
    {
      "inputs": [
        {
          "internalType": "uint256",
          "name": "",
          "type": "uint256"
        }
      ],
      "name": "proposals",
      "outputs": [
        {
          "internalType": "bytes32",
          "name": "name",
          "type": "bytes32"
        },
        {
          "internalType": "uint256",
          "name": "weidhtedVotes",
          "type": "uint256"
        },
        {
          "internalType": "uint256",
          "name": "votes",
          "type": "uint256"
        }
      ],
      "stateMutability": "view",
      "type": "function"
    },
    {
      "inputs": [],
      "name": "renounceOwnership",
      "outputs": [],
      "stateMutability": "nonpayable",
      "type": "function"
    },
    {
      "inputs": [
        {
          "internalType": "address",
          "name": "newOwner",
          "type": "address"
        }
      ],
      "name": "transferOwnership",
      "outputs": [],
      "stateMutability": "nonpayable",
      "type": "function"
    },
    {
      "inputs": [
        {
          "internalType": "uint256",
          "name": "proposalId",
          "type": "uint256"
        }
      ],
      "name": "vote",
      "outputs": [],
      "stateMutability": "payable",
      "type": "function"
    },
    {
      "inputs": [
        {
          "internalType": "address",
          "name": "",
          "type": "address"
        }
      ],
      "name": "voters",
      "outputs": [
        {
          "internalType": "uint256",
          "name": "vote",
          "type": "uint256"
        },
        {
          "internalType": "uint256",
          "name": "weightVote",
          "type": "uint256"
        },
        {
          "internalType": "bool",
          "name": "voted",
          "type": "bool"
        }
      ],
      "stateMutability": "view",
      "type": "function"
    },
    {
      "inputs": [],
      "name": "votingEndTime",
      "outputs": [
        {
          "internalType": "uint256",
          "name": "",
          "type": "uint256"
        }
      ],
      "stateMutability": "view",
      "type": "function"
    },
    {
      "inputs": [],
      "name": "winningDonationVotes",
      "outputs": [
        {
          "internalType": "uint256",
          "name": "",
          "type": "uint256"
        }
      ],
      "stateMutability": "view",
      "type": "function"
    },
    {
      "inputs": [],
      "name": "winningProposalId",
      "outputs": [
        {
          "internalType": "uint256",
          "name": "",
          "type": "uint256"
        }
      ],
      "stateMutability": "view",
      "type": "function"
    },
    {
      "inputs": [
        {
          "internalType": "address payable",
          "name": "to",
          "type": "address"
        },
        {
          "internalType": "uint256",
          "name": "amount",
          "type": "uint256"
        }
      ],
      "name": "withdrawDonations",
      "outputs": [],
      "stateMutability": "nonpayable",
      "type": "function"
    }
  ],
  "bytecode": "0x608060405234801561001057600080fd5b50612420806100206000396000f3fe6080604052600436106101405760003560e01c80634bed6c23116100b65780638da5cb5b1161006f5780638da5cb5b14610409578063a3ec138d14610434578063be53a44514610473578063c631b2921461049e578063c64963c5146104b5578063f2fde38b146104e057610140565b80634bed6c231461031d5780635ab08f0014610348578063695b056914610371578063715018a61461039c5780637d2f7190146103b35780638263a938146103de57610140565b806317162df91161010857806317162df9146102215780631ea736e01461025e5780632199456e1461028957806342daf49d146102b257806345825c58146102c9578063485cc955146102f457610140565b80630121b93f14610145578063013cf08b14610161578063068781da146101a057806306ef53e0146101cb57806306efe3b0146101f8575b600080fd5b61015f600480360381019061015a91906117b1565b610509565b005b34801561016d57600080fd5b50610188600480360381019061018391906117b1565b610831565b60405161019793929190611806565b60405180910390f35b3480156101ac57600080fd5b506101b561085b565b6040516101c2919061187e565b60405180910390f35b3480156101d757600080fd5b506101e0610881565b6040516101ef93929190611806565b60405180910390f35b34801561020457600080fd5b5061021f600480360381019061021a91906118c5565b610899565b005b34801561022d57600080fd5b50610248600480360381019061024391906117b1565b610945565b604051610255919061187e565b60405180910390f35b34801561026a57600080fd5b50610273610984565b60405161028091906118f2565b60405180910390f35b34801561029557600080fd5b506102b060048036038101906102ab9190611a66565b61098a565b005b3480156102be57600080fd5b506102c7610ac5565b005b3480156102d557600080fd5b506102de610ad1565b6040516102eb9190611af0565b60405180910390f35b34801561030057600080fd5b5061031b60048036038101906103169190611b75565b610ae4565b005b34801561032957600080fd5b50610332610cc1565b60405161033f91906118f2565b60405180910390f35b34801561035457600080fd5b5061036f600480360381019061036a9190611bb5565b610cc7565b005b34801561037d57600080fd5b50610386610da8565b60405161039391906118f2565b60405180910390f35b3480156103a857600080fd5b506103b1610dae565b005b3480156103bf57600080fd5b506103c8610dc2565b6040516103d591906118f2565b60405180910390f35b3480156103ea57600080fd5b506103f3610dc8565b60405161040091906118f2565b60405180910390f35b34801561041557600080fd5b5061041e610dd9565b60405161042b919061187e565b60405180910390f35b34801561044057600080fd5b5061045b60048036038101906104569190611bf5565b610e03565b60405161046a93929190611c22565b60405180910390f35b34801561047f57600080fd5b50610488610e3a565b60405161049591906118f2565b60405180910390f35b3480156104aa57600080fd5b506104b3610e46565b005b3480156104c157600080fd5b506104ca610eeb565b6040516104d791906118f2565b60405180910390f35b3480156104ec57600080fd5b5061050760048036038101906105029190611bf5565b610ef1565b005b606554421115610545576040517fdc2cf3f500000000000000000000000000000000000000000000000000000000815260040160405180910390fd5b6000340361057f576040517fbcb27c3e00000000000000000000000000000000000000000000000000000000815260040160405180910390fd5b607260003373ffffffffffffffffffffffffffffffffffffffff1673ffffffffffffffffffffffffffffffffffffffff16815260200190815260200160002060020160009054906101000a900460ff1615610606576040517f3500f91e00000000000000000000000000000000000000000000000000000000815260040160405180910390fd5b610610606f610f74565b8111801561062757506000610625606f610f74565b145b1561065e576040517ff87f8f6200000000000000000000000000000000000000000000000000000000815260040160405180910390fd5b600034905080606760008282546106759190611c88565b9250508190555061068581610f82565b6000600a826106949190611ceb565b90506106c3607360009054906101000a900473ffffffffffffffffffffffffffffffffffffffff16338361104b565b6071339080600181540180825580915050600190039060005260206000200160009091909190916101000a81548173ffffffffffffffffffffffffffffffffffffffff021916908373ffffffffffffffffffffffffffffffffffffffff1602179055506000607260003373ffffffffffffffffffffffffffffffffffffffff1673ffffffffffffffffffffffffffffffffffffffff168152602001908152602001600020905083816000018190555082816001018190555060018160020160006101000a81548160ff0219169083151502179055506000607060008681526020019081526020016000209050838160010160008282546107c39190611c88565b9250508190555060018160020160008282546107df9190611c88565b925050819055503373ffffffffffffffffffffffffffffffffffffffff16857f10a412bf229fbac2408912cb271b8ff9eb39eb72da91dd0c8accab0fb101113560405160405180910390a35050505050565b60706020528060005260406000206000915090508060000154908060010154908060020154905083565b607360009054906101000a900473ffffffffffffffffffffffffffffffffffffffff1681565b606b8060000154908060010154908060020154905083565b6108a16110d1565b60006108ad606f610f74565b905060405180606001604052808381526020016000815260200160008152506070600083815260200190815260200160002060008201518160000155602082015181600101556040820151816002015590505061090a606f61114f565b7f2fa055ed2a16bf675cb77388be42cc263fd4f3feaac282dbcce8ae28691c960b826040516109399190611d1c565b60405180910390a15050565b6071818154811061095557600080fd5b906000526020600020016000915054906101000a900473ffffffffffffffffffffffffffffffffffffffff1681565b60655481565b6109926110d1565b606860009054906101000a900460ff166109d8576040517fc9c6a7d800000000000000000000000000000000000000000000000000000000815260040160405180910390fd5b6109e0611165565b6109e8610ac5565b42836109f49190611c88565b6065819055508160668190555060005b8151811015610aa4576000610a19606f610f74565b90506040518060600160405280848481518110610a3957610a38611d37565b5b6020026020010151815260200160008152602001600081525060706000838152602001908152602001600020600082015181600001556020820151816001015560408201518160020155905050610a90606f61114f565b508080610a9c90611d66565b915050610a04565b506000606860006101000a81548160ff021916908315150217905550505050565b610acf606f611256565b565b606860009054906101000a900460ff1681565b60008060019054906101000a900460ff16159050808015610b155750600160008054906101000a900460ff1660ff16105b80610b425750610b2430611263565b158015610b415750600160008054906101000a900460ff1660ff16145b5b610b81576040517f08c379a0000000000000000000000000000000000000000000000000000000008152600401610b7890611e31565b60405180910390fd5b60016000806101000a81548160ff021916908360ff1602179055508015610bbe576001600060016101000a81548160ff0219169083151502179055505b610bc6611286565b82606e60006101000a81548173ffffffffffffffffffffffffffffffffffffffff021916908373ffffffffffffffffffffffffffffffffffffffff1602179055506001606860006101000a81548160ff02191690831515021790555081607360006101000a81548173ffffffffffffffffffffffffffffffffffffffff021916908373ffffffffffffffffffffffffffffffffffffffff1602179055508015610cbc5760008060016101000a81548160ff0219169083151502179055507f7f26b83ff96e1f2b6a682f133852f6798a09c465da95921460cefb38474024986001604051610cb39190611ea3565b60405180910390a15b505050565b60675481565b610ccf6110d1565b606860009054906101000a900460ff16610d15576040517fc9c6a7d800000000000000000000000000000000000000000000000000000000815260040160405180910390fd5b606e60009054906101000a900473ffffffffffffffffffffffffffffffffffffffff1673ffffffffffffffffffffffffffffffffffffffff1663f3fef3a383836040518363ffffffff1660e01b8152600401610d72929190611ecd565b600060405180830381600087803b158015610d8c57600080fd5b505af1158015610da0573d6000803e3d6000fd5b505050505050565b606a5481565b610db66110d1565b610dc060006112df565b565b60665481565b6000610dd4606f610f74565b905090565b6000603360009054906101000a900473ffffffffffffffffffffffffffffffffffffffff16905090565b60726020528060005260406000206000915090508060000154908060010154908060020160009054906101000a900460ff16905083565b606f8060000154905081565b610e4e6110d1565b6065544211610e89576040517f851f071500000000000000000000000000000000000000000000000000000000815260040160405180910390fd5b610e916113a5565b6001606860006101000a81548160ff0219169083151502179055507faff28777f2409f4b37134d80d0e47af000be7515d291c576b1412337f3eeb653606954606a54604051610ee1929190611ef6565b60405180910390a1565b60695481565b610ef96110d1565b600073ffffffffffffffffffffffffffffffffffffffff168173ffffffffffffffffffffffffffffffffffffffff1603610f68576040517f08c379a0000000000000000000000000000000000000000000000000000000008152600401610f5f90611f91565b60405180910390fd5b610f71816112df565b50565b600081600001549050919050565b6000606e60009054906101000a900473ffffffffffffffffffffffffffffffffffffffff1673ffffffffffffffffffffffffffffffffffffffff1682604051610fca90611fe2565b60006040518083038185875af1925050503d8060008114611007576040519150601f19603f3d011682016040523d82523d6000602084013e61100c565b606091505b5050905080611047576040517f043deed500000000000000000000000000000000000000000000000000000000815260040160405180910390fd5b5050565b6110cc8363a9059cbb60e01b848460405160240161106a929190611ff7565b604051602081830303815290604052907bffffffffffffffffffffffffffffffffffffffffffffffffffffffff19166020820180517bffffffffffffffffffffffffffffffffffffffffffffffffffffffff8381831617835250505050611469565b505050565b6110d9611531565b73ffffffffffffffffffffffffffffffffffffffff166110f7610dd9565b73ffffffffffffffffffffffffffffffffffffffff161461114d576040517f08c379a00000000000000000000000000000000000000000000000000000000081526004016111449061206c565b60405180910390fd5b565b6001816000016000828254019250508190555050565b60005b607180549050811015611253576000607260006071848154811061118f5761118e611d37565b5b9060005260206000200160009054906101000a900473ffffffffffffffffffffffffffffffffffffffff1673ffffffffffffffffffffffffffffffffffffffff1673ffffffffffffffffffffffffffffffffffffffff16815260200190815260200160002090508060020160009054906101000a900460ff161561123f5760008160020160006101000a81548160ff02191690831515021790555060008160010181905550600081600001819055505b50808061124b90611d66565b915050611168565b50565b6000816000018190555050565b6000808273ffffffffffffffffffffffffffffffffffffffff163b119050919050565b600060019054906101000a900460ff166112d5576040517f08c379a00000000000000000000000000000000000000000000000000000000081526004016112cc906120fe565b60405180910390fd5b6112dd611539565b565b6000603360009054906101000a900473ffffffffffffffffffffffffffffffffffffffff16905081603360006101000a81548173ffffffffffffffffffffffffffffffffffffffff021916908373ffffffffffffffffffffffffffffffffffffffff1602179055508173ffffffffffffffffffffffffffffffffffffffff168173ffffffffffffffffffffffffffffffffffffffff167f8be0079c531659141344cd1fd0a4f28419497f9722a3daafe3b4186f6b6457e060405160405180910390a35050565b60008060005b6113b5606f610f74565b811161142c57600060706000838152602001908152602001600020905083816001015411806113f657508381600101541480156113f55750828160020154115b5b156114185780600101549350806002015492508160698190555083606a819055505b50808061142490611d66565b9150506113ab565b50607060006069548152602001908152602001600020606b6000820154816000015560018201548160010155600282015481600201559050505050565b60006114cb826040518060400160405280602081526020017f5361666545524332303a206c6f772d6c6576656c2063616c6c206661696c65648152508573ffffffffffffffffffffffffffffffffffffffff1661159a9092919063ffffffff16565b90506000815114806114ed5750808060200190518101906114ec919061214a565b5b61152c576040517f08c379a0000000000000000000000000000000000000000000000000000000008152600401611523906121e9565b60405180910390fd5b505050565b600033905090565b600060019054906101000a900460ff16611588576040517f08c379a000000000000000000000000000000000000000000000000000000000815260040161157f906120fe565b60405180910390fd5b611598611593611531565b6112df565b565b60606115a984846000856115b2565b90509392505050565b6060824710156115f7576040517f08c379a00000000000000000000000000000000000000000000000000000000081526004016115ee9061227b565b60405180910390fd5b6000808673ffffffffffffffffffffffffffffffffffffffff1685876040516116209190612301565b60006040518083038185875af1925050503d806000811461165d576040519150601f19603f3d011682016040523d82523d6000602084013e611662565b606091505b50915091506116738783838761167f565b92505050949350505050565b606083156116e15760008351036116d957611699856116f4565b6116d8576040517f08c379a00000000000000000000000000000000000000000000000000000000081526004016116cf90612364565b60405180910390fd5b5b8290506116ec565b6116eb8383611717565b5b949350505050565b6000808273ffffffffffffffffffffffffffffffffffffffff163b119050919050565b60008251111561172a5781518083602001fd5b806040517f08c379a000000000000000000000000000000000000000000000000000000000815260040161175e91906123c8565b60405180910390fd5b6000604051905090565b600080fd5b600080fd5b6000819050919050565b61178e8161177b565b811461179957600080fd5b50565b6000813590506117ab81611785565b92915050565b6000602082840312156117c7576117c6611771565b5b60006117d58482850161179c565b91505092915050565b6000819050919050565b6117f1816117de565b82525050565b6118008161177b565b82525050565b600060608201905061181b60008301866117e8565b61182860208301856117f7565b61183560408301846117f7565b949350505050565b600073ffffffffffffffffffffffffffffffffffffffff82169050919050565b60006118688261183d565b9050919050565b6118788161185d565b82525050565b6000602082019050611893600083018461186f565b92915050565b6118a2816117de565b81146118ad57600080fd5b50565b6000813590506118bf81611899565b92915050565b6000602082840312156118db576118da611771565b5b60006118e9848285016118b0565b91505092915050565b600060208201905061190760008301846117f7565b92915050565b600080fd5b6000601f19601f8301169050919050565b7f4e487b7100000000000000000000000000000000000000000000000000000000600052604160045260246000fd5b61195b82611912565b810181811067ffffffffffffffff8211171561197a57611979611923565b5b80604052505050565b600061198d611767565b90506119998282611952565b919050565b600067ffffffffffffffff8211156119b9576119b8611923565b5b602082029050602081019050919050565b600080fd5b60006119e26119dd8461199e565b611983565b90508083825260208201905060208402830185811115611a0557611a046119ca565b5b835b81811015611a2e5780611a1a88826118b0565b845260208401935050602081019050611a07565b5050509392505050565b600082601f830112611a4d57611a4c61190d565b5b8135611a5d8482602086016119cf565b91505092915050565b600080600060608486031215611a7f57611a7e611771565b5b6000611a8d8682870161179c565b9350506020611a9e8682870161179c565b925050604084013567ffffffffffffffff811115611abf57611abe611776565b5b611acb86828701611a38565b9150509250925092565b60008115159050919050565b611aea81611ad5565b82525050565b6000602082019050611b056000830184611ae1565b92915050565b6000611b168261183d565b9050919050565b611b2681611b0b565b8114611b3157600080fd5b50565b600081359050611b4381611b1d565b92915050565b611b528161185d565b8114611b5d57600080fd5b50565b600081359050611b6f81611b49565b92915050565b60008060408385031215611b8c57611b8b611771565b5b6000611b9a85828601611b34565b9250506020611bab85828601611b60565b9150509250929050565b60008060408385031215611bcc57611bcb611771565b5b6000611bda85828601611b34565b9250506020611beb8582860161179c565b9150509250929050565b600060208284031215611c0b57611c0a611771565b5b6000611c1984828501611b60565b91505092915050565b6000606082019050611c3760008301866117f7565b611c4460208301856117f7565b611c516040830184611ae1565b949350505050565b7f4e487b7100000000000000000000000000000000000000000000000000000000600052601160045260246000fd5b6000611c938261177b565b9150611c9e8361177b565b9250828201905080821115611cb657611cb5611c59565b5b92915050565b7f4e487b7100000000000000000000000000000000000000000000000000000000600052601260045260246000fd5b6000611cf68261177b565b9150611d018361177b565b925082611d1157611d10611cbc565b5b828204905092915050565b6000602082019050611d3160008301846117e8565b92915050565b7f4e487b7100000000000000000000000000000000000000000000000000000000600052603260045260246000fd5b6000611d718261177b565b91507fffffffffffffffffffffffffffffffffffffffffffffffffffffffffffffffff8203611da357611da2611c59565b5b600182019050919050565b600082825260208201905092915050565b7f496e697469616c697a61626c653a20636f6e747261637420697320616c72656160008201527f647920696e697469616c697a6564000000000000000000000000000000000000602082015250565b6000611e1b602e83611dae565b9150611e2682611dbf565b604082019050919050565b60006020820190508181036000830152611e4a81611e0e565b9050919050565b6000819050919050565b600060ff82169050919050565b6000819050919050565b6000611e8d611e88611e8384611e51565b611e68565b611e5b565b9050919050565b611e9d81611e72565b82525050565b6000602082019050611eb86000830184611e94565b92915050565b611ec781611b0b565b82525050565b6000604082019050611ee26000830185611ebe565b611eef60208301846117f7565b9392505050565b6000604082019050611f0b60008301856117f7565b611f1860208301846117f7565b9392505050565b7f4f776e61626c653a206e6577206f776e657220697320746865207a65726f206160008201527f6464726573730000000000000000000000000000000000000000000000000000602082015250565b6000611f7b602683611dae565b9150611f8682611f1f565b604082019050919050565b60006020820190508181036000830152611faa81611f6e565b9050919050565b600081905092915050565b50565b6000611fcc600083611fb1565b9150611fd782611fbc565b600082019050919050565b6000611fed82611fbf565b9150819050919050565b600060408201905061200c600083018561186f565b61201960208301846117f7565b9392505050565b7f4f776e61626c653a2063616c6c6572206973206e6f7420746865206f776e6572600082015250565b6000612056602083611dae565b915061206182612020565b602082019050919050565b6000602082019050818103600083015261208581612049565b9050919050565b7f496e697469616c697a61626c653a20636f6e7472616374206973206e6f74206960008201527f6e697469616c697a696e67000000000000000000000000000000000000000000602082015250565b60006120e8602b83611dae565b91506120f38261208c565b604082019050919050565b60006020820190508181036000830152612117816120db565b9050919050565b61212781611ad5565b811461213257600080fd5b50565b6000815190506121448161211e565b92915050565b6000602082840312156121605761215f611771565b5b600061216e84828501612135565b91505092915050565b7f5361666545524332303a204552433230206f7065726174696f6e20646964206e60008201527f6f74207375636365656400000000000000000000000000000000000000000000602082015250565b60006121d3602a83611dae565b91506121de82612177565b604082019050919050565b60006020820190508181036000830152612202816121c6565b9050919050565b7f416464726573733a20696e73756666696369656e742062616c616e636520666f60008201527f722063616c6c0000000000000000000000000000000000000000000000000000602082015250565b6000612265602683611dae565b915061227082612209565b604082019050919050565b6000602082019050818103600083015261229481612258565b9050919050565b600081519050919050565b60005b838110156122c45780820151818401526020810190506122a9565b60008484015250505050565b60006122db8261229b565b6122e58185611fb1565b93506122f58185602086016122a6565b80840191505092915050565b600061230d82846122d0565b915081905092915050565b7f416464726573733a2063616c6c20746f206e6f6e2d636f6e7472616374000000600082015250565b600061234e601d83611dae565b915061235982612318565b602082019050919050565b6000602082019050818103600083015261237d81612341565b9050919050565b600081519050919050565b600061239a82612384565b6123a48185611dae565b93506123b48185602086016122a6565b6123bd81611912565b840191505092915050565b600060208201905081810360008301526123e2818461238f565b90509291505056fea2646970667358221220a8488d4f2e8505e6271490898134fa187ddb634742a1eb8895bf7579d773d2ae64736f6c63430008130033",
  "linkReferences": {},
  "deployedLinkReferences": {}
}