{
  "_format": "hh-sol-artifact-1",
  "contractName": "VotingContract",
  "sourceName": "contracts/VotingContract .sol",
  "abi": [
    {
      "inputs": [
        {
          "internalType": "address payable",
          "name": "_vaultAddress",
          "type": "address"
        }
      ],
      "stateMutability": "nonpayable",
      "type": "constructor"
    },
    {
      "inputs": [],
      "name": "amountZero",
      "type": "error"
    },
    {
      "inputs": [],
      "name": "ethNotSent",
      "type": "error"
    },
    {
      "inputs": [],
      "name": "proposalNotValid",
      "type": "error"
    },
    {
      "inputs": [],
      "name": "timeElapsed",
      "type": "error"
    },
    {
      "inputs": [],
      "name": "timeNotElapsed",
      "type": "error"
    },
    {
      "inputs": [],
      "name": "voted",
      "type": "error"
    },
    {
      "inputs": [],
      "name": "votingNotClosed",
      "type": "error"
    },
    {
      "anonymous": false,
      "inputs": [
        {
          "indexed": true,
          "internalType": "address",
          "name": "previousOwner",
          "type": "address"
        },
        {
          "indexed": true,
          "internalType": "address",
          "name": "newOwner",
          "type": "address"
        }
      ],
      "name": "OwnershipTransferred",
      "type": "event"
    },
    {
      "anonymous": false,
      "inputs": [
        {
          "indexed": true,
          "internalType": "uint256",
          "name": "proposalId",
          "type": "uint256"
        },
        {
          "indexed": true,
          "internalType": "address",
          "name": "voter",
          "type": "address"
        }
      ],
      "name": "Vote",
      "type": "event"
    },
    {
      "anonymous": false,
      "inputs": [
        {
          "indexed": false,
          "internalType": "uint256",
          "name": "winningProposalId",
          "type": "uint256"
        },
        {
          "indexed": false,
          "internalType": "uint256",
          "name": "winningProposalVotes",
          "type": "uint256"
        }
      ],
      "name": "VotingClosed",
      "type": "event"
    },
    {
      "inputs": [
        {
          "internalType": "bytes32",
          "name": "name",
          "type": "bytes32"
        }
      ],
      "name": "addProposal",
      "outputs": [],
      "stateMutability": "nonpayable",
      "type": "function"
    },
    {
      "inputs": [
        {
          "internalType": "uint256",
          "name": "",
          "type": "uint256"
        }
      ],
      "name": "addressRegistered",
      "outputs": [
        {
          "internalType": "address",
          "name": "",
          "type": "address"
        }
      ],
      "stateMutability": "view",
      "type": "function"
    },
    {
      "inputs": [],
      "name": "closeVoting",
      "outputs": [],
      "stateMutability": "nonpayable",
      "type": "function"
    },
    {
      "inputs": [],
      "name": "donationAmount",
      "outputs": [
        {
          "internalType": "uint256",
          "name": "",
          "type": "uint256"
        }
      ],
      "stateMutability": "view",
      "type": "function"
    },
    {
      "inputs": [],
      "name": "donationGoal",
      "outputs": [
        {
          "internalType": "uint256",
          "name": "",
          "type": "uint256"
        }
      ],
      "stateMutability": "view",
      "type": "function"
    },
    {
      "inputs": [
        {
          "internalType": "uint256",
          "name": "_votingEndTime",
          "type": "uint256"
        },
        {
          "internalType": "uint256",
          "name": "_donationGoal",
          "type": "uint256"
        },
        {
          "internalType": "bytes32[]",
          "name": "proposalNames",
          "type": "bytes32[]"
        }
      ],
      "name": "initVoting",
      "outputs": [],
      "stateMutability": "nonpayable",
      "type": "function"
    },
    {
      "inputs": [],
      "name": "isVotingClosed",
      "outputs": [
        {
          "internalType": "bool",
          "name": "",
          "type": "bool"
        }
      ],
      "stateMutability": "view",
      "type": "function"
    },
    {
      "inputs": [],
      "name": "latestWinner",
      "outputs": [
        {
          "internalType": "bytes32",
          "name": "name",
          "type": "bytes32"
        },
        {
          "internalType": "uint256",
          "name": "weidhtedVotes",
          "type": "uint256"
        }
      ],
      "stateMutability": "view",
      "type": "function"
    },
    {
      "inputs": [],
      "name": "owner",
      "outputs": [
        {
          "internalType": "address",
          "name": "",
          "type": "address"
        }
      ],
      "stateMutability": "view",
      "type": "function"
    },
    {
      "inputs": [
        {
          "internalType": "uint256",
          "name": "",
          "type": "uint256"
        }
      ],
      "name": "proposals",
      "outputs": [
        {
          "internalType": "bytes32",
          "name": "name",
          "type": "bytes32"
        },
        {
          "internalType": "uint256",
          "name": "weidhtedVotes",
          "type": "uint256"
        }
      ],
      "stateMutability": "view",
      "type": "function"
    },
    {
      "inputs": [],
      "name": "proposalsCount",
      "outputs": [
        {
          "internalType": "uint256",
          "name": "",
          "type": "uint256"
        }
      ],
      "stateMutability": "view",
      "type": "function"
    },
    {
      "inputs": [],
      "name": "renounceOwnership",
      "outputs": [],
      "stateMutability": "nonpayable",
      "type": "function"
    },
    {
      "inputs": [
        {
          "internalType": "address",
          "name": "newOwner",
          "type": "address"
        }
      ],
      "name": "transferOwnership",
      "outputs": [],
      "stateMutability": "nonpayable",
      "type": "function"
    },
    {
      "inputs": [
        {
          "internalType": "uint256",
          "name": "proposalId",
          "type": "uint256"
        }
      ],
      "name": "vote",
      "outputs": [],
      "stateMutability": "payable",
      "type": "function"
    },
    {
      "inputs": [],
      "name": "votingEndTime",
      "outputs": [
        {
          "internalType": "uint256",
          "name": "",
          "type": "uint256"
        }
      ],
      "stateMutability": "view",
      "type": "function"
    },
    {
      "inputs": [],
      "name": "winningProposalId",
      "outputs": [
        {
          "internalType": "uint256",
          "name": "",
          "type": "uint256"
        }
      ],
      "stateMutability": "view",
      "type": "function"
    },
    {
      "inputs": [],
      "name": "winningProposalVotes",
      "outputs": [
        {
          "internalType": "uint256",
          "name": "",
          "type": "uint256"
        }
      ],
      "stateMutability": "view",
      "type": "function"
    },
    {
      "inputs": [
        {
          "internalType": "address payable",
          "name": "to",
          "type": "address"
        },
        {
          "internalType": "uint256",
          "name": "amount",
          "type": "uint256"
        }
      ],
      "name": "withdrawDonations",
      "outputs": [],
      "stateMutability": "nonpayable",
      "type": "function"
    }
  ],
  "bytecode": "0x60806040523480156200001157600080fd5b50604051620018ff380380620018ff8339818101604052810190620000379190620001f8565b620000576200004b620000c260201b60201c565b620000ca60201b60201c565b80600a60006101000a81548173ffffffffffffffffffffffffffffffffffffffff021916908373ffffffffffffffffffffffffffffffffffffffff16021790555060006009819055506001600460006101000a81548160ff021916908315150217905550506200022a565b600033905090565b60008060009054906101000a900473ffffffffffffffffffffffffffffffffffffffff169050816000806101000a81548173ffffffffffffffffffffffffffffffffffffffff021916908373ffffffffffffffffffffffffffffffffffffffff1602179055508173ffffffffffffffffffffffffffffffffffffffff168173ffffffffffffffffffffffffffffffffffffffff167f8be0079c531659141344cd1fd0a4f28419497f9722a3daafe3b4186f6b6457e060405160405180910390a35050565b600080fd5b600073ffffffffffffffffffffffffffffffffffffffff82169050919050565b6000620001c08262000193565b9050919050565b620001d281620001b3565b8114620001de57600080fd5b50565b600081519050620001f281620001c7565b92915050565b6000602082840312156200021157620002106200018e565b5b60006200022184828501620001e1565b91505092915050565b6116c5806200023a6000396000f3fe6080604052600436106101095760003560e01c806345825c58116100955780637d2f7190116100645780637d2f71901461033a5780638da5cb5b14610365578063c631b29214610390578063c64963c5146103a7578063f2fde38b146103d257610109565b806345825c58146102a45780634bed6c23146102cf5780635ab08f00146102fa578063715018a61461032357610109565b80630a9f46ad116100dc5780630a9f46ad146101bd57806317162df9146101e85780631ea736e0146102255780632199456e146102505780633f1b40811461027957610109565b80630121b93f1461010e578063013cf08b1461012a57806306ef53e01461016857806306efe3b014610194575b600080fd5b61012860048036038101906101239190610fdc565b6103fb565b005b34801561013657600080fd5b50610151600480360381019061014c9190610fdc565b6106c9565b60405161015f929190611031565b60405180910390f35b34801561017457600080fd5b5061017d6106fd565b60405161018b929190611031565b60405180910390f35b3480156101a057600080fd5b506101bb60048036038101906101b69190611086565b61070f565b005b3480156101c957600080fd5b506101d2610789565b6040516101df91906110b3565b60405180910390f35b3480156101f457600080fd5b5061020f600480360381019061020a9190610fdc565b61078f565b60405161021c919061110f565b60405180910390f35b34801561023157600080fd5b5061023a6107ce565b60405161024791906110b3565b60405180910390f35b34801561025c57600080fd5b5061027760048036038101906102729190611283565b6107d4565b005b34801561028557600080fd5b5061028e610914565b60405161029b91906110b3565b60405180910390f35b3480156102b057600080fd5b506102b961091a565b6040516102c6919061130d565b60405180910390f35b3480156102db57600080fd5b506102e461092d565b6040516102f191906110b3565b60405180910390f35b34801561030657600080fd5b50610321600480360381019061031c9190611366565b610933565b005b34801561032f57600080fd5b50610338610a14565b005b34801561034657600080fd5b5061034f610a28565b60405161035c91906110b3565b60405180910390f35b34801561037157600080fd5b5061037a610a2e565b604051610387919061110f565b60405180910390f35b34801561039c57600080fd5b506103a5610a57565b005b3480156103b357600080fd5b506103bc610afc565b6040516103c991906110b3565b60405180910390f35b3480156103de57600080fd5b506103f960048036038101906103f491906113d2565b610b02565b005b600154421115610437576040517fdc2cf3f500000000000000000000000000000000000000000000000000000000815260040160405180910390fd5b60003403610471576040517fbcb27c3e00000000000000000000000000000000000000000000000000000000815260040160405180910390fd5b600d60003373ffffffffffffffffffffffffffffffffffffffff1673ffffffffffffffffffffffffffffffffffffffff16815260200190815260200160002060020160009054906101000a900460ff16156104f8576040517f3500f91e00000000000000000000000000000000000000000000000000000000815260040160405180910390fd5b600b805490508111801561051157506000600b80549050145b15610548576040517ff87f8f6200000000000000000000000000000000000000000000000000000000815260040160405180910390fd5b6000349050806003600082825461055f919061142e565b9250508190555061056f81610b85565b600c339080600181540180825580915050600190039060005260206000200160009091909190916101000a81548173ffffffffffffffffffffffffffffffffffffffff021916908373ffffffffffffffffffffffffffffffffffffffff1602179055506000600d60003373ffffffffffffffffffffffffffffffffffffffff1673ffffffffffffffffffffffffffffffffffffffff168152602001908152602001600020905082816000018190555081816001018190555060018160020160006101000a81548160ff02191690831515021790555081600b848154811061065957610658611462565b5b90600052602060002090600202016001016000828254610679919061142e565b925050819055503373ffffffffffffffffffffffffffffffffffffffff16837f10a412bf229fbac2408912cb271b8ff9eb39eb72da91dd0c8accab0fb101113560405160405180910390a3505050565b600b81815481106106d957600080fd5b90600052602060002090600202016000915090508060000154908060010154905082565b60078060000154908060010154905082565b610717610c4e565b600b604051806040016040528083815260200160008152509080600181540180825580915050600190039060005260206000209060020201600090919091909150600082015181600001556020820151816001015550506009600081548092919061078190611491565b919050555050565b60095481565b600c818154811061079f57600080fd5b906000526020600020016000915054906101000a900473ffffffffffffffffffffffffffffffffffffffff1681565b60015481565b6107dc610c4e565b600460009054906101000a900460ff16610822576040517fc9c6a7d800000000000000000000000000000000000000000000000000000000815260040160405180910390fd5b61082a610ccc565b610832610da5565b428361083e919061142e565b6001819055508160028190555060005b81518110156108f357600b604051806040016040528084848151811061087757610876611462565b5b602002602001015181526020016000815250908060018154018082558091505060019003906000526020600020906002020160009091909190915060008201518160000155602082015181600101555050600960008154809291906108db90611491565b919050555080806108eb90611491565b91505061084e565b506000600460006101000a81548160ff021916908315150217905550505050565b60065481565b600460009054906101000a900460ff1681565b60035481565b61093b610c4e565b600460009054906101000a900460ff16610981576040517fc9c6a7d800000000000000000000000000000000000000000000000000000000815260040160405180910390fd5b600a60009054906101000a900473ffffffffffffffffffffffffffffffffffffffff1673ffffffffffffffffffffffffffffffffffffffff1663f3fef3a383836040518363ffffffff1660e01b81526004016109de9291906114e8565b600060405180830381600087803b1580156109f857600080fd5b505af1158015610a0c573d6000803e3d6000fd5b505050505050565b610a1c610c4e565b610a266000610db5565b565b60025481565b60008060009054906101000a900473ffffffffffffffffffffffffffffffffffffffff16905090565b610a5f610c4e565b6001544211610a9a576040517f851f071500000000000000000000000000000000000000000000000000000000815260040160405180910390fd5b610aa2610e79565b6001600460006101000a81548160ff0219169083151502179055507faff28777f2409f4b37134d80d0e47af000be7515d291c576b1412337f3eeb653600554600654604051610af2929190611511565b60405180910390a1565b60055481565b610b0a610c4e565b600073ffffffffffffffffffffffffffffffffffffffff168173ffffffffffffffffffffffffffffffffffffffff1603610b79576040517f08c379a0000000000000000000000000000000000000000000000000000000008152600401610b70906115bd565b60405180910390fd5b610b8281610db5565b50565b6000600a60009054906101000a900473ffffffffffffffffffffffffffffffffffffffff1673ffffffffffffffffffffffffffffffffffffffff1682604051610bcd9061160e565b60006040518083038185875af1925050503d8060008114610c0a576040519150601f19603f3d011682016040523d82523d6000602084013e610c0f565b606091505b5050905080610c4a576040517f043deed500000000000000000000000000000000000000000000000000000000815260040160405180910390fd5b5050565b610c56610f3f565b73ffffffffffffffffffffffffffffffffffffffff16610c74610a2e565b73ffffffffffffffffffffffffffffffffffffffff1614610cca576040517f08c379a0000000000000000000000000000000000000000000000000000000008152600401610cc19061166f565b60405180910390fd5b565b60005b600c80549050811015610da2576000600d6000600c8481548110610cf657610cf5611462565b5b9060005260206000200160009054906101000a900473ffffffffffffffffffffffffffffffffffffffff1673ffffffffffffffffffffffffffffffffffffffff1673ffffffffffffffffffffffffffffffffffffffff168152602001908152602001600020905060008160020160006101000a81548160ff0219169083151502179055506000816001018190555060008160000181905550508080610d9a90611491565b915050610ccf565b50565b600b6000610db39190610f47565b565b60008060009054906101000a900473ffffffffffffffffffffffffffffffffffffffff169050816000806101000a81548173ffffffffffffffffffffffffffffffffffffffff021916908373ffffffffffffffffffffffffffffffffffffffff1602179055508173ffffffffffffffffffffffffffffffffffffffff168173ffffffffffffffffffffffffffffffffffffffff167f8be0079c531659141344cd1fd0a4f28419497f9722a3daafe3b4186f6b6457e060405160405180910390a35050565b6000805b600954811015610efe5781600b8281548110610e9c57610e9b611462565b5b9060005260206000209060020201600101541115610eeb57600b8181548110610ec857610ec7611462565b5b906000526020600020906002020160010154915080600581905550816006819055505b8080610ef690611491565b915050610e7d565b50600b60055481548110610f1557610f14611462565b5b90600052602060002090600202016007600082015481600001556001820154816001015590505050565b600033905090565b5080546000825560020290600052602060002090810190610f689190610f6b565b50565b5b80821115610f8e57600080820160009055600182016000905550600201610f6c565b5090565b6000604051905090565b600080fd5b600080fd5b6000819050919050565b610fb981610fa6565b8114610fc457600080fd5b50565b600081359050610fd681610fb0565b92915050565b600060208284031215610ff257610ff1610f9c565b5b600061100084828501610fc7565b91505092915050565b6000819050919050565b61101c81611009565b82525050565b61102b81610fa6565b82525050565b60006040820190506110466000830185611013565b6110536020830184611022565b9392505050565b61106381611009565b811461106e57600080fd5b50565b6000813590506110808161105a565b92915050565b60006020828403121561109c5761109b610f9c565b5b60006110aa84828501611071565b91505092915050565b60006020820190506110c86000830184611022565b92915050565b600073ffffffffffffffffffffffffffffffffffffffff82169050919050565b60006110f9826110ce565b9050919050565b611109816110ee565b82525050565b60006020820190506111246000830184611100565b92915050565b600080fd5b6000601f19601f8301169050919050565b7f4e487b7100000000000000000000000000000000000000000000000000000000600052604160045260246000fd5b6111788261112f565b810181811067ffffffffffffffff8211171561119757611196611140565b5b80604052505050565b60006111aa610f92565b90506111b6828261116f565b919050565b600067ffffffffffffffff8211156111d6576111d5611140565b5b602082029050602081019050919050565b600080fd5b60006111ff6111fa846111bb565b6111a0565b90508083825260208201905060208402830185811115611222576112216111e7565b5b835b8181101561124b57806112378882611071565b845260208401935050602081019050611224565b5050509392505050565b600082601f83011261126a5761126961112a565b5b813561127a8482602086016111ec565b91505092915050565b60008060006060848603121561129c5761129b610f9c565b5b60006112aa86828701610fc7565b93505060206112bb86828701610fc7565b925050604084013567ffffffffffffffff8111156112dc576112db610fa1565b5b6112e886828701611255565b9150509250925092565b60008115159050919050565b611307816112f2565b82525050565b600060208201905061132260008301846112fe565b92915050565b6000611333826110ce565b9050919050565b61134381611328565b811461134e57600080fd5b50565b6000813590506113608161133a565b92915050565b6000806040838503121561137d5761137c610f9c565b5b600061138b85828601611351565b925050602061139c85828601610fc7565b9150509250929050565b6113af816110ee565b81146113ba57600080fd5b50565b6000813590506113cc816113a6565b92915050565b6000602082840312156113e8576113e7610f9c565b5b60006113f6848285016113bd565b91505092915050565b7f4e487b7100000000000000000000000000000000000000000000000000000000600052601160045260246000fd5b600061143982610fa6565b915061144483610fa6565b925082820190508082111561145c5761145b6113ff565b5b92915050565b7f4e487b7100000000000000000000000000000000000000000000000000000000600052603260045260246000fd5b600061149c82610fa6565b91507fffffffffffffffffffffffffffffffffffffffffffffffffffffffffffffffff82036114ce576114cd6113ff565b5b600182019050919050565b6114e281611328565b82525050565b60006040820190506114fd60008301856114d9565b61150a6020830184611022565b9392505050565b60006040820190506115266000830185611022565b6115336020830184611022565b9392505050565b600082825260208201905092915050565b7f4f776e61626c653a206e6577206f776e657220697320746865207a65726f206160008201527f6464726573730000000000000000000000000000000000000000000000000000602082015250565b60006115a760268361153a565b91506115b28261154b565b604082019050919050565b600060208201905081810360008301526115d68161159a565b9050919050565b600081905092915050565b50565b60006115f86000836115dd565b9150611603826115e8565b600082019050919050565b6000611619826115eb565b9150819050919050565b7f4f776e61626c653a2063616c6c6572206973206e6f7420746865206f776e6572600082015250565b600061165960208361153a565b915061166482611623565b602082019050919050565b600060208201905081810360008301526116888161164c565b905091905056fea264697066735822122067166cd30e19a3db0c445e5039f43f44874a3dbde8a4bfd19a081e635ee1455264736f6c63430008130033",
  "linkReferences": {},
  "deployedLinkReferences": {}
}