{
  "_format": "hh-sol-artifact-1",
  "contractName": "Otti",
  "sourceName": "contracts/Otti.sol",
  "abi": [
    {
      "inputs": [
        {
          "internalType": "string",
          "name": "_name",
          "type": "string"
        },
        {
          "internalType": "string",
          "name": "_sym",
          "type": "string"
        }
      ],
      "stateMutability": "nonpayable",
      "type": "constructor"
    },
    {
      "anonymous": false,
      "inputs": [
        {
          "indexed": true,
          "internalType": "address",
          "name": "owner",
          "type": "address"
        },
        {
          "indexed": true,
          "internalType": "address",
          "name": "spender",
          "type": "address"
        },
        {
          "indexed": false,
          "internalType": "uint256",
          "name": "value",
          "type": "uint256"
        }
      ],
      "name": "Approval",
      "type": "event"
    },
    {
      "anonymous": false,
      "inputs": [
        {
          "indexed": true,
          "internalType": "address",
          "name": "previousOwner",
          "type": "address"
        },
        {
          "indexed": true,
          "internalType": "address",
          "name": "newOwner",
          "type": "address"
        }
      ],
      "name": "OwnershipTransferred",
      "type": "event"
    },
    {
      "anonymous": false,
      "inputs": [
        {
          "indexed": true,
          "internalType": "address",
          "name": "from",
          "type": "address"
        },
        {
          "indexed": true,
          "internalType": "address",
          "name": "to",
          "type": "address"
        },
        {
          "indexed": false,
          "internalType": "uint256",
          "name": "value",
          "type": "uint256"
        }
      ],
      "name": "Transfer",
      "type": "event"
    },
    {
      "inputs": [
        {
          "internalType": "address",
          "name": "owner",
          "type": "address"
        },
        {
          "internalType": "address",
          "name": "spender",
          "type": "address"
        }
      ],
      "name": "allowance",
      "outputs": [
        {
          "internalType": "uint256",
          "name": "",
          "type": "uint256"
        }
      ],
      "stateMutability": "view",
      "type": "function"
    },
    {
      "inputs": [
        {
          "internalType": "address",
          "name": "spender",
          "type": "address"
        },
        {
          "internalType": "uint256",
          "name": "amount",
          "type": "uint256"
        }
      ],
      "name": "approve",
      "outputs": [
        {
          "internalType": "bool",
          "name": "",
          "type": "bool"
        }
      ],
      "stateMutability": "nonpayable",
      "type": "function"
    },
    {
      "inputs": [
        {
          "internalType": "address",
          "name": "account",
          "type": "address"
        }
      ],
      "name": "balanceOf",
      "outputs": [
        {
          "internalType": "uint256",
          "name": "",
          "type": "uint256"
        }
      ],
      "stateMutability": "view",
      "type": "function"
    },
    {
      "inputs": [],
      "name": "decimals",
      "outputs": [
        {
          "internalType": "uint8",
          "name": "",
          "type": "uint8"
        }
      ],
      "stateMutability": "view",
      "type": "function"
    },
    {
      "inputs": [
        {
          "internalType": "address",
          "name": "spender",
          "type": "address"
        },
        {
          "internalType": "uint256",
          "name": "subtractedValue",
          "type": "uint256"
        }
      ],
      "name": "decreaseAllowance",
      "outputs": [
        {
          "internalType": "bool",
          "name": "",
          "type": "bool"
        }
      ],
      "stateMutability": "nonpayable",
      "type": "function"
    },
    {
      "inputs": [
        {
          "internalType": "address",
          "name": "spender",
          "type": "address"
        },
        {
          "internalType": "uint256",
          "name": "addedValue",
          "type": "uint256"
        }
      ],
      "name": "increaseAllowance",
      "outputs": [
        {
          "internalType": "bool",
          "name": "",
          "type": "bool"
        }
      ],
      "stateMutability": "nonpayable",
      "type": "function"
    },
    {
      "inputs": [
        {
          "internalType": "address",
          "name": "account",
          "type": "address"
        },
        {
          "internalType": "uint256",
          "name": "amount",
          "type": "uint256"
        }
      ],
      "name": "mint",
      "outputs": [],
      "stateMutability": "nonpayable",
      "type": "function"
    },
    {
      "inputs": [],
      "name": "name",
      "outputs": [
        {
          "internalType": "string",
          "name": "",
          "type": "string"
        }
      ],
      "stateMutability": "view",
      "type": "function"
    },
    {
      "inputs": [],
      "name": "owner",
      "outputs": [
        {
          "internalType": "address",
          "name": "",
          "type": "address"
        }
      ],
      "stateMutability": "view",
      "type": "function"
    },
    {
      "inputs": [],
      "name": "renounceOwnership",
      "outputs": [],
      "stateMutability": "nonpayable",
      "type": "function"
    },
    {
      "inputs": [],
      "name": "symbol",
      "outputs": [
        {
          "internalType": "string",
          "name": "",
          "type": "string"
        }
      ],
      "stateMutability": "view",
      "type": "function"
    },
    {
      "inputs": [],
      "name": "totalSupply",
      "outputs": [
        {
          "internalType": "uint256",
          "name": "",
          "type": "uint256"
        }
      ],
      "stateMutability": "view",
      "type": "function"
    },
    {
      "inputs": [
        {
          "internalType": "address",
          "name": "to",
          "type": "address"
        },
        {
          "internalType": "uint256",
          "name": "amount",
          "type": "uint256"
        }
      ],
      "name": "transfer",
      "outputs": [
        {
          "internalType": "bool",
          "name": "",
          "type": "bool"
        }
      ],
      "stateMutability": "nonpayable",
      "type": "function"
    },
    {
      "inputs": [
        {
          "internalType": "address",
          "name": "from",
          "type": "address"
        },
        {
          "internalType": "address",
          "name": "to",
          "type": "address"
        },
        {
          "internalType": "uint256",
          "name": "amount",
          "type": "uint256"
        }
      ],
      "name": "transferFrom",
      "outputs": [
        {
          "internalType": "bool",
          "name": "",
          "type": "bool"
        }
      ],
      "stateMutability": "nonpayable",
      "type": "function"
    },
    {
      "inputs": [
        {
          "internalType": "address",
          "name": "newOwner",
          "type": "address"
        }
      ],
      "name": "transferOwnership",
      "outputs": [],
      "stateMutability": "nonpayable",
      "type": "function"
    },
    {
      "inputs": [
        {
          "internalType": "address",
          "name": "newOwner",
          "type": "address"
        },
        {
          "internalType": "uint256",
          "name": "_initialSupply",
          "type": "uint256"
        }
      ],
      "name": "transferOwnershipToContract",
      "outputs": [],
      "stateMutability": "nonpayable",
      "type": "function"
    }
  ],
  "bytecode": "0x60806040523480156200001157600080fd5b5060405162001f2a38038062001f2a8339818101604052810190620000379190620002e6565b8181620000596200004d6200008760201b60201c565b6200008f60201b60201c565b81600490816200006a9190620005b6565b5080600590816200007c9190620005b6565b50505050506200069d565b600033905090565b60008060009054906101000a900473ffffffffffffffffffffffffffffffffffffffff169050816000806101000a81548173ffffffffffffffffffffffffffffffffffffffff021916908373ffffffffffffffffffffffffffffffffffffffff1602179055508173ffffffffffffffffffffffffffffffffffffffff168173ffffffffffffffffffffffffffffffffffffffff167f8be0079c531659141344cd1fd0a4f28419497f9722a3daafe3b4186f6b6457e060405160405180910390a35050565b6000604051905090565b600080fd5b600080fd5b600080fd5b600080fd5b6000601f19601f8301169050919050565b7f4e487b7100000000000000000000000000000000000000000000000000000000600052604160045260246000fd5b620001bc8262000171565b810181811067ffffffffffffffff82111715620001de57620001dd62000182565b5b80604052505050565b6000620001f362000153565b9050620002018282620001b1565b919050565b600067ffffffffffffffff82111562000224576200022362000182565b5b6200022f8262000171565b9050602081019050919050565b60005b838110156200025c5780820151818401526020810190506200023f565b60008484015250505050565b60006200027f620002798462000206565b620001e7565b9050828152602081018484840111156200029e576200029d6200016c565b5b620002ab8482856200023c565b509392505050565b600082601f830112620002cb57620002ca62000167565b5b8151620002dd84826020860162000268565b91505092915050565b600080604083850312156200030057620002ff6200015d565b5b600083015167ffffffffffffffff81111562000321576200032062000162565b5b6200032f85828601620002b3565b925050602083015167ffffffffffffffff81111562000353576200035262000162565b5b6200036185828601620002b3565b9150509250929050565b600081519050919050565b7f4e487b7100000000000000000000000000000000000000000000000000000000600052602260045260246000fd5b60006002820490506001821680620003be57607f821691505b602082108103620003d457620003d362000376565b5b50919050565b60008190508160005260206000209050919050565b60006020601f8301049050919050565b600082821b905092915050565b6000600883026200043e7fffffffffffffffffffffffffffffffffffffffffffffffffffffffffffffffff82620003ff565b6200044a8683620003ff565b95508019841693508086168417925050509392505050565b6000819050919050565b6000819050919050565b600062000497620004916200048b8462000462565b6200046c565b62000462565b9050919050565b6000819050919050565b620004b38362000476565b620004cb620004c2826200049e565b8484546200040c565b825550505050565b600090565b620004e2620004d3565b620004ef818484620004a8565b505050565b5b8181101562000517576200050b600082620004d8565b600181019050620004f5565b5050565b601f82111562000566576200053081620003da565b6200053b84620003ef565b810160208510156200054b578190505b620005636200055a85620003ef565b830182620004f4565b50505b505050565b600082821c905092915050565b60006200058b600019846008026200056b565b1980831691505092915050565b6000620005a6838362000578565b9150826002028217905092915050565b620005c1826200036b565b67ffffffffffffffff811115620005dd57620005dc62000182565b5b620005e98254620003a5565b620005f68282856200051b565b600060209050601f8311600181146200062e576000841562000619578287015190505b62000625858262000598565b86555062000695565b601f1984166200063e86620003da565b60005b82811015620006685784890151825560018201915060208501945060208101905062000641565b8683101562000688578489015162000684601f89168262000578565b8355505b6001600288020188555050505b505050505050565b61187d80620006ad6000396000f3fe608060405234801561001057600080fd5b50600436106101005760003560e01c806370a0823111610097578063a457c2d711610066578063a457c2d71461029d578063a9059cbb146102cd578063dd62ed3e146102fd578063f2fde38b1461032d57610100565b806370a0823114610227578063715018a6146102575780638da5cb5b1461026157806395d89b411461027f57610100565b8063313ce567116100d3578063313ce567146101a157806339509351146101bf5780633f5b064e146101ef57806340c10f191461020b57610100565b806306fdde0314610105578063095ea7b31461012357806318160ddd1461015357806323b872dd14610171575b600080fd5b61010d610349565b60405161011a9190610f84565b60405180910390f35b61013d6004803603810190610138919061103f565b6103db565b60405161014a919061109a565b60405180910390f35b61015b6103fe565b60405161016891906110c4565b60405180910390f35b61018b600480360381019061018691906110df565b610408565b604051610198919061109a565b60405180910390f35b6101a9610437565b6040516101b6919061114e565b60405180910390f35b6101d960048036038101906101d4919061103f565b610440565b6040516101e6919061109a565b60405180910390f35b6102096004803603810190610204919061103f565b610477565b005b6102256004803603810190610220919061103f565b6104a9565b005b610241600480360381019061023c9190611169565b6104bf565b60405161024e91906110c4565b60405180910390f35b61025f610508565b005b61026961051c565b60405161027691906111a5565b60405180910390f35b610287610545565b6040516102949190610f84565b60405180910390f35b6102b760048036038101906102b2919061103f565b6105d7565b6040516102c4919061109a565b60405180910390f35b6102e760048036038101906102e2919061103f565b61064e565b6040516102f4919061109a565b60405180910390f35b610317600480360381019061031291906111c0565b610671565b60405161032491906110c4565b60405180910390f35b61034760048036038101906103429190611169565b6106f8565b005b6060600480546103589061122f565b80601f01602080910402602001604051908101604052809291908181526020018280546103849061122f565b80156103d15780601f106103a6576101008083540402835291602001916103d1565b820191906000526020600020905b8154815290600101906020018083116103b457829003601f168201915b5050505050905090565b6000806103e661077b565b90506103f3818585610783565b600191505092915050565b6000600354905090565b60008061041361077b565b905061042085828561094c565b61042b8585856109d8565b60019150509392505050565b60006012905090565b60008061044b61077b565b905061046c81858561045d8589610671565b610467919061128f565b610783565b600191505092915050565b61047f610c51565b610488826106f8565b6104a582670de0b6b3a7640000836104a091906112c3565b610ccf565b5050565b6104b1610c51565b6104bb8282610ccf565b5050565b6000600160008373ffffffffffffffffffffffffffffffffffffffff1673ffffffffffffffffffffffffffffffffffffffff168152602001908152602001600020549050919050565b610510610c51565b61051a6000610e26565b565b60008060009054906101000a900473ffffffffffffffffffffffffffffffffffffffff16905090565b6060600580546105549061122f565b80601f01602080910402602001604051908101604052809291908181526020018280546105809061122f565b80156105cd5780601f106105a2576101008083540402835291602001916105cd565b820191906000526020600020905b8154815290600101906020018083116105b057829003601f168201915b5050505050905090565b6000806105e261077b565b905060006105f08286610671565b905083811015610635576040517f08c379a000000000000000000000000000000000000000000000000000000000815260040161062c90611377565b60405180910390fd5b6106428286868403610783565b60019250505092915050565b60008061065961077b565b90506106668185856109d8565b600191505092915050565b6000600260008473ffffffffffffffffffffffffffffffffffffffff1673ffffffffffffffffffffffffffffffffffffffff16815260200190815260200160002060008373ffffffffffffffffffffffffffffffffffffffff1673ffffffffffffffffffffffffffffffffffffffff16815260200190815260200160002054905092915050565b610700610c51565b600073ffffffffffffffffffffffffffffffffffffffff168173ffffffffffffffffffffffffffffffffffffffff160361076f576040517f08c379a000000000000000000000000000000000000000000000000000000000815260040161076690611409565b60405180910390fd5b61077881610e26565b50565b600033905090565b600073ffffffffffffffffffffffffffffffffffffffff168373ffffffffffffffffffffffffffffffffffffffff16036107f2576040517f08c379a00000000000000000000000000000000000000000000000000000000081526004016107e99061149b565b60405180910390fd5b600073ffffffffffffffffffffffffffffffffffffffff168273ffffffffffffffffffffffffffffffffffffffff1603610861576040517f08c379a00000000000000000000000000000000000000000000000000000000081526004016108589061152d565b60405180910390fd5b80600260008573ffffffffffffffffffffffffffffffffffffffff1673ffffffffffffffffffffffffffffffffffffffff16815260200190815260200160002060008473ffffffffffffffffffffffffffffffffffffffff1673ffffffffffffffffffffffffffffffffffffffff168152602001908152602001600020819055508173ffffffffffffffffffffffffffffffffffffffff168373ffffffffffffffffffffffffffffffffffffffff167f8c5be1e5ebec7d5bd14f71427d1e84f3dd0314c0f7b2291e5b200ac8c7c3b9258360405161093f91906110c4565b60405180910390a3505050565b60006109588484610671565b90507fffffffffffffffffffffffffffffffffffffffffffffffffffffffffffffffff81146109d257818110156109c4576040517f08c379a00000000000000000000000000000000000000000000000000000000081526004016109bb90611599565b60405180910390fd5b6109d18484848403610783565b5b50505050565b600073ffffffffffffffffffffffffffffffffffffffff168373ffffffffffffffffffffffffffffffffffffffff1603610a47576040517f08c379a0000000000000000000000000000000000000000000000000000000008152600401610a3e9061162b565b60405180910390fd5b600073ffffffffffffffffffffffffffffffffffffffff168273ffffffffffffffffffffffffffffffffffffffff1603610ab6576040517f08c379a0000000000000000000000000000000000000000000000000000000008152600401610aad906116bd565b60405180910390fd5b610ac1838383610eea565b6000600160008573ffffffffffffffffffffffffffffffffffffffff1673ffffffffffffffffffffffffffffffffffffffff16815260200190815260200160002054905081811015610b48576040517f08c379a0000000000000000000000000000000000000000000000000000000008152600401610b3f9061174f565b60405180910390fd5b818103600160008673ffffffffffffffffffffffffffffffffffffffff1673ffffffffffffffffffffffffffffffffffffffff1681526020019081526020016000208190555081600160008573ffffffffffffffffffffffffffffffffffffffff1673ffffffffffffffffffffffffffffffffffffffff168152602001908152602001600020600082825401925050819055508273ffffffffffffffffffffffffffffffffffffffff168473ffffffffffffffffffffffffffffffffffffffff167fddf252ad1be2c89b69c2b068fc378daa952ba7f163c4a11628f55a4df523b3ef84604051610c3891906110c4565b60405180910390a3610c4b848484610eef565b50505050565b610c5961077b565b73ffffffffffffffffffffffffffffffffffffffff16610c7761051c565b73ffffffffffffffffffffffffffffffffffffffff1614610ccd576040517f08c379a0000000000000000000000000000000000000000000000000000000008152600401610cc4906117bb565b60405180910390fd5b565b600073ffffffffffffffffffffffffffffffffffffffff168273ffffffffffffffffffffffffffffffffffffffff1603610d3e576040517f08c379a0000000000000000000000000000000000000000000000000000000008152600401610d3590611827565b60405180910390fd5b610d4a60008383610eea565b8060036000828254610d5c919061128f565b9250508190555080600160008473ffffffffffffffffffffffffffffffffffffffff1673ffffffffffffffffffffffffffffffffffffffff168152602001908152602001600020600082825401925050819055508173ffffffffffffffffffffffffffffffffffffffff16600073ffffffffffffffffffffffffffffffffffffffff167fddf252ad1be2c89b69c2b068fc378daa952ba7f163c4a11628f55a4df523b3ef83604051610e0e91906110c4565b60405180910390a3610e2260008383610eef565b5050565b60008060009054906101000a900473ffffffffffffffffffffffffffffffffffffffff169050816000806101000a81548173ffffffffffffffffffffffffffffffffffffffff021916908373ffffffffffffffffffffffffffffffffffffffff1602179055508173ffffffffffffffffffffffffffffffffffffffff168173ffffffffffffffffffffffffffffffffffffffff167f8be0079c531659141344cd1fd0a4f28419497f9722a3daafe3b4186f6b6457e060405160405180910390a35050565b505050565b505050565b600081519050919050565b600082825260208201905092915050565b60005b83811015610f2e578082015181840152602081019050610f13565b60008484015250505050565b6000601f19601f8301169050919050565b6000610f5682610ef4565b610f608185610eff565b9350610f70818560208601610f10565b610f7981610f3a565b840191505092915050565b60006020820190508181036000830152610f9e8184610f4b565b905092915050565b600080fd5b600073ffffffffffffffffffffffffffffffffffffffff82169050919050565b6000610fd682610fab565b9050919050565b610fe681610fcb565b8114610ff157600080fd5b50565b60008135905061100381610fdd565b92915050565b6000819050919050565b61101c81611009565b811461102757600080fd5b50565b60008135905061103981611013565b92915050565b6000806040838503121561105657611055610fa6565b5b600061106485828601610ff4565b92505060206110758582860161102a565b9150509250929050565b60008115159050919050565b6110948161107f565b82525050565b60006020820190506110af600083018461108b565b92915050565b6110be81611009565b82525050565b60006020820190506110d960008301846110b5565b92915050565b6000806000606084860312156110f8576110f7610fa6565b5b600061110686828701610ff4565b935050602061111786828701610ff4565b92505060406111288682870161102a565b9150509250925092565b600060ff82169050919050565b61114881611132565b82525050565b6000602082019050611163600083018461113f565b92915050565b60006020828403121561117f5761117e610fa6565b5b600061118d84828501610ff4565b91505092915050565b61119f81610fcb565b82525050565b60006020820190506111ba6000830184611196565b92915050565b600080604083850312156111d7576111d6610fa6565b5b60006111e585828601610ff4565b92505060206111f685828601610ff4565b9150509250929050565b7f4e487b7100000000000000000000000000000000000000000000000000000000600052602260045260246000fd5b6000600282049050600182168061124757607f821691505b60208210810361125a57611259611200565b5b50919050565b7f4e487b7100000000000000000000000000000000000000000000000000000000600052601160045260246000fd5b600061129a82611009565b91506112a583611009565b92508282019050808211156112bd576112bc611260565b5b92915050565b60006112ce82611009565b91506112d983611009565b92508282026112e781611009565b915082820484148315176112fe576112fd611260565b5b5092915050565b7f45524332303a2064656372656173656420616c6c6f77616e63652062656c6f7760008201527f207a65726f000000000000000000000000000000000000000000000000000000602082015250565b6000611361602583610eff565b915061136c82611305565b604082019050919050565b6000602082019050818103600083015261139081611354565b9050919050565b7f4f776e61626c653a206e6577206f776e657220697320746865207a65726f206160008201527f6464726573730000000000000000000000000000000000000000000000000000602082015250565b60006113f3602683610eff565b91506113fe82611397565b604082019050919050565b60006020820190508181036000830152611422816113e6565b9050919050565b7f45524332303a20617070726f76652066726f6d20746865207a65726f2061646460008201527f7265737300000000000000000000000000000000000000000000000000000000602082015250565b6000611485602483610eff565b915061149082611429565b604082019050919050565b600060208201905081810360008301526114b481611478565b9050919050565b7f45524332303a20617070726f766520746f20746865207a65726f20616464726560008201527f7373000000000000000000000000000000000000000000000000000000000000602082015250565b6000611517602283610eff565b9150611522826114bb565b604082019050919050565b600060208201905081810360008301526115468161150a565b9050919050565b7f45524332303a20696e73756666696369656e7420616c6c6f77616e6365000000600082015250565b6000611583601d83610eff565b915061158e8261154d565b602082019050919050565b600060208201905081810360008301526115b281611576565b9050919050565b7f45524332303a207472616e736665722066726f6d20746865207a65726f20616460008201527f6472657373000000000000000000000000000000000000000000000000000000602082015250565b6000611615602583610eff565b9150611620826115b9565b604082019050919050565b6000602082019050818103600083015261164481611608565b9050919050565b7f45524332303a207472616e7366657220746f20746865207a65726f206164647260008201527f6573730000000000000000000000000000000000000000000000000000000000602082015250565b60006116a7602383610eff565b91506116b28261164b565b604082019050919050565b600060208201905081810360008301526116d68161169a565b9050919050565b7f45524332303a207472616e7366657220616d6f756e742065786365656473206260008201527f616c616e63650000000000000000000000000000000000000000000000000000602082015250565b6000611739602683610eff565b9150611744826116dd565b604082019050919050565b600060208201905081810360008301526117688161172c565b9050919050565b7f4f776e61626c653a2063616c6c6572206973206e6f7420746865206f776e6572600082015250565b60006117a5602083610eff565b91506117b08261176f565b602082019050919050565b600060208201905081810360008301526117d481611798565b9050919050565b7f45524332303a206d696e7420746f20746865207a65726f206164647265737300600082015250565b6000611811601f83610eff565b915061181c826117db565b602082019050919050565b6000602082019050818103600083015261184081611804565b905091905056fea2646970667358221220f1312809b0f51976e114fe1b4a950609200f16d1fc758785b09abc9284e08eca64736f6c63430008130033",
  "linkReferences": {},
  "deployedLinkReferences": {}
}